{
  "contractName": "GreenCollectible",
  "abi": [
    {
      "inputs": [],
      "stateMutability": "nonpayable",
      "type": "constructor"
    },
    {
      "anonymous": false,
      "inputs": [
        {
          "indexed": true,
          "internalType": "address",
          "name": "owner",
          "type": "address"
        },
        {
          "indexed": true,
          "internalType": "address",
          "name": "approved",
          "type": "address"
        },
        {
          "indexed": true,
          "internalType": "uint256",
          "name": "tokenId",
          "type": "uint256"
        }
      ],
      "name": "Approval",
      "type": "event"
    },
    {
      "anonymous": false,
      "inputs": [
        {
          "indexed": true,
          "internalType": "address",
          "name": "owner",
          "type": "address"
        },
        {
          "indexed": true,
          "internalType": "address",
          "name": "operator",
          "type": "address"
        },
        {
          "indexed": false,
          "internalType": "bool",
          "name": "approved",
          "type": "bool"
        }
      ],
      "name": "ApprovalForAll",
      "type": "event"
    },
    {
      "anonymous": false,
      "inputs": [
        {
          "indexed": false,
          "internalType": "address",
          "name": "recipient",
          "type": "address"
        }
      ],
      "name": "Authorized",
      "type": "event"
    },
    {
      "anonymous": false,
      "inputs": [
        {
          "indexed": false,
          "internalType": "address",
          "name": "from",
          "type": "address"
        },
        {
          "indexed": false,
          "internalType": "address",
          "name": "to",
          "type": "address"
        },
        {
          "indexed": false,
          "internalType": "uint256",
          "name": "amount",
          "type": "uint256"
        }
      ],
      "name": "Donated",
      "type": "event"
    },
    {
      "anonymous": false,
      "inputs": [
        {
          "indexed": true,
          "internalType": "address",
          "name": "previousOwner",
          "type": "address"
        },
        {
          "indexed": true,
          "internalType": "address",
          "name": "newOwner",
          "type": "address"
        }
      ],
      "name": "OwnershipTransferred",
      "type": "event"
    },
    {
      "anonymous": false,
      "inputs": [
        {
          "indexed": true,
          "internalType": "address",
          "name": "from",
          "type": "address"
        },
        {
          "indexed": true,
          "internalType": "address",
          "name": "to",
          "type": "address"
        },
        {
          "indexed": true,
          "internalType": "uint256",
          "name": "tokenId",
          "type": "uint256"
        }
      ],
      "name": "Transfer",
      "type": "event"
    },
    {
      "anonymous": false,
      "inputs": [
        {
          "indexed": false,
          "internalType": "address",
          "name": "recipient",
          "type": "address"
        }
      ],
      "name": "Unauthorized",
      "type": "event"
    },
    {
      "inputs": [
        {
          "internalType": "address",
          "name": "to",
          "type": "address"
        },
        {
          "internalType": "uint256",
          "name": "tokenId",
          "type": "uint256"
        }
      ],
      "name": "approve",
      "outputs": [],
      "stateMutability": "nonpayable",
      "type": "function"
    },
    {
      "inputs": [
        {
          "internalType": "address",
          "name": "owner",
          "type": "address"
        }
      ],
      "name": "balanceOf",
      "outputs": [
        {
          "internalType": "uint256",
          "name": "",
          "type": "uint256"
        }
      ],
      "stateMutability": "view",
      "type": "function",
      "constant": true
    },
    {
      "inputs": [
        {
          "internalType": "uint256",
          "name": "tokenId",
          "type": "uint256"
        }
      ],
      "name": "getApproved",
      "outputs": [
        {
          "internalType": "address",
          "name": "",
          "type": "address"
        }
      ],
      "stateMutability": "view",
      "type": "function",
      "constant": true
    },
    {
      "inputs": [
        {
          "internalType": "string",
          "name": "",
          "type": "string"
        }
      ],
      "name": "hasBeenMinted",
      "outputs": [
        {
          "internalType": "bool",
          "name": "",
          "type": "bool"
        }
      ],
      "stateMutability": "view",
      "type": "function",
      "constant": true
    },
    {
      "inputs": [
        {
          "internalType": "address",
          "name": "",
          "type": "address"
        }
      ],
      "name": "isAnEligibleNonProfitOrganization",
      "outputs": [
        {
          "internalType": "bool",
          "name": "",
          "type": "bool"
        }
      ],
      "stateMutability": "view",
      "type": "function",
      "constant": true
    },
    {
      "inputs": [
        {
          "internalType": "address",
          "name": "owner",
          "type": "address"
        },
        {
          "internalType": "address",
          "name": "operator",
          "type": "address"
        }
      ],
      "name": "isApprovedForAll",
      "outputs": [
        {
          "internalType": "bool",
          "name": "",
          "type": "bool"
        }
      ],
      "stateMutability": "view",
      "type": "function",
      "constant": true
    },
    {
      "inputs": [],
      "name": "name",
      "outputs": [
        {
          "internalType": "string",
          "name": "",
          "type": "string"
        }
      ],
      "stateMutability": "view",
      "type": "function",
      "constant": true
    },
    {
      "inputs": [],
      "name": "owner",
      "outputs": [
        {
          "internalType": "address",
          "name": "",
          "type": "address"
        }
      ],
      "stateMutability": "view",
      "type": "function",
      "constant": true
    },
    {
      "inputs": [
        {
          "internalType": "uint256",
          "name": "tokenId",
          "type": "uint256"
        }
      ],
      "name": "ownerOf",
      "outputs": [
        {
          "internalType": "address",
          "name": "",
          "type": "address"
        }
      ],
      "stateMutability": "view",
      "type": "function",
      "constant": true
    },
    {
      "inputs": [],
      "name": "renounceOwnership",
      "outputs": [],
      "stateMutability": "nonpayable",
      "type": "function"
    },
    {
      "inputs": [
        {
          "internalType": "address",
          "name": "from",
          "type": "address"
        },
        {
          "internalType": "address",
          "name": "to",
          "type": "address"
        },
        {
          "internalType": "uint256",
          "name": "tokenId",
          "type": "uint256"
        }
      ],
      "name": "safeTransferFrom",
      "outputs": [],
      "stateMutability": "nonpayable",
      "type": "function"
    },
    {
      "inputs": [
        {
          "internalType": "address",
          "name": "from",
          "type": "address"
        },
        {
          "internalType": "address",
          "name": "to",
          "type": "address"
        },
        {
          "internalType": "uint256",
          "name": "tokenId",
          "type": "uint256"
        },
        {
          "internalType": "bytes",
          "name": "_data",
          "type": "bytes"
        }
      ],
      "name": "safeTransferFrom",
      "outputs": [],
      "stateMutability": "nonpayable",
      "type": "function"
    },
    {
      "inputs": [
        {
          "internalType": "address",
          "name": "operator",
          "type": "address"
        },
        {
          "internalType": "bool",
          "name": "approved",
          "type": "bool"
        }
      ],
      "name": "setApprovalForAll",
      "outputs": [],
      "stateMutability": "nonpayable",
      "type": "function"
    },
    {
      "inputs": [
        {
          "internalType": "bytes4",
          "name": "interfaceId",
          "type": "bytes4"
        }
      ],
      "name": "supportsInterface",
      "outputs": [
        {
          "internalType": "bool",
          "name": "",
          "type": "bool"
        }
      ],
      "stateMutability": "view",
      "type": "function",
      "constant": true
    },
    {
      "inputs": [],
      "name": "symbol",
      "outputs": [
        {
          "internalType": "string",
          "name": "",
          "type": "string"
        }
      ],
      "stateMutability": "view",
      "type": "function",
      "constant": true
    },
    {
      "inputs": [
        {
          "internalType": "uint256",
          "name": "index",
          "type": "uint256"
        }
      ],
      "name": "tokenByIndex",
      "outputs": [
        {
          "internalType": "uint256",
          "name": "",
          "type": "uint256"
        }
      ],
      "stateMutability": "view",
      "type": "function",
      "constant": true
    },
    {
      "inputs": [
        {
          "internalType": "address",
          "name": "owner",
          "type": "address"
        },
        {
          "internalType": "uint256",
          "name": "index",
          "type": "uint256"
        }
      ],
      "name": "tokenOfOwnerByIndex",
      "outputs": [
        {
          "internalType": "uint256",
          "name": "",
          "type": "uint256"
        }
      ],
      "stateMutability": "view",
      "type": "function",
      "constant": true
    },
    {
      "inputs": [
        {
          "internalType": "address",
          "name": "",
          "type": "address"
        }
      ],
      "name": "totalDonations",
      "outputs": [
        {
          "internalType": "uint256",
          "name": "",
          "type": "uint256"
        }
      ],
      "stateMutability": "view",
      "type": "function",
      "constant": true
    },
    {
      "inputs": [],
      "name": "totalSupply",
      "outputs": [
        {
          "internalType": "uint256",
          "name": "",
          "type": "uint256"
        }
      ],
      "stateMutability": "view",
      "type": "function",
      "constant": true
    },
    {
      "inputs": [
        {
          "internalType": "address",
          "name": "from",
          "type": "address"
        },
        {
          "internalType": "address",
          "name": "to",
          "type": "address"
        },
        {
          "internalType": "uint256",
          "name": "tokenId",
          "type": "uint256"
        }
      ],
      "name": "transferFrom",
      "outputs": [],
      "stateMutability": "nonpayable",
      "type": "function"
    },
    {
      "inputs": [
        {
          "internalType": "address",
          "name": "newOwner",
          "type": "address"
        }
      ],
      "name": "transferOwnership",
      "outputs": [],
      "stateMutability": "nonpayable",
      "type": "function"
    },
    {
      "inputs": [
        {
          "internalType": "string",
          "name": "metadata",
          "type": "string"
        },
        {
          "internalType": "address payable",
          "name": "recipient",
          "type": "address"
        }
      ],
      "name": "createCollectibleAndDonate",
      "outputs": [
        {
          "internalType": "uint256",
          "name": "",
          "type": "uint256"
        }
      ],
      "stateMutability": "payable",
      "type": "function",
      "payable": true
    },
    {
      "inputs": [
        {
          "internalType": "address",
          "name": "recipient",
          "type": "address"
        }
      ],
      "name": "authorizeRecipient",
      "outputs": [],
      "stateMutability": "nonpayable",
      "type": "function"
    },
    {
      "inputs": [
        {
          "internalType": "address",
          "name": "recipient",
          "type": "address"
        }
      ],
      "name": "unauthorizeRecipient",
      "outputs": [],
      "stateMutability": "nonpayable",
      "type": "function"
    },
    {
      "inputs": [
        {
          "internalType": "uint256",
          "name": "id",
          "type": "uint256"
        }
      ],
      "name": "getTopTenDonation",
      "outputs": [
        {
          "internalType": "address",
          "name": "donator",
          "type": "address"
        },
        {
          "internalType": "uint256",
          "name": "totalDonationsByDonator",
          "type": "uint256"
        }
      ],
      "stateMutability": "view",
      "type": "function",
      "constant": true
    },
    {
      "inputs": [
        {
          "internalType": "uint256",
          "name": "tokenId",
          "type": "uint256"
        }
      ],
      "name": "tokenURI",
      "outputs": [
        {
          "internalType": "string",
          "name": "",
          "type": "string"
        }
      ],
      "stateMutability": "view",
      "type": "function",
      "constant": true
    }
  ],
  "bytecode": "0x60806040523480156200001157600080fd5b506040518060400160405280601181526020017f4e4654726565436f6c6c65637469626c650000000000000000000000000000008152506040518060400160405280600481526020017f4e4654430000000000000000000000000000000000000000000000000000000081525081600090805190602001906200009692919062000171565b508060019080519060200190620000af92919062000171565b5050506000620000c46200016960201b60201c565b905080600a60006101000a81548173ffffffffffffffffffffffffffffffffffffffff021916908373ffffffffffffffffffffffffffffffffffffffff1602179055508073ffffffffffffffffffffffffffffffffffffffff16600073ffffffffffffffffffffffffffffffffffffffff167f8be0079c531659141344cd1fd0a4f28419497f9722a3daafe3b4186f6b6457e060405160405180910390a35062000286565b600033905090565b8280546200017f9062000221565b90600052602060002090601f016020900481019282620001a35760008555620001ef565b82601f10620001be57805160ff1916838001178555620001ef565b82800160010185558215620001ef579182015b82811115620001ee578251825591602001919060010190620001d1565b5b509050620001fe919062000202565b5090565b5b808211156200021d57600081600090555060010162000203565b5090565b600060028204905060018216806200023a57607f821691505b6020821081141562000251576200025062000257565b5b50919050565b7f4e487b7100000000000000000000000000000000000000000000000000000000600052602260045260246000fd5b6148ef80620002966000396000f3fe6080604052600436106101815760003560e01c8063715018a6116100d1578063b10d78241161008a578063c87b56dd11610064578063c87b56dd146105d2578063cf8eca811461060f578063e985e9c514610638578063f2fde38b1461067557610181565b8063b10d78241461053c578063b88d4fde14610579578063c3503d88146105a257610181565b8063715018a6146104405780638da5cb5b1461045757806395d89b41146104825780639f0c110b146104ad578063a22cb465146104d6578063aeb4e922146104ff57610181565b80632f745c591161013e5780635a4c38a7116101185780635a4c38a71461034b5780636352211e1461038857806366c990cc146103c557806370a082311461040357610181565b80632f745c59146102a857806342842e0e146102e55780634f6ccce71461030e57610181565b806301ffc9a71461018657806306fdde03146101c3578063081812fc146101ee578063095ea7b31461022b57806318160ddd1461025457806323b872dd1461027f575b600080fd5b34801561019257600080fd5b506101ad60048036038101906101a8919061338f565b61069e565b6040516101ba9190614073565b60405180910390f35b3480156101cf57600080fd5b506101d8610718565b6040516101e5919061408e565b60405180910390f35b3480156101fa57600080fd5b5061021560048036038101906102109190613476565b6107aa565b6040516102229190613fac565b60405180910390f35b34801561023757600080fd5b50610252600480360381019061024d9190613353565b61082f565b005b34801561026057600080fd5b50610269610947565b60405161027691906143f0565b60405180910390f35b34801561028b57600080fd5b506102a660048036038101906102a1919061324d565b610954565b005b3480156102b457600080fd5b506102cf60048036038101906102ca9190613353565b6109b4565b6040516102dc91906143f0565b60405180910390f35b3480156102f157600080fd5b5061030c6004803603810190610307919061324d565b610a59565b005b34801561031a57600080fd5b5061033560048036038101906103309190613476565b610a79565b60405161034291906143f0565b60405180910390f35b34801561035757600080fd5b50610372600480360381019061036d91906131e8565b610b10565b60405161037f91906143f0565b60405180910390f35b34801561039457600080fd5b506103af60048036038101906103aa9190613476565b610b28565b6040516103bc9190613fac565b60405180910390f35b3480156103d157600080fd5b506103ec60048036038101906103e79190613476565b610bda565b6040516103fa92919061404a565b60405180910390f35b34801561040f57600080fd5b5061042a600480360381019061042591906131e8565b610c8a565b60405161043791906143f0565b60405180910390f35b34801561044c57600080fd5b50610455610d42565b005b34801561046357600080fd5b5061046c610e7f565b6040516104799190613fac565b60405180910390f35b34801561048e57600080fd5b50610497610ea9565b6040516104a4919061408e565b60405180910390f35b3480156104b957600080fd5b506104d460048036038101906104cf91906131e8565b610f3b565b005b3480156104e257600080fd5b506104fd60048036038101906104f89190613317565b6110d6565b005b34801561050b57600080fd5b50610526600480360381019061052191906131e8565b611257565b6040516105339190614073565b60405180910390f35b34801561054857600080fd5b50610563600480360381019061055e91906133e1565b611277565b6040516105709190614073565b60405180910390f35b34801561058557600080fd5b506105a0600480360381019061059b919061329c565b6112ad565b005b6105bc60048036038101906105b79190613422565b61130f565b6040516105c991906143f0565b60405180910390f35b3480156105de57600080fd5b506105f960048036038101906105f49190613476565b61163f565b604051610606919061408e565b60405180910390f35b34801561061b57600080fd5b50610636600480360381019061063191906131e8565b611791565b005b34801561064457600080fd5b5061065f600480360381019061065a9190613211565b61192b565b60405161066c9190614073565b60405180910390f35b34801561068157600080fd5b5061069c600480360381019061069791906131e8565b6119bf565b005b60007f780e9d63000000000000000000000000000000000000000000000000000000007bffffffffffffffffffffffffffffffffffffffffffffffffffffffff1916827bffffffffffffffffffffffffffffffffffffffffffffffffffffffff19161480610711575061071082611b6b565b5b9050919050565b606060008054610727906146cd565b80601f0160208091040260200160405190810160405280929190818152602001828054610753906146cd565b80156107a05780601f10610775576101008083540402835291602001916107a0565b820191906000526020600020905b81548152906001019060200180831161078357829003601f168201915b5050505050905090565b60006107b582611c4d565b6107f4576040517f08c379a00000000000000000000000000000000000000000000000000000000081526004016107eb906142b0565b60405180910390fd5b6004600083815260200190815260200160002060009054906101000a900473ffffffffffffffffffffffffffffffffffffffff169050919050565b600061083a82610b28565b90508073ffffffffffffffffffffffffffffffffffffffff168373ffffffffffffffffffffffffffffffffffffffff1614156108ab576040517f08c379a00000000000000000000000000000000000000000000000000000000081526004016108a290614390565b60405180910390fd5b8073ffffffffffffffffffffffffffffffffffffffff166108ca611cb9565b73ffffffffffffffffffffffffffffffffffffffff1614806108f957506108f8816108f3611cb9565b61192b565b5b610938576040517f08c379a000000000000000000000000000000000000000000000000000000000815260040161092f906141d0565b60405180910390fd5b6109428383611cc1565b505050565b6000600880549050905090565b61096561095f611cb9565b82611d7a565b6109a4576040517f08c379a000000000000000000000000000000000000000000000000000000000815260040161099b906143b0565b60405180910390fd5b6109af838383611e58565b505050565b60006109bf83610c8a565b8210610a00576040517f08c379a00000000000000000000000000000000000000000000000000000000081526004016109f7906140d0565b60405180910390fd5b600660008473ffffffffffffffffffffffffffffffffffffffff1673ffffffffffffffffffffffffffffffffffffffff168152602001908152602001600020600083815260200190815260200160002054905092915050565b610a74838383604051806020016040528060008152506112ad565b505050565b6000610a83610947565b8210610ac4576040517f08c379a0000000000000000000000000000000000000000000000000000000008152600401610abb906143d0565b60405180910390fd5b60088281548110610afe577f4e487b7100000000000000000000000000000000000000000000000000000000600052603260045260246000fd5b90600052602060002001549050919050565b60226020528060005260406000206000915090505481565b6000806002600084815260200190815260200160002060009054906101000a900473ffffffffffffffffffffffffffffffffffffffff169050600073ffffffffffffffffffffffffffffffffffffffff168173ffffffffffffffffffffffffffffffffffffffff161415610bd1576040517f08c379a0000000000000000000000000000000000000000000000000000000008152600401610bc890614210565b60405180910390fd5b80915050919050565b600080600c83600a8110610c17577f4e487b7100000000000000000000000000000000000000000000000000000000600052603260045260246000fd5b6002020160000160009054906101000a900473ffffffffffffffffffffffffffffffffffffffff16600c84600a8110610c79577f4e487b7100000000000000000000000000000000000000000000000000000000600052603260045260246000fd5b600202016001015491509150915091565b60008073ffffffffffffffffffffffffffffffffffffffff168273ffffffffffffffffffffffffffffffffffffffff161415610cfb576040517f08c379a0000000000000000000000000000000000000000000000000000000008152600401610cf2906141f0565b60405180910390fd5b600360008373ffffffffffffffffffffffffffffffffffffffff1673ffffffffffffffffffffffffffffffffffffffff168152602001908152602001600020549050919050565b610d4a611cb9565b73ffffffffffffffffffffffffffffffffffffffff16610d68610e7f565b73ffffffffffffffffffffffffffffffffffffffff1614610dbe576040517f08c379a0000000000000000000000000000000000000000000000000000000008152600401610db5906142f0565b60405180910390fd5b600073ffffffffffffffffffffffffffffffffffffffff16600a60009054906101000a900473ffffffffffffffffffffffffffffffffffffffff1673ffffffffffffffffffffffffffffffffffffffff167f8be0079c531659141344cd1fd0a4f28419497f9722a3daafe3b4186f6b6457e060405160405180910390a36000600a60006101000a81548173ffffffffffffffffffffffffffffffffffffffff021916908373ffffffffffffffffffffffffffffffffffffffff160217905550565b6000600a60009054906101000a900473ffffffffffffffffffffffffffffffffffffffff16905090565b606060018054610eb8906146cd565b80601f0160208091040260200160405190810160405280929190818152602001828054610ee4906146cd565b8015610f315780601f10610f0657610100808354040283529160200191610f31565b820191906000526020600020905b815481529060010190602001808311610f1457829003601f168201915b5050505050905090565b610f43611cb9565b73ffffffffffffffffffffffffffffffffffffffff16610f61610e7f565b73ffffffffffffffffffffffffffffffffffffffff1614610fb7576040517f08c379a0000000000000000000000000000000000000000000000000000000008152600401610fae906142f0565b60405180910390fd5b602160008273ffffffffffffffffffffffffffffffffffffffff1673ffffffffffffffffffffffffffffffffffffffff16815260200190815260200160002060009054906101000a900460ff1615611044576040517f08c379a000000000000000000000000000000000000000000000000000000000815260040161103b90614250565b60405180910390fd5b6001602160008373ffffffffffffffffffffffffffffffffffffffff1673ffffffffffffffffffffffffffffffffffffffff16815260200190815260200160002060006101000a81548160ff0219169083151502179055507fdc84e3a4c83602050e3865df792a4e6800211a79ac60db94e703a820ce892924816040516110cb9190613fac565b60405180910390a150565b6110de611cb9565b73ffffffffffffffffffffffffffffffffffffffff168273ffffffffffffffffffffffffffffffffffffffff16141561114c576040517f08c379a000000000000000000000000000000000000000000000000000000000815260040161114390614190565b60405180910390fd5b8060056000611159611cb9565b73ffffffffffffffffffffffffffffffffffffffff1673ffffffffffffffffffffffffffffffffffffffff16815260200190815260200160002060008473ffffffffffffffffffffffffffffffffffffffff1673ffffffffffffffffffffffffffffffffffffffff16815260200190815260200160002060006101000a81548160ff0219169083151502179055508173ffffffffffffffffffffffffffffffffffffffff16611206611cb9565b73ffffffffffffffffffffffffffffffffffffffff167f17307eab39ab6107e8899845ad3d59bd9653f200f220920489ca2b5937696c318360405161124b9190614073565b60405180910390a35050565b60216020528060005260406000206000915054906101000a900460ff1681565b6023818051602081018201805184825260208301602085012081835280955050505050506000915054906101000a900460ff1681565b6112be6112b8611cb9565b83611d7a565b6112fd576040517f08c379a00000000000000000000000000000000000000000000000000000000081526004016112f4906143b0565b60405180910390fd5b611309848484846120b4565b50505050565b600066038d7ea4c6800034101561135b576040517f08c379a0000000000000000000000000000000000000000000000000000000008152600401611352906140b0565b60405180910390fd5b602160008373ffffffffffffffffffffffffffffffffffffffff1673ffffffffffffffffffffffffffffffffffffffff16815260200190815260200160002060009054906101000a900460ff166113e7576040517f08c379a00000000000000000000000000000000000000000000000000000000081526004016113de90614230565b60405180910390fd5b6023836040516113f79190613f5c565b908152602001604051809103902060009054906101000a900460ff1615611453576040517f08c379a000000000000000000000000000000000000000000000000000000000815260040161144a90614370565b60405180910390fd5b60008273ffffffffffffffffffffffffffffffffffffffff163460405161147990613f97565b60006040518083038185875af1925050503d80600081146114b6576040519150601f19603f3d011682016040523d82523d6000602084013e6114bb565b606091505b50509050806114ff576040517f08c379a00000000000000000000000000000000000000000000000000000000081526004016114f690614150565b60405180910390fd5b34602260003373ffffffffffffffffffffffffffffffffffffffff1673ffffffffffffffffffffffffffffffffffffffff1681526020019081526020016000205461154a91906144ea565b602260003373ffffffffffffffffffffffffffffffffffffffff1673ffffffffffffffffffffffffffffffffffffffff16815260200190815260200160002081905550600160238560405161159f9190613f5c565b908152602001604051809103902060006101000a81548160ff0219169083151502179055506115ce600b612110565b60006115da600b612126565b90506115e63382612134565b6115f08186612302565b6115f933612376565b7f4dfff917e1fbb261a082e98cc7d43029621f6a6eb05ff3fef1510d5f1eb4857c33853460405161162c93929190613fc7565b60405180910390a1809250505092915050565b606061164a82611c4d565b611689576040517f08c379a000000000000000000000000000000000000000000000000000000000815260040161168090614290565b60405180910390fd5b60006020600084815260200190815260200160002080546116a9906146cd565b80601f01602080910402602001604051908101604052809291908181526020018280546116d5906146cd565b80156117225780601f106116f757610100808354040283529160200191611722565b820191906000526020600020905b81548152906001019060200180831161170557829003601f168201915b5050505050905060006117336126e7565b905060008151141561174957819250505061178c565b60008251111561177e578082604051602001611766929190613f73565b6040516020818303038152906040529250505061178c565b611787846126fe565b925050505b919050565b611799611cb9565b73ffffffffffffffffffffffffffffffffffffffff166117b7610e7f565b73ffffffffffffffffffffffffffffffffffffffff161461180d576040517f08c379a0000000000000000000000000000000000000000000000000000000008152600401611804906142f0565b60405180910390fd5b602160008273ffffffffffffffffffffffffffffffffffffffff1673ffffffffffffffffffffffffffffffffffffffff16815260200190815260200160002060009054906101000a900460ff16611899576040517f08c379a000000000000000000000000000000000000000000000000000000000815260040161189090614310565b60405180910390fd5b6000602160008373ffffffffffffffffffffffffffffffffffffffff1673ffffffffffffffffffffffffffffffffffffffff16815260200190815260200160002060006101000a81548160ff0219169083151502179055507f8e4a23d6a5d81f013eca4bc92aeb9214ccafcaebd1f097c350c922d6e19122d5816040516119209190613fac565b60405180910390a150565b6000600560008473ffffffffffffffffffffffffffffffffffffffff1673ffffffffffffffffffffffffffffffffffffffff16815260200190815260200160002060008373ffffffffffffffffffffffffffffffffffffffff1673ffffffffffffffffffffffffffffffffffffffff16815260200190815260200160002060009054906101000a900460ff16905092915050565b6119c7611cb9565b73ffffffffffffffffffffffffffffffffffffffff166119e5610e7f565b73ffffffffffffffffffffffffffffffffffffffff1614611a3b576040517f08c379a0000000000000000000000000000000000000000000000000000000008152600401611a32906142f0565b60405180910390fd5b600073ffffffffffffffffffffffffffffffffffffffff168173ffffffffffffffffffffffffffffffffffffffff161415611aab576040517f08c379a0000000000000000000000000000000000000000000000000000000008152600401611aa290614110565b60405180910390fd5b8073ffffffffffffffffffffffffffffffffffffffff16600a60009054906101000a900473ffffffffffffffffffffffffffffffffffffffff1673ffffffffffffffffffffffffffffffffffffffff167f8be0079c531659141344cd1fd0a4f28419497f9722a3daafe3b4186f6b6457e060405160405180910390a380600a60006101000a81548173ffffffffffffffffffffffffffffffffffffffff021916908373ffffffffffffffffffffffffffffffffffffffff16021790555050565b60007f80ac58cd000000000000000000000000000000000000000000000000000000007bffffffffffffffffffffffffffffffffffffffffffffffffffffffff1916827bffffffffffffffffffffffffffffffffffffffffffffffffffffffff19161480611c3657507f5b5e139f000000000000000000000000000000000000000000000000000000007bffffffffffffffffffffffffffffffffffffffffffffffffffffffff1916827bffffffffffffffffffffffffffffffffffffffffffffffffffffffff1916145b80611c465750611c45826127a5565b5b9050919050565b60008073ffffffffffffffffffffffffffffffffffffffff166002600084815260200190815260200160002060009054906101000a900473ffffffffffffffffffffffffffffffffffffffff1673ffffffffffffffffffffffffffffffffffffffff1614159050919050565b600033905090565b816004600083815260200190815260200160002060006101000a81548173ffffffffffffffffffffffffffffffffffffffff021916908373ffffffffffffffffffffffffffffffffffffffff160217905550808273ffffffffffffffffffffffffffffffffffffffff16611d3483610b28565b73ffffffffffffffffffffffffffffffffffffffff167f8c5be1e5ebec7d5bd14f71427d1e84f3dd0314c0f7b2291e5b200ac8c7c3b92560405160405180910390a45050565b6000611d8582611c4d565b611dc4576040517f08c379a0000000000000000000000000000000000000000000000000000000008152600401611dbb906141b0565b60405180910390fd5b6000611dcf83610b28565b90508073ffffffffffffffffffffffffffffffffffffffff168473ffffffffffffffffffffffffffffffffffffffff161480611e3e57508373ffffffffffffffffffffffffffffffffffffffff16611e26846107aa565b73ffffffffffffffffffffffffffffffffffffffff16145b80611e4f5750611e4e818561192b565b5b91505092915050565b8273ffffffffffffffffffffffffffffffffffffffff16611e7882610b28565b73ffffffffffffffffffffffffffffffffffffffff1614611ece576040517f08c379a0000000000000000000000000000000000000000000000000000000008152600401611ec590614330565b60405180910390fd5b600073ffffffffffffffffffffffffffffffffffffffff168273ffffffffffffffffffffffffffffffffffffffff161415611f3e576040517f08c379a0000000000000000000000000000000000000000000000000000000008152600401611f3590614170565b60405180910390fd5b611f4983838361280f565b611f54600082611cc1565b6001600360008573ffffffffffffffffffffffffffffffffffffffff1673ffffffffffffffffffffffffffffffffffffffff1681526020019081526020016000206000828254611fa49190614571565b925050819055506001600360008473ffffffffffffffffffffffffffffffffffffffff1673ffffffffffffffffffffffffffffffffffffffff1681526020019081526020016000206000828254611ffb91906144ea565b92505081905550816002600083815260200190815260200160002060006101000a81548173ffffffffffffffffffffffffffffffffffffffff021916908373ffffffffffffffffffffffffffffffffffffffff160217905550808273ffffffffffffffffffffffffffffffffffffffff168473ffffffffffffffffffffffffffffffffffffffff167fddf252ad1be2c89b69c2b068fc378daa952ba7f163c4a11628f55a4df523b3ef60405160405180910390a4505050565b6120bf848484611e58565b6120cb84848484612923565b61210a576040517f08c379a0000000000000000000000000000000000000000000000000000000008152600401612101906140f0565b60405180910390fd5b50505050565b6001816000016000828254019250508190555050565b600081600001549050919050565b600073ffffffffffffffffffffffffffffffffffffffff168273ffffffffffffffffffffffffffffffffffffffff1614156121a4576040517f08c379a000000000000000000000000000000000000000000000000000000000815260040161219b90614270565b60405180910390fd5b6121ad81611c4d565b156121ed576040517f08c379a00000000000000000000000000000000000000000000000000000000081526004016121e490614130565b60405180910390fd5b6121f96000838361280f565b6001600360008473ffffffffffffffffffffffffffffffffffffffff1673ffffffffffffffffffffffffffffffffffffffff168152602001908152602001600020600082825461224991906144ea565b92505081905550816002600083815260200190815260200160002060006101000a81548173ffffffffffffffffffffffffffffffffffffffff021916908373ffffffffffffffffffffffffffffffffffffffff160217905550808273ffffffffffffffffffffffffffffffffffffffff16600073ffffffffffffffffffffffffffffffffffffffff167fddf252ad1be2c89b69c2b068fc378daa952ba7f163c4a11628f55a4df523b3ef60405160405180910390a45050565b61230b82611c4d565b61234a576040517f08c379a0000000000000000000000000000000000000000000000000000000008152600401612341906142d0565b60405180910390fd5b80602060008481526020019081526020016000209080519060200190612371929190612ff7565b505050565b6000805b600a82101561242757602260008473ffffffffffffffffffffffffffffffffffffffff1673ffffffffffffffffffffffffffffffffffffffff16815260200190815260200160002054600c83600a81106123fd577f4e487b7100000000000000000000000000000000000000000000000000000000600052603260045260246000fd5b600202016001015410156124145760019050612427565b818061241f906146ff565b92505061237a565b80156126e25760006001600a61243d9190614571565b90505b828111156125db57600c6001826124579190614571565b600a811061248e577f4e487b7100000000000000000000000000000000000000000000000000000000600052603260045260246000fd5b6002020160000160009054906101000a900473ffffffffffffffffffffffffffffffffffffffff16600c82600a81106124f0577f4e487b7100000000000000000000000000000000000000000000000000000000600052603260045260246000fd5b6002020160000160006101000a81548173ffffffffffffffffffffffffffffffffffffffff021916908373ffffffffffffffffffffffffffffffffffffffff160217905550600c6001826125449190614571565b600a811061257b577f4e487b7100000000000000000000000000000000000000000000000000000000600052603260045260246000fd5b6002020160010154600c82600a81106125bd577f4e487b7100000000000000000000000000000000000000000000000000000000600052603260045260246000fd5b600202016001018190555080806125d3906146a3565b915050612440565b5082600c83600a8110612617577f4e487b7100000000000000000000000000000000000000000000000000000000600052603260045260246000fd5b6002020160000160006101000a81548173ffffffffffffffffffffffffffffffffffffffff021916908373ffffffffffffffffffffffffffffffffffffffff160217905550602260008473ffffffffffffffffffffffffffffffffffffffff1673ffffffffffffffffffffffffffffffffffffffff16815260200190815260200160002054600c83600a81106126d6577f4e487b7100000000000000000000000000000000000000000000000000000000600052603260045260246000fd5b60020201600101819055505b505050565b606060405180602001604052806000815250905090565b606061270982611c4d565b612748576040517f08c379a000000000000000000000000000000000000000000000000000000000815260040161273f90614350565b60405180910390fd5b60006127526126e7565b90506000815111612772576040518060200160405280600081525061279d565b8061277c84612aba565b60405160200161278d929190613f73565b6040516020818303038152906040525b915050919050565b60007f01ffc9a7000000000000000000000000000000000000000000000000000000007bffffffffffffffffffffffffffffffffffffffffffffffffffffffff1916827bffffffffffffffffffffffffffffffffffffffffffffffffffffffff1916149050919050565b61281a838383612c67565b600073ffffffffffffffffffffffffffffffffffffffff168373ffffffffffffffffffffffffffffffffffffffff16141561285d5761285881612c6c565b61289c565b8173ffffffffffffffffffffffffffffffffffffffff168373ffffffffffffffffffffffffffffffffffffffff161461289b5761289a8382612cb5565b5b5b600073ffffffffffffffffffffffffffffffffffffffff168273ffffffffffffffffffffffffffffffffffffffff1614156128df576128da81612e22565b61291e565b8273ffffffffffffffffffffffffffffffffffffffff168273ffffffffffffffffffffffffffffffffffffffff161461291d5761291c8282612f65565b5b5b505050565b60006129448473ffffffffffffffffffffffffffffffffffffffff16612fe4565b15612aad578373ffffffffffffffffffffffffffffffffffffffff1663150b7a0261296d611cb9565b8786866040518563ffffffff1660e01b815260040161298f9493929190613ffe565b602060405180830381600087803b1580156129a957600080fd5b505af19250505080156129da57506040513d601f19601f820116820180604052508101906129d791906133b8565b60015b612a5d573d8060008114612a0a576040519150601f19603f3d011682016040523d82523d6000602084013e612a0f565b606091505b50600081511415612a55576040517f08c379a0000000000000000000000000000000000000000000000000000000008152600401612a4c906140f0565b60405180910390fd5b805181602001fd5b63150b7a0260e01b7bffffffffffffffffffffffffffffffffffffffffffffffffffffffff1916817bffffffffffffffffffffffffffffffffffffffffffffffffffffffff191614915050612ab2565b600190505b949350505050565b60606000821415612b02576040518060400160405280600181526020017f30000000000000000000000000000000000000000000000000000000000000008152509050612c62565b600082905060005b60008214612b34578080612b1d906146ff565b915050600a82612b2d9190614540565b9150612b0a565b60008167ffffffffffffffff811115612b76577f4e487b7100000000000000000000000000000000000000000000000000000000600052604160045260246000fd5b6040519080825280601f01601f191660200182016040528015612ba85781602001600182028036833780820191505090505b5090505b60008514612c5b57600182612bc19190614571565b9150600a85612bd09190614748565b6030612bdc91906144ea565b60f81b818381518110612c18577f4e487b7100000000000000000000000000000000000000000000000000000000600052603260045260246000fd5b60200101907effffffffffffffffffffffffffffffffffffffffffffffffffffffffffffff1916908160001a905350600a85612c549190614540565b9450612bac565b8093505050505b919050565b505050565b6008805490506009600083815260200190815260200160002081905550600881908060018154018082558091505060019003906000526020600020016000909190919091505550565b60006001612cc284610c8a565b612ccc9190614571565b9050600060076000848152602001908152602001600020549050818114612db1576000600660008673ffffffffffffffffffffffffffffffffffffffff1673ffffffffffffffffffffffffffffffffffffffff168152602001908152602001600020600084815260200190815260200160002054905080600660008773ffffffffffffffffffffffffffffffffffffffff1673ffffffffffffffffffffffffffffffffffffffff168152602001908152602001600020600084815260200190815260200160002081905550816007600083815260200190815260200160002081905550505b6007600084815260200190815260200160002060009055600660008573ffffffffffffffffffffffffffffffffffffffff1673ffffffffffffffffffffffffffffffffffffffff16815260200190815260200160002060008381526020019081526020016000206000905550505050565b60006001600880549050612e369190614571565b9050600060096000848152602001908152602001600020549050600060088381548110612e8c577f4e487b7100000000000000000000000000000000000000000000000000000000600052603260045260246000fd5b906000526020600020015490508060088381548110612ed4577f4e487b7100000000000000000000000000000000000000000000000000000000600052603260045260246000fd5b906000526020600020018190555081600960008381526020019081526020016000208190555060096000858152602001908152602001600020600090556008805480612f49577f4e487b7100000000000000000000000000000000000000000000000000000000600052603160045260246000fd5b6001900381819060005260206000200160009055905550505050565b6000612f7083610c8a565b905081600660008573ffffffffffffffffffffffffffffffffffffffff1673ffffffffffffffffffffffffffffffffffffffff168152602001908152602001600020600083815260200190815260200160002081905550806007600084815260200190815260200160002081905550505050565b600080823b905060008111915050919050565b828054613003906146cd565b90600052602060002090601f016020900481019282613025576000855561306c565b82601f1061303e57805160ff191683800117855561306c565b8280016001018555821561306c579182015b8281111561306b578251825591602001919060010190613050565b5b509050613079919061307d565b5090565b5b8082111561309657600081600090555060010161307e565b5090565b60006130ad6130a88461443c565b61440b565b9050828152602081018484840111156130c557600080fd5b6130d0848285614661565b509392505050565b60006130eb6130e68461446c565b61440b565b90508281526020810184848401111561310357600080fd5b61310e848285614661565b509392505050565b60008135905061312581614846565b92915050565b60008135905061313a8161485d565b92915050565b60008135905061314f81614874565b92915050565b6000813590506131648161488b565b92915050565b6000815190506131798161488b565b92915050565b600082601f83011261319057600080fd5b81356131a084826020860161309a565b91505092915050565b600082601f8301126131ba57600080fd5b81356131ca8482602086016130d8565b91505092915050565b6000813590506131e2816148a2565b92915050565b6000602082840312156131fa57600080fd5b600061320884828501613116565b91505092915050565b6000806040838503121561322457600080fd5b600061323285828601613116565b925050602061324385828601613116565b9150509250929050565b60008060006060848603121561326257600080fd5b600061327086828701613116565b935050602061328186828701613116565b9250506040613292868287016131d3565b9150509250925092565b600080600080608085870312156132b257600080fd5b60006132c087828801613116565b94505060206132d187828801613116565b93505060406132e2878288016131d3565b925050606085013567ffffffffffffffff8111156132ff57600080fd5b61330b8782880161317f565b91505092959194509250565b6000806040838503121561332a57600080fd5b600061333885828601613116565b925050602061334985828601613140565b9150509250929050565b6000806040838503121561336657600080fd5b600061337485828601613116565b9250506020613385858286016131d3565b9150509250929050565b6000602082840312156133a157600080fd5b60006133af84828501613155565b91505092915050565b6000602082840312156133ca57600080fd5b60006133d88482850161316a565b91505092915050565b6000602082840312156133f357600080fd5b600082013567ffffffffffffffff81111561340d57600080fd5b613419848285016131a9565b91505092915050565b6000806040838503121561343557600080fd5b600083013567ffffffffffffffff81111561344f57600080fd5b61345b858286016131a9565b925050602061346c8582860161312b565b9150509250929050565b60006020828403121561348857600080fd5b6000613496848285016131d3565b91505092915050565b6134a88161462b565b82525050565b6134b7816145a5565b82525050565b6134c6816145c9565b82525050565b60006134d78261449c565b6134e181856144b2565b93506134f1818560208601614670565b6134fa81614835565b840191505092915050565b6000613510826144a7565b61351a81856144ce565b935061352a818560208601614670565b61353381614835565b840191505092915050565b6000613549826144a7565b61355381856144df565b9350613563818560208601614670565b80840191505092915050565b600061357c6060836144ce565b91507f596f75206861766520746f20646f6e617465206174206c6561737420302e303060008301527f312065746820746f20746865206e6f6e2d70726f666974206f7267616e697a6160208301527f74696f6e20696e206f7264657220746f2063726561746520746865204e46542e6040830152606082019050919050565b6000613608602b836144ce565b91507f455243373231456e756d657261626c653a206f776e657220696e646578206f7560008301527f74206f6620626f756e64730000000000000000000000000000000000000000006020830152604082019050919050565b600061366e6032836144ce565b91507f4552433732313a207472616e7366657220746f206e6f6e20455243373231526560008301527f63656976657220696d706c656d656e74657200000000000000000000000000006020830152604082019050919050565b60006136d46026836144ce565b91507f4f776e61626c653a206e6577206f776e657220697320746865207a65726f206160008301527f64647265737300000000000000000000000000000000000000000000000000006020830152604082019050919050565b600061373a601c836144ce565b91507f4552433732313a20746f6b656e20616c7265616479206d696e746564000000006000830152602082019050919050565b600061377a6014836144ce565b91507f4661696c656420746f2073656e642045746865720000000000000000000000006000830152602082019050919050565b60006137ba6024836144ce565b91507f4552433732313a207472616e7366657220746f20746865207a65726f2061646460008301527f72657373000000000000000000000000000000000000000000000000000000006020830152604082019050919050565b60006138206019836144ce565b91507f4552433732313a20617070726f766520746f2063616c6c6572000000000000006000830152602082019050919050565b6000613860602c836144ce565b91507f4552433732313a206f70657261746f7220717565727920666f72206e6f6e657860008301527f697374656e7420746f6b656e00000000000000000000000000000000000000006020830152604082019050919050565b60006138c66038836144ce565b91507f4552433732313a20617070726f76652063616c6c6572206973206e6f74206f7760008301527f6e6572206e6f7220617070726f76656420666f7220616c6c00000000000000006020830152604082019050919050565b600061392c602a836144ce565b91507f4552433732313a2062616c616e636520717565727920666f7220746865207a6560008301527f726f2061646472657373000000000000000000000000000000000000000000006020830152604082019050919050565b60006139926029836144ce565b91507f4552433732313a206f776e657220717565727920666f72206e6f6e657869737460008301527f656e7420746f6b656e00000000000000000000000000000000000000000000006020830152604082019050919050565b60006139f86057836144ce565b91507f596f75206172652073656e64696e672065746820746f2061207265636970696560008301527f6e742074686174206973206e6f742070617274206f6620746865206c6973742060208301527f6f6620656c696769626c6520726563697069656e74732e0000000000000000006040830152606082019050919050565b6000613a846026836144ce565b91507f526563697069656e742068617320616c7265616479206265656e20617574686f60008301527f72697a65642e00000000000000000000000000000000000000000000000000006020830152604082019050919050565b6000613aea6020836144ce565b91507f4552433732313a206d696e7420746f20746865207a65726f20616464726573736000830152602082019050919050565b6000613b2a6031836144ce565b91507f45524337323155524953746f726167653a2055524920717565727920666f722060008301527f6e6f6e6578697374656e7420746f6b656e0000000000000000000000000000006020830152604082019050919050565b6000613b90602c836144ce565b91507f4552433732313a20617070726f76656420717565727920666f72206e6f6e657860008301527f697374656e7420746f6b656e00000000000000000000000000000000000000006020830152604082019050919050565b6000613bf6602c836144ce565b91507f4552433732314d657461646174613a2055524920736574206f66206e6f6e657860008301527f697374656e7420746f6b656e00000000000000000000000000000000000000006020830152604082019050919050565b6000613c5c6020836144ce565b91507f4f776e61626c653a2063616c6c6572206973206e6f7420746865206f776e65726000830152602082019050919050565b6000613c9c601f836144ce565b91507f526563697069656e742068617320746f20626520617574686f72697a65642e006000830152602082019050919050565b6000613cdc6029836144ce565b91507f4552433732313a207472616e73666572206f6620746f6b656e2074686174206960008301527f73206e6f74206f776e00000000000000000000000000000000000000000000006020830152604082019050919050565b6000613d42602f836144ce565b91507f4552433732314d657461646174613a2055524920717565727920666f72206e6f60008301527f6e6578697374656e7420746f6b656e00000000000000000000000000000000006020830152604082019050919050565b6000613da86034836144ce565b91507f54686973204950465320686173682068617320616c7265616479206265656e2060008301527f7573656420746f206d696e7420616e204e4654210000000000000000000000006020830152604082019050919050565b6000613e0e6021836144ce565b91507f4552433732313a20617070726f76616c20746f2063757272656e74206f776e6560008301527f72000000000000000000000000000000000000000000000000000000000000006020830152604082019050919050565b6000613e746000836144c3565b9150600082019050919050565b6000613e8e6031836144ce565b91507f4552433732313a207472616e736665722063616c6c6572206973206e6f74206f60008301527f776e6572206e6f7220617070726f7665640000000000000000000000000000006020830152604082019050919050565b6000613ef4602c836144ce565b91507f455243373231456e756d657261626c653a20676c6f62616c20696e646578206f60008301527f7574206f6620626f756e647300000000000000000000000000000000000000006020830152604082019050919050565b613f5681614621565b82525050565b6000613f68828461353e565b915081905092915050565b6000613f7f828561353e565b9150613f8b828461353e565b91508190509392505050565b6000613fa282613e67565b9150819050919050565b6000602082019050613fc160008301846134ae565b92915050565b6000606082019050613fdc60008301866134ae565b613fe9602083018561349f565b613ff66040830184613f4d565b949350505050565b600060808201905061401360008301876134ae565b61402060208301866134ae565b61402d6040830185613f4d565b818103606083015261403f81846134cc565b905095945050505050565b600060408201905061405f60008301856134ae565b61406c6020830184613f4d565b9392505050565b600060208201905061408860008301846134bd565b92915050565b600060208201905081810360008301526140a88184613505565b905092915050565b600060208201905081810360008301526140c98161356f565b9050919050565b600060208201905081810360008301526140e9816135fb565b9050919050565b6000602082019050818103600083015261410981613661565b9050919050565b60006020820190508181036000830152614129816136c7565b9050919050565b600060208201905081810360008301526141498161372d565b9050919050565b600060208201905081810360008301526141698161376d565b9050919050565b60006020820190508181036000830152614189816137ad565b9050919050565b600060208201905081810360008301526141a981613813565b9050919050565b600060208201905081810360008301526141c981613853565b9050919050565b600060208201905081810360008301526141e9816138b9565b9050919050565b600060208201905081810360008301526142098161391f565b9050919050565b6000602082019050818103600083015261422981613985565b9050919050565b60006020820190508181036000830152614249816139eb565b9050919050565b6000602082019050818103600083015261426981613a77565b9050919050565b6000602082019050818103600083015261428981613add565b9050919050565b600060208201905081810360008301526142a981613b1d565b9050919050565b600060208201905081810360008301526142c981613b83565b9050919050565b600060208201905081810360008301526142e981613be9565b9050919050565b6000602082019050818103600083015261430981613c4f565b9050919050565b6000602082019050818103600083015261432981613c8f565b9050919050565b6000602082019050818103600083015261434981613ccf565b9050919050565b6000602082019050818103600083015261436981613d35565b9050919050565b6000602082019050818103600083015261438981613d9b565b9050919050565b600060208201905081810360008301526143a981613e01565b9050919050565b600060208201905081810360008301526143c981613e81565b9050919050565b600060208201905081810360008301526143e981613ee7565b9050919050565b60006020820190506144056000830184613f4d565b92915050565b6000604051905081810181811067ffffffffffffffff8211171561443257614431614806565b5b8060405250919050565b600067ffffffffffffffff82111561445757614456614806565b5b601f19601f8301169050602081019050919050565b600067ffffffffffffffff82111561448757614486614806565b5b601f19601f8301169050602081019050919050565b600081519050919050565b600081519050919050565b600082825260208201905092915050565b600081905092915050565b600082825260208201905092915050565b600081905092915050565b60006144f582614621565b915061450083614621565b9250827fffffffffffffffffffffffffffffffffffffffffffffffffffffffffffffffff0382111561453557614534614779565b5b828201905092915050565b600061454b82614621565b915061455683614621565b925082614566576145656147a8565b5b828204905092915050565b600061457c82614621565b915061458783614621565b92508282101561459a57614599614779565b5b828203905092915050565b60006145b082614601565b9050919050565b60006145c282614601565b9050919050565b60008115159050919050565b60007fffffffff0000000000000000000000000000000000000000000000000000000082169050919050565b600073ffffffffffffffffffffffffffffffffffffffff82169050919050565b6000819050919050565b60006146368261463d565b9050919050565b60006146488261464f565b9050919050565b600061465a82614601565b9050919050565b82818337600083830152505050565b60005b8381101561468e578082015181840152602081019050614673565b8381111561469d576000848401525b50505050565b60006146ae82614621565b915060008214156146c2576146c1614779565b5b600182039050919050565b600060028204905060018216806146e557607f821691505b602082108114156146f9576146f86147d7565b5b50919050565b600061470a82614621565b91507fffffffffffffffffffffffffffffffffffffffffffffffffffffffffffffffff82141561473d5761473c614779565b5b600182019050919050565b600061475382614621565b915061475e83614621565b92508261476e5761476d6147a8565b5b828206905092915050565b7f4e487b7100000000000000000000000000000000000000000000000000000000600052601160045260246000fd5b7f4e487b7100000000000000000000000000000000000000000000000000000000600052601260045260246000fd5b7f4e487b7100000000000000000000000000000000000000000000000000000000600052602260045260246000fd5b7f4e487b7100000000000000000000000000000000000000000000000000000000600052604160045260246000fd5b6000601f19601f8301169050919050565b61484f816145a5565b811461485a57600080fd5b50565b614866816145b7565b811461487157600080fd5b50565b61487d816145c9565b811461488857600080fd5b50565b614894816145d5565b811461489f57600080fd5b50565b6148ab81614621565b81146148b657600080fd5b5056fea264697066735822122020a667609153740c295d0a8d69f1f4aa33c423c662d3a55e3e0c12dcf64f952064736f6c63430008000033",
  "immutableReferences": {},
  "source": "// SPDX-License-Identifier: MIT\r\npragma solidity ^0.8.0;\r\n\r\nimport \"@openzeppelin/contracts/token/ERC721/extensions/ERC721Enumerable.sol\";\r\nimport \"@openzeppelin/contracts/utils/Counters.sol\";\r\nimport \"@openzeppelin/contracts/access/Ownable.sol\";\r\n\r\ncontract GreenCollectible is ERC721Enumerable, Ownable {\r\n    using Counters for Counters.Counter;\r\n\r\n    // Counter for token ids\r\n    Counters.Counter private tokenIds;\r\n\r\n    // Top ten donation\r\n    struct TopTenDonation {\r\n        address donator;\r\n        uint256 totalDonationsByDonator;\r\n    }\r\n\r\n    // Array of structs of top ten donators and their donations\r\n    TopTenDonation[10] private topTenDonations;\r\n\r\n    // Mapping for the to set a tokenURI to a tokenId\r\n    mapping(uint256 => string) private _tokenURIs;\r\n\r\n    // Mapping to check if an address is an authorized non-profit organization\r\n    mapping(address => bool) public isAnEligibleNonProfitOrganization;\r\n\r\n    // Mapping to keep track of how much eth has been donated by a wallet address\r\n    mapping(address => uint256) public totalDonations;\r\n\r\n    // Mapping to check if the metadata has been minted\r\n    mapping(string => bool) public hasBeenMinted;\r\n\r\n    /**\r\n     * @dev Emitted when `from` creates a collectible and donates `to` the `amount`.\r\n     */\r\n    event Donated(address from, address to, uint256 amount);\r\n\r\n    /**\r\n     * @dev Emitted when `recipient` has been authorized to receive donations by the owner of this smart contract.\r\n     */\r\n    event Authorized(address recipient);\r\n\r\n    /**\r\n     * @dev Emitted when `recipient` has been unauthorized to receive donations by the owner of this smart contract.\r\n     */\r\n    event Unauthorized(address recipient);\r\n\r\n    /**\r\n     * @dev Initializes the contract by setting a `name` and a `symbol` to the token collection inheriting from the ERC721 smart contract.\r\n     */\r\n    constructor() ERC721(\"NFTreeCollectible\", \"NFTC\") {}\r\n\r\n    /**\r\n     * @dev create a collectible with a `metadata` for the msg.sender and transfer eth to an authorized `recipient`\r\n     *\r\n     * Requirements:\r\n     *\r\n     * - msg.value must be at least 0.001 eth.\r\n     * - `recipient` must be authorized by this contract's owner\r\n     * - `metadata` should be minted for the first time\r\n     *\r\n     * Emits a {Transfer} event - comes from the ERC-721 smart contract.\r\n     * Emits a {Donated} event.\r\n     */\r\n    function createCollectibleAndDonate(\r\n        string memory metadata,\r\n        address payable recipient\r\n    ) public payable returns (uint256) {\r\n        require(\r\n            msg.value >= 0.001 ether,\r\n            \"You have to donate at least 0.001 eth to the non-profit organization in order to create the NFT.\"\r\n        );\r\n        require(\r\n            isAnEligibleNonProfitOrganization[recipient],\r\n            \"You are sending eth to a recipient that is not part of the list of eligible recipients.\"\r\n        );\r\n        require(\r\n            !hasBeenMinted[metadata],\r\n            \"This IPFS hash has already been used to mint an NFT!\"\r\n        );\r\n\r\n        //send to non-profit organization\r\n        (bool sent, ) = recipient.call{value: msg.value}(\"\");\r\n        require(sent, \"Failed to send Ether\");\r\n        totalDonations[msg.sender] = totalDonations[msg.sender] + msg.value;\r\n\r\n        hasBeenMinted[metadata] = true;\r\n        tokenIds.increment();\r\n        uint256 newItemId = tokenIds.current();\r\n        _mint(msg.sender, newItemId);\r\n        _setTokenURI(newItemId, metadata);\r\n        checkDonatorForTopTen(msg.sender);\r\n\r\n        emit Donated(msg.sender, recipient, msg.value);\r\n\r\n        return newItemId;\r\n    }\r\n\r\n    /**\r\n     * @dev authorizes a recipient which in this case is to be a non-profit organization which plants trees around the world\r\n     *\r\n     * Requirements:\r\n     * - msg.sender has to be the owner of this smart contract\r\n     * - `recipient` must not have been authorized.\r\n     *\r\n     * Emits an {Authorized} event.\r\n     */\r\n    function authorizeRecipient(address recipient) external onlyOwner {\r\n        require(\r\n            !isAnEligibleNonProfitOrganization[recipient],\r\n            \"Recipient has already been authorized.\"\r\n        );\r\n        isAnEligibleNonProfitOrganization[recipient] = true;\r\n        emit Authorized(recipient);\r\n    }\r\n\r\n    /**\r\n     * @dev unauthorizes a recipient which in this case is to be a non-profit organization which plants trees around the world\r\n     *\r\n     * Requirements:\r\n     * - msg.sender has to be the owner of this smart contract\r\n     * - `recipient` must have been authorized.\r\n     *\r\n     * Emits an {Unauthorized} event.\r\n     */\r\n    function unauthorizeRecipient(address recipient) external onlyOwner {\r\n        require(\r\n            isAnEligibleNonProfitOrganization[recipient],\r\n            \"Recipient has to be authorized.\"\r\n        );\r\n        isAnEligibleNonProfitOrganization[recipient] = false;\r\n        emit Unauthorized(recipient);\r\n    }\r\n\r\n    /**\r\n     * @dev check if a certain `donator` is a top ten donator and if not, adds them to the array\r\n     *\r\n     */\r\n    function checkDonatorForTopTen(address donator) private {\r\n        //get index of the current max element\r\n        uint256 i = 0;\r\n        bool isToBeUpdated = false;\r\n        for (i; i < topTenDonations.length; i++) {\r\n            if (topTenDonations[i].totalDonationsByDonator < totalDonations[donator]) {\r\n                isToBeUpdated = true;\r\n                break;\r\n            }\r\n        }\r\n        if (isToBeUpdated) {\r\n            for (uint256 j = topTenDonations.length - 1; j > i; j--) {\r\n                topTenDonations[j].donator = topTenDonations[j - 1].donator;\r\n                topTenDonations[j].totalDonationsByDonator = topTenDonations[j - 1].totalDonationsByDonator;  \r\n            }\r\n            topTenDonations[i].donator = donator;\r\n            topTenDonations[i].totalDonationsByDonator = totalDonations[donator]; \r\n        }\r\n    }\r\n\r\n    /**\r\n     * @dev retrieves a top ten donation containing the `donator` and their `totalDonationsByDonator`\r\n     */\r\n    function getTopTenDonation(uint256 id)\r\n        public\r\n        view\r\n        returns (address donator, uint256 totalDonationsByDonator)\r\n    {\r\n        return (\r\n            topTenDonations[id].donator,\r\n            topTenDonations[id].totalDonationsByDonator\r\n        );\r\n    }\r\n\r\n    /**\r\n     * @dev sets a `tokenURI` for an existing `tokenId`\r\n     *\r\n     * Requirements:\r\n     * - `tokenId` must exist\r\n     */\r\n    function _setTokenURI(uint256 tokenId, string memory _tokenURI)\r\n        internal\r\n        virtual\r\n    {\r\n        require(\r\n            _exists(tokenId),\r\n            \"ERC721Metadata: URI set of nonexistent token\"\r\n        );\r\n        _tokenURIs[tokenId] = _tokenURI;\r\n    }\r\n\r\n    /**\r\n     * @dev See {IERC721Metadata-tokenURI}.\r\n     */\r\n    function tokenURI(uint256 tokenId) public view virtual override returns (string memory) {\r\n        require(_exists(tokenId), \"ERC721URIStorage: URI query for nonexistent token\");\r\n\r\n        string memory _tokenURI = _tokenURIs[tokenId];\r\n        string memory base = _baseURI();\r\n\r\n        // If there is no base URI, return the token URI.\r\n        if (bytes(base).length == 0) {\r\n            return _tokenURI;\r\n        }\r\n        // If both are set, concatenate the baseURI and tokenURI (via abi.encodePacked).\r\n        if (bytes(_tokenURI).length > 0) {\r\n            return string(abi.encodePacked(base, _tokenURI));\r\n        }\r\n\r\n        return super.tokenURI(tokenId);\r\n    }\r\n}\r\n",
  "sourcePath": "D:/Projects_gitcoin/nftrees/contracts/GreenCollectible.sol",
  "compiler": {
    "name": "solc",
    "version": "0.8.0+commit.c7dfd78e.Emscripten.clang"
  },
  "schemaVersion": "3.3.3",
  "updatedAt": "2021-04-28T16:01:02.013Z",
  "networkType": "ethereum",
  "devdoc": {
    "events": {
      "Authorized(address)": {
        "details": "Emitted when `recipient` has been authorized to receive donations by the owner of this smart contract."
      },
      "Donated(address,address,uint256)": {
        "details": "Emitted when `from` creates a collectible and donates `to` the `amount`."
      },
      "Unauthorized(address)": {
        "details": "Emitted when `recipient` has been unauthorized to receive donations by the owner of this smart contract."
      }
    },
    "kind": "dev",
    "methods": {
      "approve(address,uint256)": {
        "details": "See {IERC721-approve}."
      },
      "authorizeRecipient(address)": {
        "details": "authorizes a recipient which in this case is to be a non-profit organization which plants trees around the world Requirements: - msg.sender has to be the owner of this smart contract - `recipient` must not have been authorized. Emits an {Authorized} event."
      },
      "balanceOf(address)": {
        "details": "See {IERC721-balanceOf}."
      },
      "constructor": {
        "details": "Initializes the contract by setting a `name` and a `symbol` to the token collection inheriting from the ERC721 smart contract."
      },
      "createCollectibleAndDonate(string,address)": {
        "details": "create a collectible with a `metadata` for the msg.sender and transfer eth to an authorized `recipient` Requirements: - msg.value must be at least 0.001 eth. - `recipient` must be authorized by this contract's owner - `metadata` should be minted for the first time Emits a {Transfer} event - comes from the ERC-721 smart contract. Emits a {Donated} event."
      },
      "getApproved(uint256)": {
        "details": "See {IERC721-getApproved}."
      },
      "getTopTenDonation(uint256)": {
        "details": "retrieves a top ten donation containing the `donator` and their `totalDonationsByDonator`"
      },
      "isApprovedForAll(address,address)": {
        "details": "See {IERC721-isApprovedForAll}."
      },
      "name()": {
        "details": "See {IERC721Metadata-name}."
      },
      "owner()": {
        "details": "Returns the address of the current owner."
      },
      "ownerOf(uint256)": {
        "details": "See {IERC721-ownerOf}."
      },
      "renounceOwnership()": {
        "details": "Leaves the contract without owner. It will not be possible to call `onlyOwner` functions anymore. Can only be called by the current owner. NOTE: Renouncing ownership will leave the contract without an owner, thereby removing any functionality that is only available to the owner."
      },
      "safeTransferFrom(address,address,uint256)": {
        "details": "See {IERC721-safeTransferFrom}."
      },
      "safeTransferFrom(address,address,uint256,bytes)": {
        "details": "See {IERC721-safeTransferFrom}."
      },
      "setApprovalForAll(address,bool)": {
        "details": "See {IERC721-setApprovalForAll}."
      },
      "supportsInterface(bytes4)": {
        "details": "See {IERC165-supportsInterface}."
      },
      "symbol()": {
        "details": "See {IERC721Metadata-symbol}."
      },
      "tokenByIndex(uint256)": {
        "details": "See {IERC721Enumerable-tokenByIndex}."
      },
      "tokenOfOwnerByIndex(address,uint256)": {
        "details": "See {IERC721Enumerable-tokenOfOwnerByIndex}."
      },
      "tokenURI(uint256)": {
        "details": "See {IERC721Metadata-tokenURI}."
      },
      "totalSupply()": {
        "details": "See {IERC721Enumerable-totalSupply}."
      },
      "transferFrom(address,address,uint256)": {
        "details": "See {IERC721-transferFrom}."
      },
      "transferOwnership(address)": {
        "details": "Transfers ownership of the contract to a new account (`newOwner`). Can only be called by the current owner."
      },
      "unauthorizeRecipient(address)": {
        "details": "unauthorizes a recipient which in this case is to be a non-profit organization which plants trees around the world Requirements: - msg.sender has to be the owner of this smart contract - `recipient` must have been authorized. Emits an {Unauthorized} event."
      }
    },
    "version": 1
  },
  "userdoc": {
    "kind": "user",
    "methods": {},
    "version": 1
  }
}