{
  "contractName": "GreenCollectible",
  "abi": [
    {
      "inputs": [],
      "stateMutability": "nonpayable",
      "type": "constructor"
    },
    {
      "anonymous": false,
      "inputs": [
        {
          "indexed": true,
          "internalType": "address",
          "name": "owner",
          "type": "address"
        },
        {
          "indexed": true,
          "internalType": "address",
          "name": "approved",
          "type": "address"
        },
        {
          "indexed": true,
          "internalType": "uint256",
          "name": "tokenId",
          "type": "uint256"
        }
      ],
      "name": "Approval",
      "type": "event"
    },
    {
      "anonymous": false,
      "inputs": [
        {
          "indexed": true,
          "internalType": "address",
          "name": "owner",
          "type": "address"
        },
        {
          "indexed": true,
          "internalType": "address",
          "name": "operator",
          "type": "address"
        },
        {
          "indexed": false,
          "internalType": "bool",
          "name": "approved",
          "type": "bool"
        }
      ],
      "name": "ApprovalForAll",
      "type": "event"
    },
    {
      "anonymous": false,
      "inputs": [
        {
          "indexed": false,
          "internalType": "address",
          "name": "recipient",
          "type": "address"
        }
      ],
      "name": "Authorized",
      "type": "event"
    },
    {
      "anonymous": false,
      "inputs": [
        {
          "indexed": false,
          "internalType": "address",
          "name": "from",
          "type": "address"
        },
        {
          "indexed": false,
          "internalType": "address",
          "name": "to",
          "type": "address"
        },
        {
          "indexed": false,
          "internalType": "uint256",
          "name": "amount",
          "type": "uint256"
        }
      ],
      "name": "Donated",
      "type": "event"
    },
    {
      "anonymous": false,
      "inputs": [
        {
          "indexed": true,
          "internalType": "address",
          "name": "previousOwner",
          "type": "address"
        },
        {
          "indexed": true,
          "internalType": "address",
          "name": "newOwner",
          "type": "address"
        }
      ],
      "name": "OwnershipTransferred",
      "type": "event"
    },
    {
      "anonymous": false,
      "inputs": [
        {
          "indexed": true,
          "internalType": "address",
          "name": "from",
          "type": "address"
        },
        {
          "indexed": true,
          "internalType": "address",
          "name": "to",
          "type": "address"
        },
        {
          "indexed": true,
          "internalType": "uint256",
          "name": "tokenId",
          "type": "uint256"
        }
      ],
      "name": "Transfer",
      "type": "event"
    },
    {
      "anonymous": false,
      "inputs": [
        {
          "indexed": false,
          "internalType": "address",
          "name": "recipient",
          "type": "address"
        }
      ],
      "name": "Unauthorized",
      "type": "event"
    },
    {
      "inputs": [
        {
          "internalType": "address",
          "name": "to",
          "type": "address"
        },
        {
          "internalType": "uint256",
          "name": "tokenId",
          "type": "uint256"
        }
      ],
      "name": "approve",
      "outputs": [],
      "stateMutability": "nonpayable",
      "type": "function"
    },
    {
      "inputs": [
        {
          "internalType": "address",
          "name": "owner",
          "type": "address"
        }
      ],
      "name": "balanceOf",
      "outputs": [
        {
          "internalType": "uint256",
          "name": "",
          "type": "uint256"
        }
      ],
      "stateMutability": "view",
      "type": "function",
      "constant": true
    },
    {
      "inputs": [],
      "name": "donationAmount",
      "outputs": [
        {
          "internalType": "uint256",
          "name": "",
          "type": "uint256"
        }
      ],
      "stateMutability": "view",
      "type": "function",
      "constant": true
    },
    {
      "inputs": [
        {
          "internalType": "uint256",
          "name": "tokenId",
          "type": "uint256"
        }
      ],
      "name": "getApproved",
      "outputs": [
        {
          "internalType": "address",
          "name": "",
          "type": "address"
        }
      ],
      "stateMutability": "view",
      "type": "function",
      "constant": true
    },
    {
      "inputs": [
        {
          "internalType": "string",
          "name": "",
          "type": "string"
        }
      ],
      "name": "hasBeenMinted",
      "outputs": [
        {
          "internalType": "bool",
          "name": "",
          "type": "bool"
        }
      ],
      "stateMutability": "view",
      "type": "function",
      "constant": true
    },
    {
      "inputs": [
        {
          "internalType": "address",
          "name": "",
          "type": "address"
        }
      ],
      "name": "isAnEligibleNonProfitOrganization",
      "outputs": [
        {
          "internalType": "bool",
          "name": "",
          "type": "bool"
        }
      ],
      "stateMutability": "view",
      "type": "function",
      "constant": true
    },
    {
      "inputs": [
        {
          "internalType": "address",
          "name": "owner",
          "type": "address"
        },
        {
          "internalType": "address",
          "name": "operator",
          "type": "address"
        }
      ],
      "name": "isApprovedForAll",
      "outputs": [
        {
          "internalType": "bool",
          "name": "",
          "type": "bool"
        }
      ],
      "stateMutability": "view",
      "type": "function",
      "constant": true
    },
    {
      "inputs": [],
      "name": "name",
      "outputs": [
        {
          "internalType": "string",
          "name": "",
          "type": "string"
        }
      ],
      "stateMutability": "view",
      "type": "function",
      "constant": true
    },
    {
      "inputs": [],
      "name": "owner",
      "outputs": [
        {
          "internalType": "address",
          "name": "",
          "type": "address"
        }
      ],
      "stateMutability": "view",
      "type": "function",
      "constant": true
    },
    {
      "inputs": [
        {
          "internalType": "uint256",
          "name": "tokenId",
          "type": "uint256"
        }
      ],
      "name": "ownerOf",
      "outputs": [
        {
          "internalType": "address",
          "name": "",
          "type": "address"
        }
      ],
      "stateMutability": "view",
      "type": "function",
      "constant": true
    },
    {
      "inputs": [],
      "name": "renounceOwnership",
      "outputs": [],
      "stateMutability": "nonpayable",
      "type": "function"
    },
    {
      "inputs": [
        {
          "internalType": "address",
          "name": "from",
          "type": "address"
        },
        {
          "internalType": "address",
          "name": "to",
          "type": "address"
        },
        {
          "internalType": "uint256",
          "name": "tokenId",
          "type": "uint256"
        }
      ],
      "name": "safeTransferFrom",
      "outputs": [],
      "stateMutability": "nonpayable",
      "type": "function"
    },
    {
      "inputs": [
        {
          "internalType": "address",
          "name": "from",
          "type": "address"
        },
        {
          "internalType": "address",
          "name": "to",
          "type": "address"
        },
        {
          "internalType": "uint256",
          "name": "tokenId",
          "type": "uint256"
        },
        {
          "internalType": "bytes",
          "name": "_data",
          "type": "bytes"
        }
      ],
      "name": "safeTransferFrom",
      "outputs": [],
      "stateMutability": "nonpayable",
      "type": "function"
    },
    {
      "inputs": [
        {
          "internalType": "address",
          "name": "operator",
          "type": "address"
        },
        {
          "internalType": "bool",
          "name": "approved",
          "type": "bool"
        }
      ],
      "name": "setApprovalForAll",
      "outputs": [],
      "stateMutability": "nonpayable",
      "type": "function"
    },
    {
      "inputs": [
        {
          "internalType": "bytes4",
          "name": "interfaceId",
          "type": "bytes4"
        }
      ],
      "name": "supportsInterface",
      "outputs": [
        {
          "internalType": "bool",
          "name": "",
          "type": "bool"
        }
      ],
      "stateMutability": "view",
      "type": "function",
      "constant": true
    },
    {
      "inputs": [],
      "name": "symbol",
      "outputs": [
        {
          "internalType": "string",
          "name": "",
          "type": "string"
        }
      ],
      "stateMutability": "view",
      "type": "function",
      "constant": true
    },
    {
      "inputs": [
        {
          "internalType": "uint256",
          "name": "tokenId",
          "type": "uint256"
        }
      ],
      "name": "tokenURI",
      "outputs": [
        {
          "internalType": "string",
          "name": "",
          "type": "string"
        }
      ],
      "stateMutability": "view",
      "type": "function",
      "constant": true
    },
    {
      "inputs": [
        {
          "internalType": "address",
          "name": "",
          "type": "address"
        }
      ],
      "name": "totalDonations",
      "outputs": [
        {
          "internalType": "uint256",
          "name": "",
          "type": "uint256"
        }
      ],
      "stateMutability": "view",
      "type": "function",
      "constant": true
    },
    {
      "inputs": [
        {
          "internalType": "address",
          "name": "from",
          "type": "address"
        },
        {
          "internalType": "address",
          "name": "to",
          "type": "address"
        },
        {
          "internalType": "uint256",
          "name": "tokenId",
          "type": "uint256"
        }
      ],
      "name": "transferFrom",
      "outputs": [],
      "stateMutability": "nonpayable",
      "type": "function"
    },
    {
      "inputs": [
        {
          "internalType": "address",
          "name": "newOwner",
          "type": "address"
        }
      ],
      "name": "transferOwnership",
      "outputs": [],
      "stateMutability": "nonpayable",
      "type": "function"
    },
    {
      "inputs": [
        {
          "internalType": "string",
          "name": "metadata",
          "type": "string"
        },
        {
          "internalType": "address payable",
          "name": "recipient",
          "type": "address"
        }
      ],
      "name": "createCollectibleAndDonate",
      "outputs": [
        {
          "internalType": "uint256",
          "name": "",
          "type": "uint256"
        }
      ],
      "stateMutability": "payable",
      "type": "function",
      "payable": true
    },
    {
      "inputs": [
        {
          "internalType": "address",
          "name": "recipient",
          "type": "address"
        }
      ],
      "name": "authorizeRecipient",
      "outputs": [],
      "stateMutability": "nonpayable",
      "type": "function"
    },
    {
      "inputs": [
        {
          "internalType": "address",
          "name": "recipient",
          "type": "address"
        }
      ],
      "name": "unauthorizeRecipient",
      "outputs": [],
      "stateMutability": "nonpayable",
      "type": "function"
    },
    {
      "inputs": [
        {
          "internalType": "uint256",
          "name": "id",
          "type": "uint256"
        }
      ],
      "name": "getTopTenDonation",
      "outputs": [
        {
          "internalType": "address",
          "name": "donator",
          "type": "address"
        },
        {
          "internalType": "uint256",
          "name": "totalDonationsByDonator",
          "type": "uint256"
        }
      ],
      "stateMutability": "view",
      "type": "function",
      "constant": true
    }
  ],
  "bytecode": "0x60806040523480156200001157600080fd5b506040518060400160405280601181526020017f4e4654726565436f6c6c65637469626c650000000000000000000000000000008152506040518060400160405280600481526020017f4e4654430000000000000000000000000000000000000000000000000000000081525081600090805190602001906200009692919062000171565b508060019080519060200190620000af92919062000171565b5050506000620000c46200016960201b60201c565b905080600660006101000a81548173ffffffffffffffffffffffffffffffffffffffff021916908373ffffffffffffffffffffffffffffffffffffffff1602179055508073ffffffffffffffffffffffffffffffffffffffff16600073ffffffffffffffffffffffffffffffffffffffff167f8be0079c531659141344cd1fd0a4f28419497f9722a3daafe3b4186f6b6457e060405160405180910390a35062000286565b600033905090565b8280546200017f9062000221565b90600052602060002090601f016020900481019282620001a35760008555620001ef565b82601f10620001be57805160ff1916838001178555620001ef565b82800160010185558215620001ef579182015b82811115620001ee578251825591602001919060010190620001d1565b5b509050620001fe919062000202565b5090565b5b808211156200021d57600081600090555060010162000203565b5090565b600060028204905060018216806200023a57607f821691505b6020821081141562000251576200025062000257565b5b50919050565b7f4e487b7100000000000000000000000000000000000000000000000000000000600052602260045260246000fd5b613f1280620002966000396000f3fe60806040526004361061014b5760003560e01c80638da5cb5b116100b6578063b88d4fde1161006f578063b88d4fde146104c9578063c3503d88146104f2578063c87b56dd14610522578063cf8eca811461055f578063e985e9c514610588578063f2fde38b146105c55761014b565b80638da5cb5b146103a757806395d89b41146103d25780639f0c110b146103fd578063a22cb46514610426578063aeb4e9221461044f578063b10d78241461048c5761014b565b80634bed6c23116101085780634bed6c23146102705780635a4c38a71461029b5780636352211e146102d857806366c990cc1461031557806370a0823114610353578063715018a6146103905761014b565b806301ffc9a71461015057806306fdde031461018d578063081812fc146101b8578063095ea7b3146101f557806323b872dd1461021e57806342842e0e14610247575b600080fd5b34801561015c57600080fd5b5061017760048036038101906101729190612b44565b6105ee565b60405161018491906136f6565b60405180910390f35b34801561019957600080fd5b506101a26106d0565b6040516101af9190613711565b60405180910390f35b3480156101c457600080fd5b506101df60048036038101906101da9190612c2b565b610762565b6040516101ec919061362f565b60405180910390f35b34801561020157600080fd5b5061021c60048036038101906102179190612b08565b6107e7565b005b34801561022a57600080fd5b5061024560048036038101906102409190612a02565b6108ff565b005b34801561025357600080fd5b5061026e60048036038101906102699190612a02565b61095f565b005b34801561027c57600080fd5b5061028561097f565b6040516102929190613a13565b60405180910390f35b3480156102a757600080fd5b506102c260048036038101906102bd919061299d565b610985565b6040516102cf9190613a13565b60405180910390f35b3480156102e457600080fd5b506102ff60048036038101906102fa9190612c2b565b61099d565b60405161030c919061362f565b60405180910390f35b34801561032157600080fd5b5061033c60048036038101906103379190612c2b565b610a4f565b60405161034a9291906136cd565b60405180910390f35b34801561035f57600080fd5b5061037a6004803603810190610375919061299d565b610aff565b6040516103879190613a13565b60405180910390f35b34801561039c57600080fd5b506103a5610bb7565b005b3480156103b357600080fd5b506103bc610cf4565b6040516103c9919061362f565b60405180910390f35b3480156103de57600080fd5b506103e7610d1e565b6040516103f49190613711565b60405180910390f35b34801561040957600080fd5b50610424600480360381019061041f919061299d565b610db0565b005b34801561043257600080fd5b5061044d60048036038101906104489190612acc565b610f4b565b005b34801561045b57600080fd5b506104766004803603810190610471919061299d565b6110cc565b60405161048391906136f6565b60405180910390f35b34801561049857600080fd5b506104b360048036038101906104ae9190612b96565b6110ec565b6040516104c091906136f6565b60405180910390f35b3480156104d557600080fd5b506104f060048036038101906104eb9190612a51565b611122565b005b61050c60048036038101906105079190612bd7565b611184565b6040516105199190613a13565b60405180910390f35b34801561052e57600080fd5b5061054960048036038101906105449190612c2b565b6114b4565b6040516105569190613711565b60405180910390f35b34801561056b57600080fd5b506105866004803603810190610581919061299d565b61155b565b005b34801561059457600080fd5b506105af60048036038101906105aa91906129c6565b6116f5565b6040516105bc91906136f6565b60405180910390f35b3480156105d157600080fd5b506105ec60048036038101906105e7919061299d565b611789565b005b60007f80ac58cd000000000000000000000000000000000000000000000000000000007bffffffffffffffffffffffffffffffffffffffffffffffffffffffff1916827bffffffffffffffffffffffffffffffffffffffffffffffffffffffff191614806106b957507f5b5e139f000000000000000000000000000000000000000000000000000000007bffffffffffffffffffffffffffffffffffffffffffffffffffffffff1916827bffffffffffffffffffffffffffffffffffffffffffffffffffffffff1916145b806106c957506106c882611935565b5b9050919050565b6060600080546106df90613cf0565b80601f016020809104026020016040519081016040528092919081815260200182805461070b90613cf0565b80156107585780601f1061072d57610100808354040283529160200191610758565b820191906000526020600020905b81548152906001019060200180831161073b57829003601f168201915b5050505050905090565b600061076d8261199f565b6107ac576040517f08c379a00000000000000000000000000000000000000000000000000000000081526004016107a3906138d3565b60405180910390fd5b6004600083815260200190815260200160002060009054906101000a900473ffffffffffffffffffffffffffffffffffffffff169050919050565b60006107f28261099d565b90508073ffffffffffffffffffffffffffffffffffffffff168373ffffffffffffffffffffffffffffffffffffffff161415610863576040517f08c379a000000000000000000000000000000000000000000000000000000000815260040161085a906139b3565b60405180910390fd5b8073ffffffffffffffffffffffffffffffffffffffff16610882611a0b565b73ffffffffffffffffffffffffffffffffffffffff1614806108b157506108b0816108ab611a0b565b6116f5565b5b6108f0576040517f08c379a00000000000000000000000000000000000000000000000000000000081526004016108e790613813565b60405180910390fd5b6108fa8383611a13565b505050565b61091061090a611a0b565b82611acc565b61094f576040517f08c379a0000000000000000000000000000000000000000000000000000000008152600401610946906139f3565b60405180910390fd5b61095a838383611baa565b505050565b61097a83838360405180602001604052806000815250611122565b505050565b60075481565b601f6020528060005260406000206000915090505481565b6000806002600084815260200190815260200160002060009054906101000a900473ffffffffffffffffffffffffffffffffffffffff169050600073ffffffffffffffffffffffffffffffffffffffff168173ffffffffffffffffffffffffffffffffffffffff161415610a46576040517f08c379a0000000000000000000000000000000000000000000000000000000008152600401610a3d90613853565b60405180910390fd5b80915050919050565b600080600983600a8110610a8c577f4e487b7100000000000000000000000000000000000000000000000000000000600052603260045260246000fd5b6002020160000160009054906101000a900473ffffffffffffffffffffffffffffffffffffffff16600984600a8110610aee577f4e487b7100000000000000000000000000000000000000000000000000000000600052603260045260246000fd5b600202016001015491509150915091565b60008073ffffffffffffffffffffffffffffffffffffffff168273ffffffffffffffffffffffffffffffffffffffff161415610b70576040517f08c379a0000000000000000000000000000000000000000000000000000000008152600401610b6790613833565b60405180910390fd5b600360008373ffffffffffffffffffffffffffffffffffffffff1673ffffffffffffffffffffffffffffffffffffffff168152602001908152602001600020549050919050565b610bbf611a0b565b73ffffffffffffffffffffffffffffffffffffffff16610bdd610cf4565b73ffffffffffffffffffffffffffffffffffffffff1614610c33576040517f08c379a0000000000000000000000000000000000000000000000000000000008152600401610c2a90613913565b60405180910390fd5b600073ffffffffffffffffffffffffffffffffffffffff16600660009054906101000a900473ffffffffffffffffffffffffffffffffffffffff1673ffffffffffffffffffffffffffffffffffffffff167f8be0079c531659141344cd1fd0a4f28419497f9722a3daafe3b4186f6b6457e060405160405180910390a36000600660006101000a81548173ffffffffffffffffffffffffffffffffffffffff021916908373ffffffffffffffffffffffffffffffffffffffff160217905550565b6000600660009054906101000a900473ffffffffffffffffffffffffffffffffffffffff16905090565b606060018054610d2d90613cf0565b80601f0160208091040260200160405190810160405280929190818152602001828054610d5990613cf0565b8015610da65780601f10610d7b57610100808354040283529160200191610da6565b820191906000526020600020905b815481529060010190602001808311610d8957829003601f168201915b5050505050905090565b610db8611a0b565b73ffffffffffffffffffffffffffffffffffffffff16610dd6610cf4565b73ffffffffffffffffffffffffffffffffffffffff1614610e2c576040517f08c379a0000000000000000000000000000000000000000000000000000000008152600401610e2390613913565b60405180910390fd5b601e60008273ffffffffffffffffffffffffffffffffffffffff1673ffffffffffffffffffffffffffffffffffffffff16815260200190815260200160002060009054906101000a900460ff1615610eb9576040517f08c379a0000000000000000000000000000000000000000000000000000000008152600401610eb090613893565b60405180910390fd5b6001601e60008373ffffffffffffffffffffffffffffffffffffffff1673ffffffffffffffffffffffffffffffffffffffff16815260200190815260200160002060006101000a81548160ff0219169083151502179055507fdc84e3a4c83602050e3865df792a4e6800211a79ac60db94e703a820ce89292481604051610f40919061362f565b60405180910390a150565b610f53611a0b565b73ffffffffffffffffffffffffffffffffffffffff168273ffffffffffffffffffffffffffffffffffffffff161415610fc1576040517f08c379a0000000000000000000000000000000000000000000000000000000008152600401610fb8906137d3565b60405180910390fd5b8060056000610fce611a0b565b73ffffffffffffffffffffffffffffffffffffffff1673ffffffffffffffffffffffffffffffffffffffff16815260200190815260200160002060008473ffffffffffffffffffffffffffffffffffffffff1673ffffffffffffffffffffffffffffffffffffffff16815260200190815260200160002060006101000a81548160ff0219169083151502179055508173ffffffffffffffffffffffffffffffffffffffff1661107b611a0b565b73ffffffffffffffffffffffffffffffffffffffff167f17307eab39ab6107e8899845ad3d59bd9653f200f220920489ca2b5937696c31836040516110c091906136f6565b60405180910390a35050565b601e6020528060005260406000206000915054906101000a900460ff1681565b6020818051602081018201805184825260208301602085012081835280955050505050506000915054906101000a900460ff1681565b61113361112d611a0b565b83611acc565b611172576040517f08c379a0000000000000000000000000000000000000000000000000000000008152600401611169906139f3565b60405180910390fd5b61117e84848484611e06565b50505050565b600066038d7ea4c680003410156111d0576040517f08c379a00000000000000000000000000000000000000000000000000000000081526004016111c7906139d3565b60405180910390fd5b601e60008373ffffffffffffffffffffffffffffffffffffffff1673ffffffffffffffffffffffffffffffffffffffff16815260200190815260200160002060009054906101000a900460ff1661125c576040517f08c379a000000000000000000000000000000000000000000000000000000000815260040161125390613873565b60405180910390fd5b60208360405161126c91906135df565b908152602001604051809103902060009054906101000a900460ff16156112c8576040517f08c379a00000000000000000000000000000000000000000000000000000000081526004016112bf90613993565b60405180910390fd5b60008273ffffffffffffffffffffffffffffffffffffffff16346040516112ee9061361a565b60006040518083038185875af1925050503d806000811461132b576040519150601f19603f3d011682016040523d82523d6000602084013e611330565b606091505b5050905080611374576040517f08c379a000000000000000000000000000000000000000000000000000000000815260040161136b90613793565b60405180910390fd5b34601f60003373ffffffffffffffffffffffffffffffffffffffff1673ffffffffffffffffffffffffffffffffffffffff168152602001908152602001600020546113bf9190613b0d565b601f60003373ffffffffffffffffffffffffffffffffffffffff1673ffffffffffffffffffffffffffffffffffffffff16815260200190815260200160002081905550600160208560405161141491906135df565b908152602001604051809103902060006101000a81548160ff0219169083151502179055506114436008611e62565b600061144f6008611e78565b905061145b3382611e86565b6114658186612054565b61146e336120c8565b7f4dfff917e1fbb261a082e98cc7d43029621f6a6eb05ff3fef1510d5f1eb4857c3385346040516114a19392919061364a565b60405180910390a1809250505092915050565b60606114bf8261199f565b6114fe576040517f08c379a00000000000000000000000000000000000000000000000000000000081526004016114f590613973565b60405180910390fd5b6000611508612439565b905060008151116115285760405180602001604052806000815250611553565b8061153284612450565b6040516020016115439291906135f6565b6040516020818303038152906040525b915050919050565b611563611a0b565b73ffffffffffffffffffffffffffffffffffffffff16611581610cf4565b73ffffffffffffffffffffffffffffffffffffffff16146115d7576040517f08c379a00000000000000000000000000000000000000000000000000000000081526004016115ce90613913565b60405180910390fd5b601e60008273ffffffffffffffffffffffffffffffffffffffff1673ffffffffffffffffffffffffffffffffffffffff16815260200190815260200160002060009054906101000a900460ff16611663576040517f08c379a000000000000000000000000000000000000000000000000000000000815260040161165a90613933565b60405180910390fd5b6000601e60008373ffffffffffffffffffffffffffffffffffffffff1673ffffffffffffffffffffffffffffffffffffffff16815260200190815260200160002060006101000a81548160ff0219169083151502179055507f8e4a23d6a5d81f013eca4bc92aeb9214ccafcaebd1f097c350c922d6e19122d5816040516116ea919061362f565b60405180910390a150565b6000600560008473ffffffffffffffffffffffffffffffffffffffff1673ffffffffffffffffffffffffffffffffffffffff16815260200190815260200160002060008373ffffffffffffffffffffffffffffffffffffffff1673ffffffffffffffffffffffffffffffffffffffff16815260200190815260200160002060009054906101000a900460ff16905092915050565b611791611a0b565b73ffffffffffffffffffffffffffffffffffffffff166117af610cf4565b73ffffffffffffffffffffffffffffffffffffffff1614611805576040517f08c379a00000000000000000000000000000000000000000000000000000000081526004016117fc90613913565b60405180910390fd5b600073ffffffffffffffffffffffffffffffffffffffff168173ffffffffffffffffffffffffffffffffffffffff161415611875576040517f08c379a000000000000000000000000000000000000000000000000000000000815260040161186c90613753565b60405180910390fd5b8073ffffffffffffffffffffffffffffffffffffffff16600660009054906101000a900473ffffffffffffffffffffffffffffffffffffffff1673ffffffffffffffffffffffffffffffffffffffff167f8be0079c531659141344cd1fd0a4f28419497f9722a3daafe3b4186f6b6457e060405160405180910390a380600660006101000a81548173ffffffffffffffffffffffffffffffffffffffff021916908373ffffffffffffffffffffffffffffffffffffffff16021790555050565b60007f01ffc9a7000000000000000000000000000000000000000000000000000000007bffffffffffffffffffffffffffffffffffffffffffffffffffffffff1916827bffffffffffffffffffffffffffffffffffffffffffffffffffffffff1916149050919050565b60008073ffffffffffffffffffffffffffffffffffffffff166002600084815260200190815260200160002060009054906101000a900473ffffffffffffffffffffffffffffffffffffffff1673ffffffffffffffffffffffffffffffffffffffff1614159050919050565b600033905090565b816004600083815260200190815260200160002060006101000a81548173ffffffffffffffffffffffffffffffffffffffff021916908373ffffffffffffffffffffffffffffffffffffffff160217905550808273ffffffffffffffffffffffffffffffffffffffff16611a868361099d565b73ffffffffffffffffffffffffffffffffffffffff167f8c5be1e5ebec7d5bd14f71427d1e84f3dd0314c0f7b2291e5b200ac8c7c3b92560405160405180910390a45050565b6000611ad78261199f565b611b16576040517f08c379a0000000000000000000000000000000000000000000000000000000008152600401611b0d906137f3565b60405180910390fd5b6000611b218361099d565b90508073ffffffffffffffffffffffffffffffffffffffff168473ffffffffffffffffffffffffffffffffffffffff161480611b9057508373ffffffffffffffffffffffffffffffffffffffff16611b7884610762565b73ffffffffffffffffffffffffffffffffffffffff16145b80611ba15750611ba081856116f5565b5b91505092915050565b8273ffffffffffffffffffffffffffffffffffffffff16611bca8261099d565b73ffffffffffffffffffffffffffffffffffffffff1614611c20576040517f08c379a0000000000000000000000000000000000000000000000000000000008152600401611c1790613953565b60405180910390fd5b600073ffffffffffffffffffffffffffffffffffffffff168273ffffffffffffffffffffffffffffffffffffffff161415611c90576040517f08c379a0000000000000000000000000000000000000000000000000000000008152600401611c87906137b3565b60405180910390fd5b611c9b8383836125fd565b611ca6600082611a13565b6001600360008573ffffffffffffffffffffffffffffffffffffffff1673ffffffffffffffffffffffffffffffffffffffff1681526020019081526020016000206000828254611cf69190613b94565b925050819055506001600360008473ffffffffffffffffffffffffffffffffffffffff1673ffffffffffffffffffffffffffffffffffffffff1681526020019081526020016000206000828254611d4d9190613b0d565b92505081905550816002600083815260200190815260200160002060006101000a81548173ffffffffffffffffffffffffffffffffffffffff021916908373ffffffffffffffffffffffffffffffffffffffff160217905550808273ffffffffffffffffffffffffffffffffffffffff168473ffffffffffffffffffffffffffffffffffffffff167fddf252ad1be2c89b69c2b068fc378daa952ba7f163c4a11628f55a4df523b3ef60405160405180910390a4505050565b611e11848484611baa565b611e1d84848484612602565b611e5c576040517f08c379a0000000000000000000000000000000000000000000000000000000008152600401611e5390613733565b60405180910390fd5b50505050565b6001816000016000828254019250508190555050565b600081600001549050919050565b600073ffffffffffffffffffffffffffffffffffffffff168273ffffffffffffffffffffffffffffffffffffffff161415611ef6576040517f08c379a0000000000000000000000000000000000000000000000000000000008152600401611eed906138b3565b60405180910390fd5b611eff8161199f565b15611f3f576040517f08c379a0000000000000000000000000000000000000000000000000000000008152600401611f3690613773565b60405180910390fd5b611f4b600083836125fd565b6001600360008473ffffffffffffffffffffffffffffffffffffffff1673ffffffffffffffffffffffffffffffffffffffff1681526020019081526020016000206000828254611f9b9190613b0d565b92505081905550816002600083815260200190815260200160002060006101000a81548173ffffffffffffffffffffffffffffffffffffffff021916908373ffffffffffffffffffffffffffffffffffffffff160217905550808273ffffffffffffffffffffffffffffffffffffffff16600073ffffffffffffffffffffffffffffffffffffffff167fddf252ad1be2c89b69c2b068fc378daa952ba7f163c4a11628f55a4df523b3ef60405160405180910390a45050565b61205d8261199f565b61209c576040517f08c379a0000000000000000000000000000000000000000000000000000000008152600401612093906138f3565b60405180910390fd5b80601d600084815260200190815260200160002090805190602001906120c39291906127ac565b505050565b6000805b600a82101561217957601f60008473ffffffffffffffffffffffffffffffffffffffff1673ffffffffffffffffffffffffffffffffffffffff16815260200190815260200160002054600983600a811061214f577f4e487b7100000000000000000000000000000000000000000000000000000000600052603260045260246000fd5b600202016001015410156121665760019050612179565b818061217190613d22565b9250506120cc565b80156124345760006001600a61218f9190613b94565b90505b8281111561232d5760096001826121a99190613b94565b600a81106121e0577f4e487b7100000000000000000000000000000000000000000000000000000000600052603260045260246000fd5b6002020160000160009054906101000a900473ffffffffffffffffffffffffffffffffffffffff16600982600a8110612242577f4e487b7100000000000000000000000000000000000000000000000000000000600052603260045260246000fd5b6002020160000160006101000a81548173ffffffffffffffffffffffffffffffffffffffff021916908373ffffffffffffffffffffffffffffffffffffffff16021790555060096001826122969190613b94565b600a81106122cd577f4e487b7100000000000000000000000000000000000000000000000000000000600052603260045260246000fd5b6002020160010154600982600a811061230f577f4e487b7100000000000000000000000000000000000000000000000000000000600052603260045260246000fd5b6002020160010181905550808061232590613cc6565b915050612192565b5082600983600a8110612369577f4e487b7100000000000000000000000000000000000000000000000000000000600052603260045260246000fd5b6002020160000160006101000a81548173ffffffffffffffffffffffffffffffffffffffff021916908373ffffffffffffffffffffffffffffffffffffffff160217905550601f60008473ffffffffffffffffffffffffffffffffffffffff1673ffffffffffffffffffffffffffffffffffffffff16815260200190815260200160002054600983600a8110612428577f4e487b7100000000000000000000000000000000000000000000000000000000600052603260045260246000fd5b60020201600101819055505b505050565b606060405180602001604052806000815250905090565b60606000821415612498576040518060400160405280600181526020017f300000000000000000000000000000000000000000000000000000000000000081525090506125f8565b600082905060005b600082146124ca5780806124b390613d22565b915050600a826124c39190613b63565b91506124a0565b60008167ffffffffffffffff81111561250c577f4e487b7100000000000000000000000000000000000000000000000000000000600052604160045260246000fd5b6040519080825280601f01601f19166020018201604052801561253e5781602001600182028036833780820191505090505b5090505b600085146125f1576001826125579190613b94565b9150600a856125669190613d6b565b60306125729190613b0d565b60f81b8183815181106125ae577f4e487b7100000000000000000000000000000000000000000000000000000000600052603260045260246000fd5b60200101907effffffffffffffffffffffffffffffffffffffffffffffffffffffffffffff1916908160001a905350600a856125ea9190613b63565b9450612542565b8093505050505b919050565b505050565b60006126238473ffffffffffffffffffffffffffffffffffffffff16612799565b1561278c578373ffffffffffffffffffffffffffffffffffffffff1663150b7a0261264c611a0b565b8786866040518563ffffffff1660e01b815260040161266e9493929190613681565b602060405180830381600087803b15801561268857600080fd5b505af19250505080156126b957506040513d601f19601f820116820180604052508101906126b69190612b6d565b60015b61273c573d80600081146126e9576040519150601f19603f3d011682016040523d82523d6000602084013e6126ee565b606091505b50600081511415612734576040517f08c379a000000000000000000000000000000000000000000000000000000000815260040161272b90613733565b60405180910390fd5b805181602001fd5b63150b7a0260e01b7bffffffffffffffffffffffffffffffffffffffffffffffffffffffff1916817bffffffffffffffffffffffffffffffffffffffffffffffffffffffff191614915050612791565b600190505b949350505050565b600080823b905060008111915050919050565b8280546127b890613cf0565b90600052602060002090601f0160209004810192826127da5760008555612821565b82601f106127f357805160ff1916838001178555612821565b82800160010185558215612821579182015b82811115612820578251825591602001919060010190612805565b5b50905061282e9190612832565b5090565b5b8082111561284b576000816000905550600101612833565b5090565b600061286261285d84613a5f565b613a2e565b90508281526020810184848401111561287a57600080fd5b612885848285613c84565b509392505050565b60006128a061289b84613a8f565b613a2e565b9050828152602081018484840111156128b857600080fd5b6128c3848285613c84565b509392505050565b6000813590506128da81613e69565b92915050565b6000813590506128ef81613e80565b92915050565b60008135905061290481613e97565b92915050565b60008135905061291981613eae565b92915050565b60008151905061292e81613eae565b92915050565b600082601f83011261294557600080fd5b813561295584826020860161284f565b91505092915050565b600082601f83011261296f57600080fd5b813561297f84826020860161288d565b91505092915050565b60008135905061299781613ec5565b92915050565b6000602082840312156129af57600080fd5b60006129bd848285016128cb565b91505092915050565b600080604083850312156129d957600080fd5b60006129e7858286016128cb565b92505060206129f8858286016128cb565b9150509250929050565b600080600060608486031215612a1757600080fd5b6000612a25868287016128cb565b9350506020612a36868287016128cb565b9250506040612a4786828701612988565b9150509250925092565b60008060008060808587031215612a6757600080fd5b6000612a75878288016128cb565b9450506020612a86878288016128cb565b9350506040612a9787828801612988565b925050606085013567ffffffffffffffff811115612ab457600080fd5b612ac087828801612934565b91505092959194509250565b60008060408385031215612adf57600080fd5b6000612aed858286016128cb565b9250506020612afe858286016128f5565b9150509250929050565b60008060408385031215612b1b57600080fd5b6000612b29858286016128cb565b9250506020612b3a85828601612988565b9150509250929050565b600060208284031215612b5657600080fd5b6000612b648482850161290a565b91505092915050565b600060208284031215612b7f57600080fd5b6000612b8d8482850161291f565b91505092915050565b600060208284031215612ba857600080fd5b600082013567ffffffffffffffff811115612bc257600080fd5b612bce8482850161295e565b91505092915050565b60008060408385031215612bea57600080fd5b600083013567ffffffffffffffff811115612c0457600080fd5b612c108582860161295e565b9250506020612c21858286016128e0565b9150509250929050565b600060208284031215612c3d57600080fd5b6000612c4b84828501612988565b91505092915050565b612c5d81613c4e565b82525050565b612c6c81613bc8565b82525050565b612c7b81613bec565b82525050565b6000612c8c82613abf565b612c968185613ad5565b9350612ca6818560208601613c93565b612caf81613e58565b840191505092915050565b6000612cc582613aca565b612ccf8185613af1565b9350612cdf818560208601613c93565b612ce881613e58565b840191505092915050565b6000612cfe82613aca565b612d088185613b02565b9350612d18818560208601613c93565b80840191505092915050565b6000612d31603283613af1565b91507f4552433732313a207472616e7366657220746f206e6f6e20455243373231526560008301527f63656976657220696d706c656d656e74657200000000000000000000000000006020830152604082019050919050565b6000612d97602683613af1565b91507f4f776e61626c653a206e6577206f776e657220697320746865207a65726f206160008301527f64647265737300000000000000000000000000000000000000000000000000006020830152604082019050919050565b6000612dfd601c83613af1565b91507f4552433732313a20746f6b656e20616c7265616479206d696e746564000000006000830152602082019050919050565b6000612e3d601483613af1565b91507f4661696c656420746f2073656e642045746865720000000000000000000000006000830152602082019050919050565b6000612e7d602483613af1565b91507f4552433732313a207472616e7366657220746f20746865207a65726f2061646460008301527f72657373000000000000000000000000000000000000000000000000000000006020830152604082019050919050565b6000612ee3601983613af1565b91507f4552433732313a20617070726f766520746f2063616c6c6572000000000000006000830152602082019050919050565b6000612f23602c83613af1565b91507f4552433732313a206f70657261746f7220717565727920666f72206e6f6e657860008301527f697374656e7420746f6b656e00000000000000000000000000000000000000006020830152604082019050919050565b6000612f89603883613af1565b91507f4552433732313a20617070726f76652063616c6c6572206973206e6f74206f7760008301527f6e6572206e6f7220617070726f76656420666f7220616c6c00000000000000006020830152604082019050919050565b6000612fef602a83613af1565b91507f4552433732313a2062616c616e636520717565727920666f7220746865207a6560008301527f726f2061646472657373000000000000000000000000000000000000000000006020830152604082019050919050565b6000613055602983613af1565b91507f4552433732313a206f776e657220717565727920666f72206e6f6e657869737460008301527f656e7420746f6b656e00000000000000000000000000000000000000000000006020830152604082019050919050565b60006130bb605783613af1565b91507f596f75206172652073656e64696e672065746820746f2061207265636970696560008301527f6e742074686174206973206e6f742070617274206f6620746865206c6973742060208301527f6f6620656c696769626c6520726563697069656e74732e0000000000000000006040830152606082019050919050565b6000613147602683613af1565b91507f526563697069656e742068617320616c7265616479206265656e20617574686f60008301527f72697a65642e00000000000000000000000000000000000000000000000000006020830152604082019050919050565b60006131ad602083613af1565b91507f4552433732313a206d696e7420746f20746865207a65726f20616464726573736000830152602082019050919050565b60006131ed602c83613af1565b91507f4552433732313a20617070726f76656420717565727920666f72206e6f6e657860008301527f697374656e7420746f6b656e00000000000000000000000000000000000000006020830152604082019050919050565b6000613253602c83613af1565b91507f4552433732314d657461646174613a2055524920736574206f66206e6f6e657860008301527f697374656e7420746f6b656e00000000000000000000000000000000000000006020830152604082019050919050565b60006132b9602083613af1565b91507f4f776e61626c653a2063616c6c6572206973206e6f7420746865206f776e65726000830152602082019050919050565b60006132f9601f83613af1565b91507f526563697069656e742068617320746f20626520617574686f72697a65642e006000830152602082019050919050565b6000613339602983613af1565b91507f4552433732313a207472616e73666572206f6620746f6b656e2074686174206960008301527f73206e6f74206f776e00000000000000000000000000000000000000000000006020830152604082019050919050565b600061339f602f83613af1565b91507f4552433732314d657461646174613a2055524920717565727920666f72206e6f60008301527f6e6578697374656e7420746f6b656e00000000000000000000000000000000006020830152604082019050919050565b6000613405603483613af1565b91507f54686973204950465320686173682068617320616c7265616479206265656e2060008301527f7573656420746f206d696e7420616e204e4654210000000000000000000000006020830152604082019050919050565b600061346b602183613af1565b91507f4552433732313a20617070726f76616c20746f2063757272656e74206f776e6560008301527f72000000000000000000000000000000000000000000000000000000000000006020830152604082019050919050565b60006134d1605f83613af1565b91507f596f75206861766520746f20646f6e617465206174206c6561737420302e303160008301527f2065746820746f20746865206e6f6e2d70726f666974206f7267616e697a617460208301527f696f6e20696e206f7264657220746f2063726561746520746865204e46542e006040830152606082019050919050565b600061355d600083613ae6565b9150600082019050919050565b6000613577603183613af1565b91507f4552433732313a207472616e736665722063616c6c6572206973206e6f74206f60008301527f776e6572206e6f7220617070726f7665640000000000000000000000000000006020830152604082019050919050565b6135d981613c44565b82525050565b60006135eb8284612cf3565b915081905092915050565b60006136028285612cf3565b915061360e8284612cf3565b91508190509392505050565b600061362582613550565b9150819050919050565b60006020820190506136446000830184612c63565b92915050565b600060608201905061365f6000830186612c63565b61366c6020830185612c54565b61367960408301846135d0565b949350505050565b60006080820190506136966000830187612c63565b6136a36020830186612c63565b6136b060408301856135d0565b81810360608301526136c28184612c81565b905095945050505050565b60006040820190506136e26000830185612c63565b6136ef60208301846135d0565b9392505050565b600060208201905061370b6000830184612c72565b92915050565b6000602082019050818103600083015261372b8184612cba565b905092915050565b6000602082019050818103600083015261374c81612d24565b9050919050565b6000602082019050818103600083015261376c81612d8a565b9050919050565b6000602082019050818103600083015261378c81612df0565b9050919050565b600060208201905081810360008301526137ac81612e30565b9050919050565b600060208201905081810360008301526137cc81612e70565b9050919050565b600060208201905081810360008301526137ec81612ed6565b9050919050565b6000602082019050818103600083015261380c81612f16565b9050919050565b6000602082019050818103600083015261382c81612f7c565b9050919050565b6000602082019050818103600083015261384c81612fe2565b9050919050565b6000602082019050818103600083015261386c81613048565b9050919050565b6000602082019050818103600083015261388c816130ae565b9050919050565b600060208201905081810360008301526138ac8161313a565b9050919050565b600060208201905081810360008301526138cc816131a0565b9050919050565b600060208201905081810360008301526138ec816131e0565b9050919050565b6000602082019050818103600083015261390c81613246565b9050919050565b6000602082019050818103600083015261392c816132ac565b9050919050565b6000602082019050818103600083015261394c816132ec565b9050919050565b6000602082019050818103600083015261396c8161332c565b9050919050565b6000602082019050818103600083015261398c81613392565b9050919050565b600060208201905081810360008301526139ac816133f8565b9050919050565b600060208201905081810360008301526139cc8161345e565b9050919050565b600060208201905081810360008301526139ec816134c4565b9050919050565b60006020820190508181036000830152613a0c8161356a565b9050919050565b6000602082019050613a2860008301846135d0565b92915050565b6000604051905081810181811067ffffffffffffffff82111715613a5557613a54613e29565b5b8060405250919050565b600067ffffffffffffffff821115613a7a57613a79613e29565b5b601f19601f8301169050602081019050919050565b600067ffffffffffffffff821115613aaa57613aa9613e29565b5b601f19601f8301169050602081019050919050565b600081519050919050565b600081519050919050565b600082825260208201905092915050565b600081905092915050565b600082825260208201905092915050565b600081905092915050565b6000613b1882613c44565b9150613b2383613c44565b9250827fffffffffffffffffffffffffffffffffffffffffffffffffffffffffffffffff03821115613b5857613b57613d9c565b5b828201905092915050565b6000613b6e82613c44565b9150613b7983613c44565b925082613b8957613b88613dcb565b5b828204905092915050565b6000613b9f82613c44565b9150613baa83613c44565b925082821015613bbd57613bbc613d9c565b5b828203905092915050565b6000613bd382613c24565b9050919050565b6000613be582613c24565b9050919050565b60008115159050919050565b60007fffffffff0000000000000000000000000000000000000000000000000000000082169050919050565b600073ffffffffffffffffffffffffffffffffffffffff82169050919050565b6000819050919050565b6000613c5982613c60565b9050919050565b6000613c6b82613c72565b9050919050565b6000613c7d82613c24565b9050919050565b82818337600083830152505050565b60005b83811015613cb1578082015181840152602081019050613c96565b83811115613cc0576000848401525b50505050565b6000613cd182613c44565b91506000821415613ce557613ce4613d9c565b5b600182039050919050565b60006002820490506001821680613d0857607f821691505b60208210811415613d1c57613d1b613dfa565b5b50919050565b6000613d2d82613c44565b91507fffffffffffffffffffffffffffffffffffffffffffffffffffffffffffffffff821415613d6057613d5f613d9c565b5b600182019050919050565b6000613d7682613c44565b9150613d8183613c44565b925082613d9157613d90613dcb565b5b828206905092915050565b7f4e487b7100000000000000000000000000000000000000000000000000000000600052601160045260246000fd5b7f4e487b7100000000000000000000000000000000000000000000000000000000600052601260045260246000fd5b7f4e487b7100000000000000000000000000000000000000000000000000000000600052602260045260246000fd5b7f4e487b7100000000000000000000000000000000000000000000000000000000600052604160045260246000fd5b6000601f19601f8301169050919050565b613e7281613bc8565b8114613e7d57600080fd5b50565b613e8981613bda565b8114613e9457600080fd5b50565b613ea081613bec565b8114613eab57600080fd5b50565b613eb781613bf8565b8114613ec257600080fd5b50565b613ece81613c44565b8114613ed957600080fd5b5056fea2646970667358221220bff45d655ae038fc8e6cca470820fa11d2e0d5335cc7605f14cddd682fc2831864736f6c63430008000033",
  "immutableReferences": {},
  "source": "// SPDX-License-Identifier: MIT\r\npragma solidity ^0.8.0;\r\n\r\nimport \"@openzeppelin/contracts/token/ERC721/ERC721.sol\";\r\nimport \"@openzeppelin/contracts/utils/Counters.sol\";\r\nimport \"@openzeppelin/contracts/access/Ownable.sol\";\r\n\r\ncontract GreenCollectible is ERC721, Ownable {\r\n    using Counters for Counters.Counter;\r\n\r\n    uint256 public donationAmount;\r\n    Counters.Counter private tokenIds;\r\n\r\n    struct TopTenDonation {\r\n        address donator;\r\n        uint256 totalDonationsByDonator;\r\n    }\r\n    TopTenDonation[10] private topTenDonations;\r\n\r\n    mapping(uint256 => string) private _tokenURIs;\r\n    mapping(address => bool) public isAnEligibleNonProfitOrganization;\r\n    //used to keep track of how much eth has been donated by a wallet address\r\n    mapping(address => uint256) public totalDonations;\r\n    mapping(string => bool) public hasBeenMinted;\r\n\r\n    event Donated(address from, address to, uint256 amount);\r\n    event Authorized(address recipient);\r\n    event Unauthorized(address recipient);\r\n\r\n    constructor() ERC721(\"NFTreeCollectible\", \"NFTC\") {}\r\n\r\n    function createCollectibleAndDonate(\r\n        string memory metadata,\r\n        address payable recipient\r\n    ) public payable returns (uint256) {\r\n        require(\r\n            msg.value >= 0.001 ether,\r\n            \"You have to donate at least 0.01 eth to the non-profit organization in order to create the NFT.\"\r\n        );\r\n        require(\r\n            isAnEligibleNonProfitOrganization[recipient],\r\n            \"You are sending eth to a recipient that is not part of the list of eligible recipients.\"\r\n        );\r\n        require(\r\n            !hasBeenMinted[metadata],\r\n            \"This IPFS hash has already been used to mint an NFT!\"\r\n        );\r\n\r\n        //send to non-profit organization\r\n        (bool sent, ) = recipient.call{value: msg.value}(\"\");\r\n        require(sent, \"Failed to send Ether\");\r\n        totalDonations[msg.sender] = totalDonations[msg.sender] + msg.value;\r\n\r\n        hasBeenMinted[metadata] = true;\r\n        tokenIds.increment();\r\n        uint256 newItemId = tokenIds.current();\r\n        _mint(msg.sender, newItemId);\r\n        _setTokenURI(newItemId, metadata);\r\n        checkDonatorForTopTen(msg.sender);\r\n\r\n        emit Donated(msg.sender, recipient, msg.value);\r\n\r\n        return newItemId;\r\n    }\r\n\r\n    function authorizeRecipient(address recipient) external onlyOwner {\r\n        require(\r\n            !isAnEligibleNonProfitOrganization[recipient],\r\n            \"Recipient has already been authorized.\"\r\n        );\r\n        isAnEligibleNonProfitOrganization[recipient] = true;\r\n        emit Authorized(recipient);\r\n    }\r\n\r\n    function unauthorizeRecipient(address recipient) external onlyOwner {\r\n        require(\r\n            isAnEligibleNonProfitOrganization[recipient],\r\n            \"Recipient has to be authorized.\"\r\n        );\r\n        isAnEligibleNonProfitOrganization[recipient] = false;\r\n        emit Unauthorized(recipient);\r\n    }\r\n\r\n    function checkDonatorForTopTen(address donator) private {\r\n        //get index of the current max element\r\n        uint256 i = 0;\r\n        bool isToBeUpdated = false;\r\n        for (i; i < topTenDonations.length; i++) {\r\n            if (topTenDonations[i].totalDonationsByDonator < totalDonations[donator]) {\r\n                isToBeUpdated = true;\r\n                break;\r\n            }\r\n        }\r\n        if (isToBeUpdated) {\r\n            for (uint256 j = topTenDonations.length - 1; j > i; j--) {\r\n                topTenDonations[j].donator = topTenDonations[j - 1].donator;\r\n                topTenDonations[j].totalDonationsByDonator = topTenDonations[j - 1].totalDonationsByDonator;  \r\n            }\r\n            topTenDonations[i].donator = donator;\r\n            topTenDonations[i].totalDonationsByDonator = totalDonations[donator]; \r\n        }\r\n    }\r\n\r\n    function _setTokenURI(uint256 tokenId, string memory _tokenURI)\r\n        internal\r\n        virtual\r\n    {\r\n        require(\r\n            _exists(tokenId),\r\n            \"ERC721Metadata: URI set of nonexistent token\"\r\n        );\r\n        _tokenURIs[tokenId] = _tokenURI;\r\n    }\r\n\r\n    function getTopTenDonation(uint256 id)\r\n        public\r\n        view\r\n        returns (address donator, uint256 totalDonationsByDonator)\r\n    {\r\n        return (\r\n            topTenDonations[id].donator,\r\n            topTenDonations[id].totalDonationsByDonator\r\n        );\r\n    }\r\n}\r\n",
  "sourcePath": "D:/Projects_gitcoin/nftrees/contracts/GreenCollectible.sol",
  "compiler": {
    "name": "solc",
    "version": "0.8.0+commit.c7dfd78e.Emscripten.clang"
  },
  "schemaVersion": "3.3.3",
  "updatedAt": "2021-04-27T16:46:30.201Z",
  "networkType": "ethereum",
  "devdoc": {
    "kind": "dev",
    "methods": {
      "approve(address,uint256)": {
        "details": "See {IERC721-approve}."
      },
      "balanceOf(address)": {
        "details": "See {IERC721-balanceOf}."
      },
      "getApproved(uint256)": {
        "details": "See {IERC721-getApproved}."
      },
      "isApprovedForAll(address,address)": {
        "details": "See {IERC721-isApprovedForAll}."
      },
      "name()": {
        "details": "See {IERC721Metadata-name}."
      },
      "owner()": {
        "details": "Returns the address of the current owner."
      },
      "ownerOf(uint256)": {
        "details": "See {IERC721-ownerOf}."
      },
      "renounceOwnership()": {
        "details": "Leaves the contract without owner. It will not be possible to call `onlyOwner` functions anymore. Can only be called by the current owner. NOTE: Renouncing ownership will leave the contract without an owner, thereby removing any functionality that is only available to the owner."
      },
      "safeTransferFrom(address,address,uint256)": {
        "details": "See {IERC721-safeTransferFrom}."
      },
      "safeTransferFrom(address,address,uint256,bytes)": {
        "details": "See {IERC721-safeTransferFrom}."
      },
      "setApprovalForAll(address,bool)": {
        "details": "See {IERC721-setApprovalForAll}."
      },
      "supportsInterface(bytes4)": {
        "details": "See {IERC165-supportsInterface}."
      },
      "symbol()": {
        "details": "See {IERC721Metadata-symbol}."
      },
      "tokenURI(uint256)": {
        "details": "See {IERC721Metadata-tokenURI}."
      },
      "transferFrom(address,address,uint256)": {
        "details": "See {IERC721-transferFrom}."
      },
      "transferOwnership(address)": {
        "details": "Transfers ownership of the contract to a new account (`newOwner`). Can only be called by the current owner."
      }
    },
    "version": 1
  },
  "userdoc": {
    "kind": "user",
    "methods": {},
    "version": 1
  }
}