{
  "contractName": "GreenCollectible",
  "abi": [
    {
      "inputs": [],
      "stateMutability": "nonpayable",
      "type": "constructor"
    },
    {
      "anonymous": false,
      "inputs": [
        {
          "indexed": true,
          "internalType": "address",
          "name": "owner",
          "type": "address"
        },
        {
          "indexed": true,
          "internalType": "address",
          "name": "approved",
          "type": "address"
        },
        {
          "indexed": true,
          "internalType": "uint256",
          "name": "tokenId",
          "type": "uint256"
        }
      ],
      "name": "Approval",
      "type": "event"
    },
    {
      "anonymous": false,
      "inputs": [
        {
          "indexed": true,
          "internalType": "address",
          "name": "owner",
          "type": "address"
        },
        {
          "indexed": true,
          "internalType": "address",
          "name": "operator",
          "type": "address"
        },
        {
          "indexed": false,
          "internalType": "bool",
          "name": "approved",
          "type": "bool"
        }
      ],
      "name": "ApprovalForAll",
      "type": "event"
    },
    {
      "anonymous": false,
      "inputs": [
        {
          "indexed": false,
          "internalType": "address",
          "name": "recipient",
          "type": "address"
        }
      ],
      "name": "Authorized",
      "type": "event"
    },
    {
      "anonymous": false,
      "inputs": [
        {
          "indexed": false,
          "internalType": "address",
          "name": "from",
          "type": "address"
        },
        {
          "indexed": false,
          "internalType": "address",
          "name": "to",
          "type": "address"
        },
        {
          "indexed": false,
          "internalType": "uint256",
          "name": "amount",
          "type": "uint256"
        }
      ],
      "name": "Donated",
      "type": "event"
    },
    {
      "anonymous": false,
      "inputs": [
        {
          "indexed": true,
          "internalType": "address",
          "name": "previousOwner",
          "type": "address"
        },
        {
          "indexed": true,
          "internalType": "address",
          "name": "newOwner",
          "type": "address"
        }
      ],
      "name": "OwnershipTransferred",
      "type": "event"
    },
    {
      "anonymous": false,
      "inputs": [
        {
          "indexed": true,
          "internalType": "address",
          "name": "from",
          "type": "address"
        },
        {
          "indexed": true,
          "internalType": "address",
          "name": "to",
          "type": "address"
        },
        {
          "indexed": true,
          "internalType": "uint256",
          "name": "tokenId",
          "type": "uint256"
        }
      ],
      "name": "Transfer",
      "type": "event"
    },
    {
      "anonymous": false,
      "inputs": [
        {
          "indexed": false,
          "internalType": "address",
          "name": "recipient",
          "type": "address"
        }
      ],
      "name": "Unauthorized",
      "type": "event"
    },
    {
      "inputs": [
        {
          "internalType": "address",
          "name": "to",
          "type": "address"
        },
        {
          "internalType": "uint256",
          "name": "tokenId",
          "type": "uint256"
        }
      ],
      "name": "approve",
      "outputs": [],
      "stateMutability": "nonpayable",
      "type": "function"
    },
    {
      "inputs": [
        {
          "internalType": "address",
          "name": "owner",
          "type": "address"
        }
      ],
      "name": "balanceOf",
      "outputs": [
        {
          "internalType": "uint256",
          "name": "",
          "type": "uint256"
        }
      ],
      "stateMutability": "view",
      "type": "function",
      "constant": true
    },
    {
      "inputs": [],
      "name": "donationAmount",
      "outputs": [
        {
          "internalType": "uint256",
          "name": "",
          "type": "uint256"
        }
      ],
      "stateMutability": "view",
      "type": "function",
      "constant": true
    },
    {
      "inputs": [
        {
          "internalType": "uint256",
          "name": "tokenId",
          "type": "uint256"
        }
      ],
      "name": "getApproved",
      "outputs": [
        {
          "internalType": "address",
          "name": "",
          "type": "address"
        }
      ],
      "stateMutability": "view",
      "type": "function",
      "constant": true
    },
    {
      "inputs": [
        {
          "internalType": "string",
          "name": "",
          "type": "string"
        }
      ],
      "name": "hasBeenMinted",
      "outputs": [
        {
          "internalType": "bool",
          "name": "",
          "type": "bool"
        }
      ],
      "stateMutability": "view",
      "type": "function",
      "constant": true
    },
    {
      "inputs": [
        {
          "internalType": "address",
          "name": "",
          "type": "address"
        }
      ],
      "name": "isAnEligibleNonProfitOrganization",
      "outputs": [
        {
          "internalType": "bool",
          "name": "",
          "type": "bool"
        }
      ],
      "stateMutability": "view",
      "type": "function",
      "constant": true
    },
    {
      "inputs": [
        {
          "internalType": "address",
          "name": "owner",
          "type": "address"
        },
        {
          "internalType": "address",
          "name": "operator",
          "type": "address"
        }
      ],
      "name": "isApprovedForAll",
      "outputs": [
        {
          "internalType": "bool",
          "name": "",
          "type": "bool"
        }
      ],
      "stateMutability": "view",
      "type": "function",
      "constant": true
    },
    {
      "inputs": [],
      "name": "name",
      "outputs": [
        {
          "internalType": "string",
          "name": "",
          "type": "string"
        }
      ],
      "stateMutability": "view",
      "type": "function",
      "constant": true
    },
    {
      "inputs": [],
      "name": "owner",
      "outputs": [
        {
          "internalType": "address",
          "name": "",
          "type": "address"
        }
      ],
      "stateMutability": "view",
      "type": "function",
      "constant": true
    },
    {
      "inputs": [
        {
          "internalType": "uint256",
          "name": "tokenId",
          "type": "uint256"
        }
      ],
      "name": "ownerOf",
      "outputs": [
        {
          "internalType": "address",
          "name": "",
          "type": "address"
        }
      ],
      "stateMutability": "view",
      "type": "function",
      "constant": true
    },
    {
      "inputs": [],
      "name": "renounceOwnership",
      "outputs": [],
      "stateMutability": "nonpayable",
      "type": "function"
    },
    {
      "inputs": [
        {
          "internalType": "address",
          "name": "from",
          "type": "address"
        },
        {
          "internalType": "address",
          "name": "to",
          "type": "address"
        },
        {
          "internalType": "uint256",
          "name": "tokenId",
          "type": "uint256"
        }
      ],
      "name": "safeTransferFrom",
      "outputs": [],
      "stateMutability": "nonpayable",
      "type": "function"
    },
    {
      "inputs": [
        {
          "internalType": "address",
          "name": "from",
          "type": "address"
        },
        {
          "internalType": "address",
          "name": "to",
          "type": "address"
        },
        {
          "internalType": "uint256",
          "name": "tokenId",
          "type": "uint256"
        },
        {
          "internalType": "bytes",
          "name": "_data",
          "type": "bytes"
        }
      ],
      "name": "safeTransferFrom",
      "outputs": [],
      "stateMutability": "nonpayable",
      "type": "function"
    },
    {
      "inputs": [
        {
          "internalType": "address",
          "name": "operator",
          "type": "address"
        },
        {
          "internalType": "bool",
          "name": "approved",
          "type": "bool"
        }
      ],
      "name": "setApprovalForAll",
      "outputs": [],
      "stateMutability": "nonpayable",
      "type": "function"
    },
    {
      "inputs": [
        {
          "internalType": "bytes4",
          "name": "interfaceId",
          "type": "bytes4"
        }
      ],
      "name": "supportsInterface",
      "outputs": [
        {
          "internalType": "bool",
          "name": "",
          "type": "bool"
        }
      ],
      "stateMutability": "view",
      "type": "function",
      "constant": true
    },
    {
      "inputs": [],
      "name": "symbol",
      "outputs": [
        {
          "internalType": "string",
          "name": "",
          "type": "string"
        }
      ],
      "stateMutability": "view",
      "type": "function",
      "constant": true
    },
    {
      "inputs": [
        {
          "internalType": "uint256",
          "name": "tokenId",
          "type": "uint256"
        }
      ],
      "name": "tokenURI",
      "outputs": [
        {
          "internalType": "string",
          "name": "",
          "type": "string"
        }
      ],
      "stateMutability": "view",
      "type": "function",
      "constant": true
    },
    {
      "inputs": [
        {
          "internalType": "address",
          "name": "",
          "type": "address"
        }
      ],
      "name": "totalDonations",
      "outputs": [
        {
          "internalType": "uint256",
          "name": "",
          "type": "uint256"
        }
      ],
      "stateMutability": "view",
      "type": "function",
      "constant": true
    },
    {
      "inputs": [
        {
          "internalType": "address",
          "name": "from",
          "type": "address"
        },
        {
          "internalType": "address",
          "name": "to",
          "type": "address"
        },
        {
          "internalType": "uint256",
          "name": "tokenId",
          "type": "uint256"
        }
      ],
      "name": "transferFrom",
      "outputs": [],
      "stateMutability": "nonpayable",
      "type": "function"
    },
    {
      "inputs": [
        {
          "internalType": "address",
          "name": "newOwner",
          "type": "address"
        }
      ],
      "name": "transferOwnership",
      "outputs": [],
      "stateMutability": "nonpayable",
      "type": "function"
    },
    {
      "inputs": [
        {
          "internalType": "string",
          "name": "ipfsHash",
          "type": "string"
        },
        {
          "internalType": "string",
          "name": "metadata",
          "type": "string"
        },
        {
          "internalType": "address payable",
          "name": "recipient",
          "type": "address"
        }
      ],
      "name": "createCollectibleAndDonate",
      "outputs": [
        {
          "internalType": "uint256",
          "name": "",
          "type": "uint256"
        }
      ],
      "stateMutability": "payable",
      "type": "function",
      "payable": true
    },
    {
      "inputs": [
        {
          "internalType": "address",
          "name": "recipient",
          "type": "address"
        }
      ],
      "name": "authorizeRecipient",
      "outputs": [],
      "stateMutability": "nonpayable",
      "type": "function"
    },
    {
      "inputs": [
        {
          "internalType": "address",
          "name": "recipient",
          "type": "address"
        }
      ],
      "name": "unauthorizeRecipient",
      "outputs": [],
      "stateMutability": "nonpayable",
      "type": "function"
    },
    {
      "inputs": [
        {
          "internalType": "uint256",
          "name": "id",
          "type": "uint256"
        }
      ],
      "name": "getTopTenDonation",
      "outputs": [
        {
          "internalType": "address",
          "name": "donator",
          "type": "address"
        },
        {
          "internalType": "uint256",
          "name": "totalDonationsByDonator",
          "type": "uint256"
        }
      ],
      "stateMutability": "view",
      "type": "function",
      "constant": true
    }
  ],
  "bytecode": "0x60806040523480156200001157600080fd5b506040518060400160405280601181526020017f4e4654726565436f6c6c65637469626c650000000000000000000000000000008152506040518060400160405280600481526020017f4e4654430000000000000000000000000000000000000000000000000000000081525081600090805190602001906200009692919062000171565b508060019080519060200190620000af92919062000171565b5050506000620000c46200016960201b60201c565b905080600660006101000a81548173ffffffffffffffffffffffffffffffffffffffff021916908373ffffffffffffffffffffffffffffffffffffffff1602179055508073ffffffffffffffffffffffffffffffffffffffff16600073ffffffffffffffffffffffffffffffffffffffff167f8be0079c531659141344cd1fd0a4f28419497f9722a3daafe3b4186f6b6457e060405160405180910390a35062000286565b600033905090565b8280546200017f9062000221565b90600052602060002090601f016020900481019282620001a35760008555620001ef565b82601f10620001be57805160ff1916838001178555620001ef565b82800160010185558215620001ef579182015b82811115620001ee578251825591602001919060010190620001d1565b5b509050620001fe919062000202565b5090565b5b808211156200021d57600081600090555060010162000203565b5090565b600060028204905060018216806200023a57607f821691505b6020821081141562000251576200025062000257565b5b50919050565b7f4e487b7100000000000000000000000000000000000000000000000000000000600052602260045260246000fd5b613f3e80620002966000396000f3fe60806040526004361061014b5760003560e01c80638da5cb5b116100b6578063b88d4fde1161006f578063b88d4fde146104c9578063c87b56dd146104f2578063cf8eca811461052f578063e985e9c514610558578063f2fde38b14610595578063f3536090146105be5761014b565b80638da5cb5b146103a757806395d89b41146103d25780639f0c110b146103fd578063a22cb46514610426578063aeb4e9221461044f578063b10d78241461048c5761014b565b80634bed6c23116101085780634bed6c23146102705780635a4c38a71461029b5780636352211e146102d857806366c990cc1461031557806370a0823114610353578063715018a6146103905761014b565b806301ffc9a71461015057806306fdde031461018d578063081812fc146101b8578063095ea7b3146101f557806323b872dd1461021e57806342842e0e14610247575b600080fd5b34801561015c57600080fd5b5061017760048036038101906101729190612b45565b6105ee565b6040516101849190613722565b60405180910390f35b34801561019957600080fd5b506101a26106d0565b6040516101af919061373d565b60405180910390f35b3480156101c457600080fd5b506101df60048036038101906101da9190612c57565b610762565b6040516101ec919061365b565b60405180910390f35b34801561020157600080fd5b5061021c60048036038101906102179190612b09565b6107e7565b005b34801561022a57600080fd5b5061024560048036038101906102409190612a03565b6108ff565b005b34801561025357600080fd5b5061026e60048036038101906102699190612a03565b61095f565b005b34801561027c57600080fd5b5061028561097f565b6040516102929190613a3f565b60405180910390f35b3480156102a757600080fd5b506102c260048036038101906102bd919061299e565b610985565b6040516102cf9190613a3f565b60405180910390f35b3480156102e457600080fd5b506102ff60048036038101906102fa9190612c57565b61099d565b60405161030c919061365b565b60405180910390f35b34801561032157600080fd5b5061033c60048036038101906103379190612c57565b610a4f565b60405161034a9291906136f9565b60405180910390f35b34801561035f57600080fd5b5061037a6004803603810190610375919061299e565b610aff565b6040516103879190613a3f565b60405180910390f35b34801561039c57600080fd5b506103a5610bb7565b005b3480156103b357600080fd5b506103bc610cf4565b6040516103c9919061365b565b60405180910390f35b3480156103de57600080fd5b506103e7610d1e565b6040516103f4919061373d565b60405180910390f35b34801561040957600080fd5b50610424600480360381019061041f919061299e565b610db0565b005b34801561043257600080fd5b5061044d60048036038101906104489190612acd565b610f4b565b005b34801561045b57600080fd5b506104766004803603810190610471919061299e565b6110cc565b6040516104839190613722565b60405180910390f35b34801561049857600080fd5b506104b360048036038101906104ae9190612b97565b6110ec565b6040516104c09190613722565b60405180910390f35b3480156104d557600080fd5b506104f060048036038101906104eb9190612a52565b611122565b005b3480156104fe57600080fd5b5061051960048036038101906105149190612c57565b611184565b604051610526919061373d565b60405180910390f35b34801561053b57600080fd5b506105566004803603810190610551919061299e565b61122b565b005b34801561056457600080fd5b5061057f600480360381019061057a91906129c7565b6113c5565b60405161058c9190613722565b60405180910390f35b3480156105a157600080fd5b506105bc60048036038101906105b7919061299e565b611459565b005b6105d860048036038101906105d39190612bd8565b611605565b6040516105e59190613a3f565b60405180910390f35b60007f80ac58cd000000000000000000000000000000000000000000000000000000007bffffffffffffffffffffffffffffffffffffffffffffffffffffffff1916827bffffffffffffffffffffffffffffffffffffffffffffffffffffffff191614806106b957507f5b5e139f000000000000000000000000000000000000000000000000000000007bffffffffffffffffffffffffffffffffffffffffffffffffffffffff1916827bffffffffffffffffffffffffffffffffffffffffffffffffffffffff1916145b806106c957506106c882611936565b5b9050919050565b6060600080546106df90613d1c565b80601f016020809104026020016040519081016040528092919081815260200182805461070b90613d1c565b80156107585780601f1061072d57610100808354040283529160200191610758565b820191906000526020600020905b81548152906001019060200180831161073b57829003601f168201915b5050505050905090565b600061076d826119a0565b6107ac576040517f08c379a00000000000000000000000000000000000000000000000000000000081526004016107a3906138ff565b60405180910390fd5b6004600083815260200190815260200160002060009054906101000a900473ffffffffffffffffffffffffffffffffffffffff169050919050565b60006107f28261099d565b90508073ffffffffffffffffffffffffffffffffffffffff168373ffffffffffffffffffffffffffffffffffffffff161415610863576040517f08c379a000000000000000000000000000000000000000000000000000000000815260040161085a906139df565b60405180910390fd5b8073ffffffffffffffffffffffffffffffffffffffff16610882611a0c565b73ffffffffffffffffffffffffffffffffffffffff1614806108b157506108b0816108ab611a0c565b6113c5565b5b6108f0576040517f08c379a00000000000000000000000000000000000000000000000000000000081526004016108e79061383f565b60405180910390fd5b6108fa8383611a14565b505050565b61091061090a611a0c565b82611acd565b61094f576040517f08c379a000000000000000000000000000000000000000000000000000000000815260040161094690613a1f565b60405180910390fd5b61095a838383611bab565b505050565b61097a83838360405180602001604052806000815250611122565b505050565b60075481565b601f6020528060005260406000206000915090505481565b6000806002600084815260200190815260200160002060009054906101000a900473ffffffffffffffffffffffffffffffffffffffff169050600073ffffffffffffffffffffffffffffffffffffffff168173ffffffffffffffffffffffffffffffffffffffff161415610a46576040517f08c379a0000000000000000000000000000000000000000000000000000000008152600401610a3d9061387f565b60405180910390fd5b80915050919050565b600080600983600a8110610a8c577f4e487b7100000000000000000000000000000000000000000000000000000000600052603260045260246000fd5b6002020160000160009054906101000a900473ffffffffffffffffffffffffffffffffffffffff16600984600a8110610aee577f4e487b7100000000000000000000000000000000000000000000000000000000600052603260045260246000fd5b600202016001015491509150915091565b60008073ffffffffffffffffffffffffffffffffffffffff168273ffffffffffffffffffffffffffffffffffffffff161415610b70576040517f08c379a0000000000000000000000000000000000000000000000000000000008152600401610b679061385f565b60405180910390fd5b600360008373ffffffffffffffffffffffffffffffffffffffff1673ffffffffffffffffffffffffffffffffffffffff168152602001908152602001600020549050919050565b610bbf611a0c565b73ffffffffffffffffffffffffffffffffffffffff16610bdd610cf4565b73ffffffffffffffffffffffffffffffffffffffff1614610c33576040517f08c379a0000000000000000000000000000000000000000000000000000000008152600401610c2a9061393f565b60405180910390fd5b600073ffffffffffffffffffffffffffffffffffffffff16600660009054906101000a900473ffffffffffffffffffffffffffffffffffffffff1673ffffffffffffffffffffffffffffffffffffffff167f8be0079c531659141344cd1fd0a4f28419497f9722a3daafe3b4186f6b6457e060405160405180910390a36000600660006101000a81548173ffffffffffffffffffffffffffffffffffffffff021916908373ffffffffffffffffffffffffffffffffffffffff160217905550565b6000600660009054906101000a900473ffffffffffffffffffffffffffffffffffffffff16905090565b606060018054610d2d90613d1c565b80601f0160208091040260200160405190810160405280929190818152602001828054610d5990613d1c565b8015610da65780601f10610d7b57610100808354040283529160200191610da6565b820191906000526020600020905b815481529060010190602001808311610d8957829003601f168201915b5050505050905090565b610db8611a0c565b73ffffffffffffffffffffffffffffffffffffffff16610dd6610cf4565b73ffffffffffffffffffffffffffffffffffffffff1614610e2c576040517f08c379a0000000000000000000000000000000000000000000000000000000008152600401610e239061393f565b60405180910390fd5b601e60008273ffffffffffffffffffffffffffffffffffffffff1673ffffffffffffffffffffffffffffffffffffffff16815260200190815260200160002060009054906101000a900460ff1615610eb9576040517f08c379a0000000000000000000000000000000000000000000000000000000008152600401610eb0906138bf565b60405180910390fd5b6001601e60008373ffffffffffffffffffffffffffffffffffffffff1673ffffffffffffffffffffffffffffffffffffffff16815260200190815260200160002060006101000a81548160ff0219169083151502179055507fdc84e3a4c83602050e3865df792a4e6800211a79ac60db94e703a820ce89292481604051610f40919061365b565b60405180910390a150565b610f53611a0c565b73ffffffffffffffffffffffffffffffffffffffff168273ffffffffffffffffffffffffffffffffffffffff161415610fc1576040517f08c379a0000000000000000000000000000000000000000000000000000000008152600401610fb8906137ff565b60405180910390fd5b8060056000610fce611a0c565b73ffffffffffffffffffffffffffffffffffffffff1673ffffffffffffffffffffffffffffffffffffffff16815260200190815260200160002060008473ffffffffffffffffffffffffffffffffffffffff1673ffffffffffffffffffffffffffffffffffffffff16815260200190815260200160002060006101000a81548160ff0219169083151502179055508173ffffffffffffffffffffffffffffffffffffffff1661107b611a0c565b73ffffffffffffffffffffffffffffffffffffffff167f17307eab39ab6107e8899845ad3d59bd9653f200f220920489ca2b5937696c31836040516110c09190613722565b60405180910390a35050565b601e6020528060005260406000206000915054906101000a900460ff1681565b6020818051602081018201805184825260208301602085012081835280955050505050506000915054906101000a900460ff1681565b61113361112d611a0c565b83611acd565b611172576040517f08c379a000000000000000000000000000000000000000000000000000000000815260040161116990613a1f565b60405180910390fd5b61117e84848484611e07565b50505050565b606061118f826119a0565b6111ce576040517f08c379a00000000000000000000000000000000000000000000000000000000081526004016111c59061399f565b60405180910390fd5b60006111d8611e63565b905060008151116111f85760405180602001604052806000815250611223565b8061120284611e7a565b604051602001611213929190613622565b6040516020818303038152906040525b915050919050565b611233611a0c565b73ffffffffffffffffffffffffffffffffffffffff16611251610cf4565b73ffffffffffffffffffffffffffffffffffffffff16146112a7576040517f08c379a000000000000000000000000000000000000000000000000000000000815260040161129e9061393f565b60405180910390fd5b601e60008273ffffffffffffffffffffffffffffffffffffffff1673ffffffffffffffffffffffffffffffffffffffff16815260200190815260200160002060009054906101000a900460ff16611333576040517f08c379a000000000000000000000000000000000000000000000000000000000815260040161132a9061395f565b60405180910390fd5b6000601e60008373ffffffffffffffffffffffffffffffffffffffff1673ffffffffffffffffffffffffffffffffffffffff16815260200190815260200160002060006101000a81548160ff0219169083151502179055507f8e4a23d6a5d81f013eca4bc92aeb9214ccafcaebd1f097c350c922d6e19122d5816040516113ba919061365b565b60405180910390a150565b6000600560008473ffffffffffffffffffffffffffffffffffffffff1673ffffffffffffffffffffffffffffffffffffffff16815260200190815260200160002060008373ffffffffffffffffffffffffffffffffffffffff1673ffffffffffffffffffffffffffffffffffffffff16815260200190815260200160002060009054906101000a900460ff16905092915050565b611461611a0c565b73ffffffffffffffffffffffffffffffffffffffff1661147f610cf4565b73ffffffffffffffffffffffffffffffffffffffff16146114d5576040517f08c379a00000000000000000000000000000000000000000000000000000000081526004016114cc9061393f565b60405180910390fd5b600073ffffffffffffffffffffffffffffffffffffffff168173ffffffffffffffffffffffffffffffffffffffff161415611545576040517f08c379a000000000000000000000000000000000000000000000000000000000815260040161153c9061377f565b60405180910390fd5b8073ffffffffffffffffffffffffffffffffffffffff16600660009054906101000a900473ffffffffffffffffffffffffffffffffffffffff1673ffffffffffffffffffffffffffffffffffffffff167f8be0079c531659141344cd1fd0a4f28419497f9722a3daafe3b4186f6b6457e060405160405180910390a380600660006101000a81548173ffffffffffffffffffffffffffffffffffffffff021916908373ffffffffffffffffffffffffffffffffffffffff16021790555050565b600066038d7ea4c68000341015611651576040517f08c379a0000000000000000000000000000000000000000000000000000000008152600401611648906139ff565b60405180910390fd5b601e60008373ffffffffffffffffffffffffffffffffffffffff1673ffffffffffffffffffffffffffffffffffffffff16815260200190815260200160002060009054906101000a900460ff166116dd576040517f08c379a00000000000000000000000000000000000000000000000000000000081526004016116d49061389f565b60405180910390fd5b6020846040516116ed919061360b565b908152602001604051809103902060009054906101000a900460ff1615611749576040517f08c379a0000000000000000000000000000000000000000000000000000000008152600401611740906139bf565b60405180910390fd5b60008273ffffffffffffffffffffffffffffffffffffffff163460405161176f90613646565b60006040518083038185875af1925050503d80600081146117ac576040519150601f19603f3d011682016040523d82523d6000602084013e6117b1565b606091505b50509050806117f5576040517f08c379a00000000000000000000000000000000000000000000000000000000081526004016117ec906137bf565b60405180910390fd5b34601f60003373ffffffffffffffffffffffffffffffffffffffff1673ffffffffffffffffffffffffffffffffffffffff168152602001908152602001600020546118409190613b39565b601f60003373ffffffffffffffffffffffffffffffffffffffff1673ffffffffffffffffffffffffffffffffffffffff168152602001908152602001600020819055506001602086604051611895919061360b565b908152602001604051809103902060006101000a81548160ff0219169083151502179055506118c46008612027565b60006118d0600861203d565b90506118dc338261204b565b6118e68186612219565b6118ef3361228d565b7f4dfff917e1fbb261a082e98cc7d43029621f6a6eb05ff3fef1510d5f1eb4857c33853460405161192293929190613676565b60405180910390a180925050509392505050565b60007f01ffc9a7000000000000000000000000000000000000000000000000000000007bffffffffffffffffffffffffffffffffffffffffffffffffffffffff1916827bffffffffffffffffffffffffffffffffffffffffffffffffffffffff1916149050919050565b60008073ffffffffffffffffffffffffffffffffffffffff166002600084815260200190815260200160002060009054906101000a900473ffffffffffffffffffffffffffffffffffffffff1673ffffffffffffffffffffffffffffffffffffffff1614159050919050565b600033905090565b816004600083815260200190815260200160002060006101000a81548173ffffffffffffffffffffffffffffffffffffffff021916908373ffffffffffffffffffffffffffffffffffffffff160217905550808273ffffffffffffffffffffffffffffffffffffffff16611a878361099d565b73ffffffffffffffffffffffffffffffffffffffff167f8c5be1e5ebec7d5bd14f71427d1e84f3dd0314c0f7b2291e5b200ac8c7c3b92560405160405180910390a45050565b6000611ad8826119a0565b611b17576040517f08c379a0000000000000000000000000000000000000000000000000000000008152600401611b0e9061381f565b60405180910390fd5b6000611b228361099d565b90508073ffffffffffffffffffffffffffffffffffffffff168473ffffffffffffffffffffffffffffffffffffffff161480611b9157508373ffffffffffffffffffffffffffffffffffffffff16611b7984610762565b73ffffffffffffffffffffffffffffffffffffffff16145b80611ba25750611ba181856113c5565b5b91505092915050565b8273ffffffffffffffffffffffffffffffffffffffff16611bcb8261099d565b73ffffffffffffffffffffffffffffffffffffffff1614611c21576040517f08c379a0000000000000000000000000000000000000000000000000000000008152600401611c189061397f565b60405180910390fd5b600073ffffffffffffffffffffffffffffffffffffffff168273ffffffffffffffffffffffffffffffffffffffff161415611c91576040517f08c379a0000000000000000000000000000000000000000000000000000000008152600401611c88906137df565b60405180910390fd5b611c9c8383836125fe565b611ca7600082611a14565b6001600360008573ffffffffffffffffffffffffffffffffffffffff1673ffffffffffffffffffffffffffffffffffffffff1681526020019081526020016000206000828254611cf79190613bc0565b925050819055506001600360008473ffffffffffffffffffffffffffffffffffffffff1673ffffffffffffffffffffffffffffffffffffffff1681526020019081526020016000206000828254611d4e9190613b39565b92505081905550816002600083815260200190815260200160002060006101000a81548173ffffffffffffffffffffffffffffffffffffffff021916908373ffffffffffffffffffffffffffffffffffffffff160217905550808273ffffffffffffffffffffffffffffffffffffffff168473ffffffffffffffffffffffffffffffffffffffff167fddf252ad1be2c89b69c2b068fc378daa952ba7f163c4a11628f55a4df523b3ef60405160405180910390a4505050565b611e12848484611bab565b611e1e84848484612603565b611e5d576040517f08c379a0000000000000000000000000000000000000000000000000000000008152600401611e549061375f565b60405180910390fd5b50505050565b606060405180602001604052806000815250905090565b60606000821415611ec2576040518060400160405280600181526020017f30000000000000000000000000000000000000000000000000000000000000008152509050612022565b600082905060005b60008214611ef4578080611edd90613d4e565b915050600a82611eed9190613b8f565b9150611eca565b60008167ffffffffffffffff811115611f36577f4e487b7100000000000000000000000000000000000000000000000000000000600052604160045260246000fd5b6040519080825280601f01601f191660200182016040528015611f685781602001600182028036833780820191505090505b5090505b6000851461201b57600182611f819190613bc0565b9150600a85611f909190613d97565b6030611f9c9190613b39565b60f81b818381518110611fd8577f4e487b7100000000000000000000000000000000000000000000000000000000600052603260045260246000fd5b60200101907effffffffffffffffffffffffffffffffffffffffffffffffffffffffffffff1916908160001a905350600a856120149190613b8f565b9450611f6c565b8093505050505b919050565b6001816000016000828254019250508190555050565b600081600001549050919050565b600073ffffffffffffffffffffffffffffffffffffffff168273ffffffffffffffffffffffffffffffffffffffff1614156120bb576040517f08c379a00000000000000000000000000000000000000000000000000000000081526004016120b2906138df565b60405180910390fd5b6120c4816119a0565b15612104576040517f08c379a00000000000000000000000000000000000000000000000000000000081526004016120fb9061379f565b60405180910390fd5b612110600083836125fe565b6001600360008473ffffffffffffffffffffffffffffffffffffffff1673ffffffffffffffffffffffffffffffffffffffff16815260200190815260200160002060008282546121609190613b39565b92505081905550816002600083815260200190815260200160002060006101000a81548173ffffffffffffffffffffffffffffffffffffffff021916908373ffffffffffffffffffffffffffffffffffffffff160217905550808273ffffffffffffffffffffffffffffffffffffffff16600073ffffffffffffffffffffffffffffffffffffffff167fddf252ad1be2c89b69c2b068fc378daa952ba7f163c4a11628f55a4df523b3ef60405160405180910390a45050565b612222826119a0565b612261576040517f08c379a00000000000000000000000000000000000000000000000000000000081526004016122589061391f565b60405180910390fd5b80601d600084815260200190815260200160002090805190602001906122889291906127ad565b505050565b6000805b600a82101561233e57601f60008473ffffffffffffffffffffffffffffffffffffffff1673ffffffffffffffffffffffffffffffffffffffff16815260200190815260200160002054600983600a8110612314577f4e487b7100000000000000000000000000000000000000000000000000000000600052603260045260246000fd5b6002020160010154101561232b576001905061233e565b818061233690613d4e565b925050612291565b80156125f95760006001600a6123549190613bc0565b90505b828111156124f257600960018261236e9190613bc0565b600a81106123a5577f4e487b7100000000000000000000000000000000000000000000000000000000600052603260045260246000fd5b6002020160000160009054906101000a900473ffffffffffffffffffffffffffffffffffffffff16600982600a8110612407577f4e487b7100000000000000000000000000000000000000000000000000000000600052603260045260246000fd5b6002020160000160006101000a81548173ffffffffffffffffffffffffffffffffffffffff021916908373ffffffffffffffffffffffffffffffffffffffff160217905550600960018261245b9190613bc0565b600a8110612492577f4e487b7100000000000000000000000000000000000000000000000000000000600052603260045260246000fd5b6002020160010154600982600a81106124d4577f4e487b7100000000000000000000000000000000000000000000000000000000600052603260045260246000fd5b600202016001018190555080806124ea90613cf2565b915050612357565b5082600983600a811061252e577f4e487b7100000000000000000000000000000000000000000000000000000000600052603260045260246000fd5b6002020160000160006101000a81548173ffffffffffffffffffffffffffffffffffffffff021916908373ffffffffffffffffffffffffffffffffffffffff160217905550601f60008473ffffffffffffffffffffffffffffffffffffffff1673ffffffffffffffffffffffffffffffffffffffff16815260200190815260200160002054600983600a81106125ed577f4e487b7100000000000000000000000000000000000000000000000000000000600052603260045260246000fd5b60020201600101819055505b505050565b505050565b60006126248473ffffffffffffffffffffffffffffffffffffffff1661279a565b1561278d578373ffffffffffffffffffffffffffffffffffffffff1663150b7a0261264d611a0c565b8786866040518563ffffffff1660e01b815260040161266f94939291906136ad565b602060405180830381600087803b15801561268957600080fd5b505af19250505080156126ba57506040513d601f19601f820116820180604052508101906126b79190612b6e565b60015b61273d573d80600081146126ea576040519150601f19603f3d011682016040523d82523d6000602084013e6126ef565b606091505b50600081511415612735576040517f08c379a000000000000000000000000000000000000000000000000000000000815260040161272c9061375f565b60405180910390fd5b805181602001fd5b63150b7a0260e01b7bffffffffffffffffffffffffffffffffffffffffffffffffffffffff1916817bffffffffffffffffffffffffffffffffffffffffffffffffffffffff191614915050612792565b600190505b949350505050565b600080823b905060008111915050919050565b8280546127b990613d1c565b90600052602060002090601f0160209004810192826127db5760008555612822565b82601f106127f457805160ff1916838001178555612822565b82800160010185558215612822579182015b82811115612821578251825591602001919060010190612806565b5b50905061282f9190612833565b5090565b5b8082111561284c576000816000905550600101612834565b5090565b600061286361285e84613a8b565b613a5a565b90508281526020810184848401111561287b57600080fd5b612886848285613cb0565b509392505050565b60006128a161289c84613abb565b613a5a565b9050828152602081018484840111156128b957600080fd5b6128c4848285613cb0565b509392505050565b6000813590506128db81613e95565b92915050565b6000813590506128f081613eac565b92915050565b60008135905061290581613ec3565b92915050565b60008135905061291a81613eda565b92915050565b60008151905061292f81613eda565b92915050565b600082601f83011261294657600080fd5b8135612956848260208601612850565b91505092915050565b600082601f83011261297057600080fd5b813561298084826020860161288e565b91505092915050565b60008135905061299881613ef1565b92915050565b6000602082840312156129b057600080fd5b60006129be848285016128cc565b91505092915050565b600080604083850312156129da57600080fd5b60006129e8858286016128cc565b92505060206129f9858286016128cc565b9150509250929050565b600080600060608486031215612a1857600080fd5b6000612a26868287016128cc565b9350506020612a37868287016128cc565b9250506040612a4886828701612989565b9150509250925092565b60008060008060808587031215612a6857600080fd5b6000612a76878288016128cc565b9450506020612a87878288016128cc565b9350506040612a9887828801612989565b925050606085013567ffffffffffffffff811115612ab557600080fd5b612ac187828801612935565b91505092959194509250565b60008060408385031215612ae057600080fd5b6000612aee858286016128cc565b9250506020612aff858286016128f6565b9150509250929050565b60008060408385031215612b1c57600080fd5b6000612b2a858286016128cc565b9250506020612b3b85828601612989565b9150509250929050565b600060208284031215612b5757600080fd5b6000612b658482850161290b565b91505092915050565b600060208284031215612b8057600080fd5b6000612b8e84828501612920565b91505092915050565b600060208284031215612ba957600080fd5b600082013567ffffffffffffffff811115612bc357600080fd5b612bcf8482850161295f565b91505092915050565b600080600060608486031215612bed57600080fd5b600084013567ffffffffffffffff811115612c0757600080fd5b612c138682870161295f565b935050602084013567ffffffffffffffff811115612c3057600080fd5b612c3c8682870161295f565b9250506040612c4d868287016128e1565b9150509250925092565b600060208284031215612c6957600080fd5b6000612c7784828501612989565b91505092915050565b612c8981613c7a565b82525050565b612c9881613bf4565b82525050565b612ca781613c18565b82525050565b6000612cb882613aeb565b612cc28185613b01565b9350612cd2818560208601613cbf565b612cdb81613e84565b840191505092915050565b6000612cf182613af6565b612cfb8185613b1d565b9350612d0b818560208601613cbf565b612d1481613e84565b840191505092915050565b6000612d2a82613af6565b612d348185613b2e565b9350612d44818560208601613cbf565b80840191505092915050565b6000612d5d603283613b1d565b91507f4552433732313a207472616e7366657220746f206e6f6e20455243373231526560008301527f63656976657220696d706c656d656e74657200000000000000000000000000006020830152604082019050919050565b6000612dc3602683613b1d565b91507f4f776e61626c653a206e6577206f776e657220697320746865207a65726f206160008301527f64647265737300000000000000000000000000000000000000000000000000006020830152604082019050919050565b6000612e29601c83613b1d565b91507f4552433732313a20746f6b656e20616c7265616479206d696e746564000000006000830152602082019050919050565b6000612e69601483613b1d565b91507f4661696c656420746f2073656e642045746865720000000000000000000000006000830152602082019050919050565b6000612ea9602483613b1d565b91507f4552433732313a207472616e7366657220746f20746865207a65726f2061646460008301527f72657373000000000000000000000000000000000000000000000000000000006020830152604082019050919050565b6000612f0f601983613b1d565b91507f4552433732313a20617070726f766520746f2063616c6c6572000000000000006000830152602082019050919050565b6000612f4f602c83613b1d565b91507f4552433732313a206f70657261746f7220717565727920666f72206e6f6e657860008301527f697374656e7420746f6b656e00000000000000000000000000000000000000006020830152604082019050919050565b6000612fb5603883613b1d565b91507f4552433732313a20617070726f76652063616c6c6572206973206e6f74206f7760008301527f6e6572206e6f7220617070726f76656420666f7220616c6c00000000000000006020830152604082019050919050565b600061301b602a83613b1d565b91507f4552433732313a2062616c616e636520717565727920666f7220746865207a6560008301527f726f2061646472657373000000000000000000000000000000000000000000006020830152604082019050919050565b6000613081602983613b1d565b91507f4552433732313a206f776e657220717565727920666f72206e6f6e657869737460008301527f656e7420746f6b656e00000000000000000000000000000000000000000000006020830152604082019050919050565b60006130e7605783613b1d565b91507f596f75206172652073656e64696e672065746820746f2061207265636970696560008301527f6e742074686174206973206e6f742070617274206f6620746865206c6973742060208301527f6f6620656c696769626c6520726563697069656e74732e0000000000000000006040830152606082019050919050565b6000613173602683613b1d565b91507f526563697069656e742068617320616c7265616479206265656e20617574686f60008301527f72697a65642e00000000000000000000000000000000000000000000000000006020830152604082019050919050565b60006131d9602083613b1d565b91507f4552433732313a206d696e7420746f20746865207a65726f20616464726573736000830152602082019050919050565b6000613219602c83613b1d565b91507f4552433732313a20617070726f76656420717565727920666f72206e6f6e657860008301527f697374656e7420746f6b656e00000000000000000000000000000000000000006020830152604082019050919050565b600061327f602c83613b1d565b91507f4552433732314d657461646174613a2055524920736574206f66206e6f6e657860008301527f697374656e7420746f6b656e00000000000000000000000000000000000000006020830152604082019050919050565b60006132e5602083613b1d565b91507f4f776e61626c653a2063616c6c6572206973206e6f7420746865206f776e65726000830152602082019050919050565b6000613325601f83613b1d565b91507f526563697069656e742068617320746f20626520617574686f72697a65642e006000830152602082019050919050565b6000613365602983613b1d565b91507f4552433732313a207472616e73666572206f6620746f6b656e2074686174206960008301527f73206e6f74206f776e00000000000000000000000000000000000000000000006020830152604082019050919050565b60006133cb602f83613b1d565b91507f4552433732314d657461646174613a2055524920717565727920666f72206e6f60008301527f6e6578697374656e7420746f6b656e00000000000000000000000000000000006020830152604082019050919050565b6000613431603483613b1d565b91507f54686973204950465320686173682068617320616c7265616479206265656e2060008301527f7573656420746f206d696e7420616e204e4654210000000000000000000000006020830152604082019050919050565b6000613497602183613b1d565b91507f4552433732313a20617070726f76616c20746f2063757272656e74206f776e6560008301527f72000000000000000000000000000000000000000000000000000000000000006020830152604082019050919050565b60006134fd605f83613b1d565b91507f596f75206861766520746f20646f6e617465206174206c6561737420302e303160008301527f2065746820746f20746865206e6f6e2d70726f666974206f7267616e697a617460208301527f696f6e20696e206f7264657220746f2063726561746520746865204e46542e006040830152606082019050919050565b6000613589600083613b12565b9150600082019050919050565b60006135a3603183613b1d565b91507f4552433732313a207472616e736665722063616c6c6572206973206e6f74206f60008301527f776e6572206e6f7220617070726f7665640000000000000000000000000000006020830152604082019050919050565b61360581613c70565b82525050565b60006136178284612d1f565b915081905092915050565b600061362e8285612d1f565b915061363a8284612d1f565b91508190509392505050565b60006136518261357c565b9150819050919050565b60006020820190506136706000830184612c8f565b92915050565b600060608201905061368b6000830186612c8f565b6136986020830185612c80565b6136a560408301846135fc565b949350505050565b60006080820190506136c26000830187612c8f565b6136cf6020830186612c8f565b6136dc60408301856135fc565b81810360608301526136ee8184612cad565b905095945050505050565b600060408201905061370e6000830185612c8f565b61371b60208301846135fc565b9392505050565b60006020820190506137376000830184612c9e565b92915050565b600060208201905081810360008301526137578184612ce6565b905092915050565b6000602082019050818103600083015261377881612d50565b9050919050565b6000602082019050818103600083015261379881612db6565b9050919050565b600060208201905081810360008301526137b881612e1c565b9050919050565b600060208201905081810360008301526137d881612e5c565b9050919050565b600060208201905081810360008301526137f881612e9c565b9050919050565b6000602082019050818103600083015261381881612f02565b9050919050565b6000602082019050818103600083015261383881612f42565b9050919050565b6000602082019050818103600083015261385881612fa8565b9050919050565b600060208201905081810360008301526138788161300e565b9050919050565b6000602082019050818103600083015261389881613074565b9050919050565b600060208201905081810360008301526138b8816130da565b9050919050565b600060208201905081810360008301526138d881613166565b9050919050565b600060208201905081810360008301526138f8816131cc565b9050919050565b600060208201905081810360008301526139188161320c565b9050919050565b6000602082019050818103600083015261393881613272565b9050919050565b60006020820190508181036000830152613958816132d8565b9050919050565b6000602082019050818103600083015261397881613318565b9050919050565b6000602082019050818103600083015261399881613358565b9050919050565b600060208201905081810360008301526139b8816133be565b9050919050565b600060208201905081810360008301526139d881613424565b9050919050565b600060208201905081810360008301526139f88161348a565b9050919050565b60006020820190508181036000830152613a18816134f0565b9050919050565b60006020820190508181036000830152613a3881613596565b9050919050565b6000602082019050613a5460008301846135fc565b92915050565b6000604051905081810181811067ffffffffffffffff82111715613a8157613a80613e55565b5b8060405250919050565b600067ffffffffffffffff821115613aa657613aa5613e55565b5b601f19601f8301169050602081019050919050565b600067ffffffffffffffff821115613ad657613ad5613e55565b5b601f19601f8301169050602081019050919050565b600081519050919050565b600081519050919050565b600082825260208201905092915050565b600081905092915050565b600082825260208201905092915050565b600081905092915050565b6000613b4482613c70565b9150613b4f83613c70565b9250827fffffffffffffffffffffffffffffffffffffffffffffffffffffffffffffffff03821115613b8457613b83613dc8565b5b828201905092915050565b6000613b9a82613c70565b9150613ba583613c70565b925082613bb557613bb4613df7565b5b828204905092915050565b6000613bcb82613c70565b9150613bd683613c70565b925082821015613be957613be8613dc8565b5b828203905092915050565b6000613bff82613c50565b9050919050565b6000613c1182613c50565b9050919050565b60008115159050919050565b60007fffffffff0000000000000000000000000000000000000000000000000000000082169050919050565b600073ffffffffffffffffffffffffffffffffffffffff82169050919050565b6000819050919050565b6000613c8582613c8c565b9050919050565b6000613c9782613c9e565b9050919050565b6000613ca982613c50565b9050919050565b82818337600083830152505050565b60005b83811015613cdd578082015181840152602081019050613cc2565b83811115613cec576000848401525b50505050565b6000613cfd82613c70565b91506000821415613d1157613d10613dc8565b5b600182039050919050565b60006002820490506001821680613d3457607f821691505b60208210811415613d4857613d47613e26565b5b50919050565b6000613d5982613c70565b91507fffffffffffffffffffffffffffffffffffffffffffffffffffffffffffffffff821415613d8c57613d8b613dc8565b5b600182019050919050565b6000613da282613c70565b9150613dad83613c70565b925082613dbd57613dbc613df7565b5b828206905092915050565b7f4e487b7100000000000000000000000000000000000000000000000000000000600052601160045260246000fd5b7f4e487b7100000000000000000000000000000000000000000000000000000000600052601260045260246000fd5b7f4e487b7100000000000000000000000000000000000000000000000000000000600052602260045260246000fd5b7f4e487b7100000000000000000000000000000000000000000000000000000000600052604160045260246000fd5b6000601f19601f8301169050919050565b613e9e81613bf4565b8114613ea957600080fd5b50565b613eb581613c06565b8114613ec057600080fd5b50565b613ecc81613c18565b8114613ed757600080fd5b50565b613ee381613c24565b8114613eee57600080fd5b50565b613efa81613c70565b8114613f0557600080fd5b5056fea264697066735822122017dcb159e50edbebadb1ed1a8d35baa15382466eb6508b42e6c927daade6d69e64736f6c63430008000033",
  "immutableReferences": {},
  "source": "// SPDX-License-Identifier: MIT\r\npragma solidity ^0.8.0;\r\n\r\nimport \"@openzeppelin/contracts/token/ERC721/ERC721.sol\";\r\nimport \"@openzeppelin/contracts/utils/Counters.sol\";\r\nimport \"@openzeppelin/contracts/access/Ownable.sol\";\r\n\r\ncontract GreenCollectible is ERC721, Ownable {\r\n    using Counters for Counters.Counter;\r\n\r\n    uint256 public donationAmount;\r\n    Counters.Counter private tokenIds;\r\n\r\n    struct TopTenDonation {\r\n        address donator;\r\n        uint256 totalDonationsByDonator;\r\n    }\r\n    TopTenDonation[10] private topTenDonations;\r\n\r\n    mapping(uint256 => string) private _tokenURIs;\r\n    mapping(address => bool) public isAnEligibleNonProfitOrganization;\r\n    //used to keep track of how much eth has been donated by a wallet address\r\n    mapping(address => uint256) public totalDonations;\r\n    mapping(string => bool) public hasBeenMinted;\r\n\r\n    event Donated(address from, address to, uint256 amount);\r\n    event Authorized(address recipient);\r\n    event Unauthorized(address recipient);\r\n\r\n    constructor() ERC721(\"NFTreeCollectible\", \"NFTC\") {}\r\n\r\n    function createCollectibleAndDonate(\r\n        string memory ipfsHash,\r\n        string memory metadata,\r\n        address payable recipient\r\n    ) public payable returns (uint256) {\r\n        require(\r\n            msg.value >= 0.001 ether,\r\n            \"You have to donate at least 0.01 eth to the non-profit organization in order to create the NFT.\"\r\n        );\r\n        require(\r\n            isAnEligibleNonProfitOrganization[recipient],\r\n            \"You are sending eth to a recipient that is not part of the list of eligible recipients.\"\r\n        );\r\n        require(\r\n            !hasBeenMinted[ipfsHash],\r\n            \"This IPFS hash has already been used to mint an NFT!\"\r\n        );\r\n\r\n        //send to non-profit organization\r\n        (bool sent, ) = recipient.call{value: msg.value}(\"\");\r\n        require(sent, \"Failed to send Ether\");\r\n        totalDonations[msg.sender] = totalDonations[msg.sender] + msg.value;\r\n\r\n        hasBeenMinted[ipfsHash] = true;\r\n        tokenIds.increment();\r\n        uint256 newItemId = tokenIds.current();\r\n        _mint(msg.sender, newItemId);\r\n        _setTokenURI(newItemId, metadata);\r\n        checkDonatorForTopTen(msg.sender);\r\n\r\n        emit Donated(msg.sender, recipient, msg.value);\r\n\r\n        return newItemId;\r\n    }\r\n\r\n    function authorizeRecipient(address recipient) external onlyOwner {\r\n        require(\r\n            !isAnEligibleNonProfitOrganization[recipient],\r\n            \"Recipient has already been authorized.\"\r\n        );\r\n        isAnEligibleNonProfitOrganization[recipient] = true;\r\n        emit Authorized(recipient);\r\n    }\r\n\r\n    function unauthorizeRecipient(address recipient) external onlyOwner {\r\n        require(\r\n            isAnEligibleNonProfitOrganization[recipient],\r\n            \"Recipient has to be authorized.\"\r\n        );\r\n        isAnEligibleNonProfitOrganization[recipient] = false;\r\n        emit Unauthorized(recipient);\r\n    }\r\n\r\n    function checkDonatorForTopTen(address donator) private {\r\n        //get index of the current max element\r\n        uint256 i = 0;\r\n        bool isToBeUpdated = false;\r\n        for (i; i < topTenDonations.length; i++) {\r\n            if (topTenDonations[i].totalDonationsByDonator < totalDonations[donator]) {\r\n                isToBeUpdated = true;\r\n                break;\r\n            }\r\n        }\r\n        if (isToBeUpdated) {\r\n            for (uint256 j = topTenDonations.length - 1; j > i; j--) {\r\n                topTenDonations[j].donator = topTenDonations[j - 1].donator;\r\n                topTenDonations[j].totalDonationsByDonator = topTenDonations[j - 1].totalDonationsByDonator;  \r\n            }\r\n            topTenDonations[i].donator = donator;\r\n            topTenDonations[i].totalDonationsByDonator = totalDonations[donator]; \r\n        }\r\n    }\r\n\r\n    function _setTokenURI(uint256 tokenId, string memory _tokenURI)\r\n        internal\r\n        virtual\r\n    {\r\n        require(\r\n            _exists(tokenId),\r\n            \"ERC721Metadata: URI set of nonexistent token\"\r\n        );\r\n        _tokenURIs[tokenId] = _tokenURI;\r\n    }\r\n\r\n    function getTopTenDonation(uint256 id)\r\n        public\r\n        view\r\n        returns (address donator, uint256 totalDonationsByDonator)\r\n    {\r\n        return (\r\n            topTenDonations[id].donator,\r\n            topTenDonations[id].totalDonationsByDonator\r\n        );\r\n    }\r\n}\r\n",
  "sourcePath": "D:/Projects_gitcoin/nftrees/contracts/GreenCollectible.sol",
  "compiler": {
    "name": "solc",
    "version": "0.8.0+commit.c7dfd78e.Emscripten.clang"
  },
  "schemaVersion": "3.3.3",
  "updatedAt": "2021-04-25T10:06:46.105Z",
  "networkType": "ethereum",
  "devdoc": {
    "kind": "dev",
    "methods": {
      "approve(address,uint256)": {
        "details": "See {IERC721-approve}."
      },
      "balanceOf(address)": {
        "details": "See {IERC721-balanceOf}."
      },
      "getApproved(uint256)": {
        "details": "See {IERC721-getApproved}."
      },
      "isApprovedForAll(address,address)": {
        "details": "See {IERC721-isApprovedForAll}."
      },
      "name()": {
        "details": "See {IERC721Metadata-name}."
      },
      "owner()": {
        "details": "Returns the address of the current owner."
      },
      "ownerOf(uint256)": {
        "details": "See {IERC721-ownerOf}."
      },
      "renounceOwnership()": {
        "details": "Leaves the contract without owner. It will not be possible to call `onlyOwner` functions anymore. Can only be called by the current owner. NOTE: Renouncing ownership will leave the contract without an owner, thereby removing any functionality that is only available to the owner."
      },
      "safeTransferFrom(address,address,uint256)": {
        "details": "See {IERC721-safeTransferFrom}."
      },
      "safeTransferFrom(address,address,uint256,bytes)": {
        "details": "See {IERC721-safeTransferFrom}."
      },
      "setApprovalForAll(address,bool)": {
        "details": "See {IERC721-setApprovalForAll}."
      },
      "supportsInterface(bytes4)": {
        "details": "See {IERC165-supportsInterface}."
      },
      "symbol()": {
        "details": "See {IERC721Metadata-symbol}."
      },
      "tokenURI(uint256)": {
        "details": "See {IERC721Metadata-tokenURI}."
      },
      "transferFrom(address,address,uint256)": {
        "details": "See {IERC721-transferFrom}."
      },
      "transferOwnership(address)": {
        "details": "Transfers ownership of the contract to a new account (`newOwner`). Can only be called by the current owner."
      }
    },
    "version": 1
  },
  "userdoc": {
    "kind": "user",
    "methods": {},
    "version": 1
  }
}