{
  "contractName": "GreenCollectible",
  "abi": [
    {
      "inputs": [],
      "stateMutability": "nonpayable",
      "type": "constructor"
    },
    {
      "anonymous": false,
      "inputs": [
        {
          "indexed": true,
          "internalType": "address",
          "name": "owner",
          "type": "address"
        },
        {
          "indexed": true,
          "internalType": "address",
          "name": "approved",
          "type": "address"
        },
        {
          "indexed": true,
          "internalType": "uint256",
          "name": "tokenId",
          "type": "uint256"
        }
      ],
      "name": "Approval",
      "type": "event"
    },
    {
      "anonymous": false,
      "inputs": [
        {
          "indexed": true,
          "internalType": "address",
          "name": "owner",
          "type": "address"
        },
        {
          "indexed": true,
          "internalType": "address",
          "name": "operator",
          "type": "address"
        },
        {
          "indexed": false,
          "internalType": "bool",
          "name": "approved",
          "type": "bool"
        }
      ],
      "name": "ApprovalForAll",
      "type": "event"
    },
    {
      "anonymous": false,
      "inputs": [
        {
          "indexed": false,
          "internalType": "address",
          "name": "recipient",
          "type": "address"
        }
      ],
      "name": "Authorized",
      "type": "event"
    },
    {
      "anonymous": false,
      "inputs": [
        {
          "indexed": false,
          "internalType": "address",
          "name": "from",
          "type": "address"
        },
        {
          "indexed": false,
          "internalType": "address",
          "name": "to",
          "type": "address"
        },
        {
          "indexed": false,
          "internalType": "uint256",
          "name": "amount",
          "type": "uint256"
        }
      ],
      "name": "Donated",
      "type": "event"
    },
    {
      "anonymous": false,
      "inputs": [
        {
          "indexed": true,
          "internalType": "address",
          "name": "previousOwner",
          "type": "address"
        },
        {
          "indexed": true,
          "internalType": "address",
          "name": "newOwner",
          "type": "address"
        }
      ],
      "name": "OwnershipTransferred",
      "type": "event"
    },
    {
      "anonymous": false,
      "inputs": [
        {
          "indexed": true,
          "internalType": "address",
          "name": "from",
          "type": "address"
        },
        {
          "indexed": true,
          "internalType": "address",
          "name": "to",
          "type": "address"
        },
        {
          "indexed": true,
          "internalType": "uint256",
          "name": "tokenId",
          "type": "uint256"
        }
      ],
      "name": "Transfer",
      "type": "event"
    },
    {
      "anonymous": false,
      "inputs": [
        {
          "indexed": false,
          "internalType": "address",
          "name": "recipient",
          "type": "address"
        }
      ],
      "name": "Unauthorized",
      "type": "event"
    },
    {
      "inputs": [
        {
          "internalType": "address",
          "name": "to",
          "type": "address"
        },
        {
          "internalType": "uint256",
          "name": "tokenId",
          "type": "uint256"
        }
      ],
      "name": "approve",
      "outputs": [],
      "stateMutability": "nonpayable",
      "type": "function"
    },
    {
      "inputs": [
        {
          "internalType": "address",
          "name": "owner",
          "type": "address"
        }
      ],
      "name": "balanceOf",
      "outputs": [
        {
          "internalType": "uint256",
          "name": "",
          "type": "uint256"
        }
      ],
      "stateMutability": "view",
      "type": "function",
      "constant": true
    },
    {
      "inputs": [
        {
          "internalType": "uint256",
          "name": "tokenId",
          "type": "uint256"
        }
      ],
      "name": "getApproved",
      "outputs": [
        {
          "internalType": "address",
          "name": "",
          "type": "address"
        }
      ],
      "stateMutability": "view",
      "type": "function",
      "constant": true
    },
    {
      "inputs": [
        {
          "internalType": "string",
          "name": "",
          "type": "string"
        }
      ],
      "name": "hasBeenMinted",
      "outputs": [
        {
          "internalType": "bool",
          "name": "",
          "type": "bool"
        }
      ],
      "stateMutability": "view",
      "type": "function",
      "constant": true
    },
    {
      "inputs": [
        {
          "internalType": "address",
          "name": "",
          "type": "address"
        }
      ],
      "name": "isAnEligibleNonProfitOrganization",
      "outputs": [
        {
          "internalType": "bool",
          "name": "",
          "type": "bool"
        }
      ],
      "stateMutability": "view",
      "type": "function",
      "constant": true
    },
    {
      "inputs": [
        {
          "internalType": "address",
          "name": "owner",
          "type": "address"
        },
        {
          "internalType": "address",
          "name": "operator",
          "type": "address"
        }
      ],
      "name": "isApprovedForAll",
      "outputs": [
        {
          "internalType": "bool",
          "name": "",
          "type": "bool"
        }
      ],
      "stateMutability": "view",
      "type": "function",
      "constant": true
    },
    {
      "inputs": [],
      "name": "name",
      "outputs": [
        {
          "internalType": "string",
          "name": "",
          "type": "string"
        }
      ],
      "stateMutability": "view",
      "type": "function",
      "constant": true
    },
    {
      "inputs": [],
      "name": "owner",
      "outputs": [
        {
          "internalType": "address",
          "name": "",
          "type": "address"
        }
      ],
      "stateMutability": "view",
      "type": "function",
      "constant": true
    },
    {
      "inputs": [
        {
          "internalType": "uint256",
          "name": "tokenId",
          "type": "uint256"
        }
      ],
      "name": "ownerOf",
      "outputs": [
        {
          "internalType": "address",
          "name": "",
          "type": "address"
        }
      ],
      "stateMutability": "view",
      "type": "function",
      "constant": true
    },
    {
      "inputs": [],
      "name": "renounceOwnership",
      "outputs": [],
      "stateMutability": "nonpayable",
      "type": "function"
    },
    {
      "inputs": [
        {
          "internalType": "address",
          "name": "from",
          "type": "address"
        },
        {
          "internalType": "address",
          "name": "to",
          "type": "address"
        },
        {
          "internalType": "uint256",
          "name": "tokenId",
          "type": "uint256"
        }
      ],
      "name": "safeTransferFrom",
      "outputs": [],
      "stateMutability": "nonpayable",
      "type": "function"
    },
    {
      "inputs": [
        {
          "internalType": "address",
          "name": "from",
          "type": "address"
        },
        {
          "internalType": "address",
          "name": "to",
          "type": "address"
        },
        {
          "internalType": "uint256",
          "name": "tokenId",
          "type": "uint256"
        },
        {
          "internalType": "bytes",
          "name": "_data",
          "type": "bytes"
        }
      ],
      "name": "safeTransferFrom",
      "outputs": [],
      "stateMutability": "nonpayable",
      "type": "function"
    },
    {
      "inputs": [
        {
          "internalType": "address",
          "name": "operator",
          "type": "address"
        },
        {
          "internalType": "bool",
          "name": "approved",
          "type": "bool"
        }
      ],
      "name": "setApprovalForAll",
      "outputs": [],
      "stateMutability": "nonpayable",
      "type": "function"
    },
    {
      "inputs": [
        {
          "internalType": "bytes4",
          "name": "interfaceId",
          "type": "bytes4"
        }
      ],
      "name": "supportsInterface",
      "outputs": [
        {
          "internalType": "bool",
          "name": "",
          "type": "bool"
        }
      ],
      "stateMutability": "view",
      "type": "function",
      "constant": true
    },
    {
      "inputs": [],
      "name": "symbol",
      "outputs": [
        {
          "internalType": "string",
          "name": "",
          "type": "string"
        }
      ],
      "stateMutability": "view",
      "type": "function",
      "constant": true
    },
    {
      "inputs": [
        {
          "internalType": "uint256",
          "name": "index",
          "type": "uint256"
        }
      ],
      "name": "tokenByIndex",
      "outputs": [
        {
          "internalType": "uint256",
          "name": "",
          "type": "uint256"
        }
      ],
      "stateMutability": "view",
      "type": "function",
      "constant": true
    },
    {
      "inputs": [
        {
          "internalType": "address",
          "name": "owner",
          "type": "address"
        },
        {
          "internalType": "uint256",
          "name": "index",
          "type": "uint256"
        }
      ],
      "name": "tokenOfOwnerByIndex",
      "outputs": [
        {
          "internalType": "uint256",
          "name": "",
          "type": "uint256"
        }
      ],
      "stateMutability": "view",
      "type": "function",
      "constant": true
    },
    {
      "inputs": [
        {
          "internalType": "address",
          "name": "",
          "type": "address"
        }
      ],
      "name": "totalDonationsByAccount",
      "outputs": [
        {
          "internalType": "uint256",
          "name": "",
          "type": "uint256"
        }
      ],
      "stateMutability": "view",
      "type": "function",
      "constant": true
    },
    {
      "inputs": [
        {
          "internalType": "uint256",
          "name": "",
          "type": "uint256"
        }
      ],
      "name": "totalDonationsByNFT",
      "outputs": [
        {
          "internalType": "uint256",
          "name": "",
          "type": "uint256"
        }
      ],
      "stateMutability": "view",
      "type": "function",
      "constant": true
    },
    {
      "inputs": [],
      "name": "totalSupply",
      "outputs": [
        {
          "internalType": "uint256",
          "name": "",
          "type": "uint256"
        }
      ],
      "stateMutability": "view",
      "type": "function",
      "constant": true
    },
    {
      "inputs": [
        {
          "internalType": "address",
          "name": "from",
          "type": "address"
        },
        {
          "internalType": "address",
          "name": "to",
          "type": "address"
        },
        {
          "internalType": "uint256",
          "name": "tokenId",
          "type": "uint256"
        }
      ],
      "name": "transferFrom",
      "outputs": [],
      "stateMutability": "nonpayable",
      "type": "function"
    },
    {
      "inputs": [
        {
          "internalType": "address",
          "name": "newOwner",
          "type": "address"
        }
      ],
      "name": "transferOwnership",
      "outputs": [],
      "stateMutability": "nonpayable",
      "type": "function"
    },
    {
      "inputs": [
        {
          "internalType": "string",
          "name": "metadata",
          "type": "string"
        },
        {
          "internalType": "address payable",
          "name": "recipient",
          "type": "address"
        }
      ],
      "name": "createCollectibleAndDonate",
      "outputs": [
        {
          "internalType": "uint256",
          "name": "",
          "type": "uint256"
        }
      ],
      "stateMutability": "payable",
      "type": "function",
      "payable": true
    },
    {
      "inputs": [
        {
          "internalType": "address",
          "name": "recipient",
          "type": "address"
        }
      ],
      "name": "authorizeRecipient",
      "outputs": [],
      "stateMutability": "nonpayable",
      "type": "function"
    },
    {
      "inputs": [
        {
          "internalType": "address",
          "name": "recipient",
          "type": "address"
        }
      ],
      "name": "unauthorizeRecipient",
      "outputs": [],
      "stateMutability": "nonpayable",
      "type": "function"
    },
    {
      "inputs": [
        {
          "internalType": "uint256",
          "name": "tokenId",
          "type": "uint256"
        }
      ],
      "name": "tokenURI",
      "outputs": [
        {
          "internalType": "string",
          "name": "",
          "type": "string"
        }
      ],
      "stateMutability": "view",
      "type": "function",
      "constant": true
    }
  ],
  "bytecode": "0x60806040523480156200001157600080fd5b506040518060400160405280601181526020017f4e4654726565436f6c6c65637469626c650000000000000000000000000000008152506040518060400160405280600481526020017f4e4654430000000000000000000000000000000000000000000000000000000081525081600090805190602001906200009692919062000171565b508060019080519060200190620000af92919062000171565b5050506000620000c46200016960201b60201c565b905080600a60006101000a81548173ffffffffffffffffffffffffffffffffffffffff021916908373ffffffffffffffffffffffffffffffffffffffff1602179055508073ffffffffffffffffffffffffffffffffffffffff16600073ffffffffffffffffffffffffffffffffffffffff167f8be0079c531659141344cd1fd0a4f28419497f9722a3daafe3b4186f6b6457e060405160405180910390a35062000286565b600033905090565b8280546200017f9062000221565b90600052602060002090601f016020900481019282620001a35760008555620001ef565b82601f10620001be57805160ff1916838001178555620001ef565b82800160010185558215620001ef579182015b82811115620001ee578251825591602001919060010190620001d1565b5b509050620001fe919062000202565b5090565b5b808211156200021d57600081600090555060010162000203565b5090565b600060028204905060018216806200023a57607f821691505b6020821081141562000251576200025062000257565b5b50919050565b7f4e487b7100000000000000000000000000000000000000000000000000000000600052602260045260246000fd5b6144bf80620002966000396000f3fe6080604052600436106101815760003560e01c80638da5cb5b116100d1578063b88d4fde1161008a578063cf8eca8111610064578063cf8eca81146105d1578063d990e55d146105fa578063e985e9c514610637578063f2fde38b1461067457610181565b8063b88d4fde1461053b578063c3503d8814610564578063c87b56dd1461059457610181565b80638da5cb5b1461041957806395d89b41146104445780639f0c110b1461046f578063a22cb46514610498578063aeb4e922146104c1578063b10d7824146104fe57610181565b806323b872dd1161013e5780634f6ccce7116101185780634f6ccce71461034b5780636352211e1461038857806370a08231146103c5578063715018a61461040257610181565b806323b872dd146102bc5780632f745c59146102e557806342842e0e1461032257610181565b806301ffc9a714610186578063026d245d146101c357806306fdde0314610200578063081812fc1461022b578063095ea7b31461026857806318160ddd14610291575b600080fd5b34801561019257600080fd5b506101ad60048036038101906101a89190612fb2565b61069d565b6040516101ba9190613c6d565b60405180910390f35b3480156101cf57600080fd5b506101ea60048036038101906101e59190612e0b565b610717565b6040516101f79190613fea565b60405180910390f35b34801561020c57600080fd5b5061021561072f565b6040516102229190613c88565b60405180910390f35b34801561023757600080fd5b50610252600480360381019061024d9190613099565b6107c1565b60405161025f9190613bcf565b60405180910390f35b34801561027457600080fd5b5061028f600480360381019061028a9190612f76565b610846565b005b34801561029d57600080fd5b506102a661095e565b6040516102b39190613fea565b60405180910390f35b3480156102c857600080fd5b506102e360048036038101906102de9190612e70565b61096b565b005b3480156102f157600080fd5b5061030c60048036038101906103079190612f76565b6109cb565b6040516103199190613fea565b60405180910390f35b34801561032e57600080fd5b5061034960048036038101906103449190612e70565b610a70565b005b34801561035757600080fd5b50610372600480360381019061036d9190613099565b610a90565b60405161037f9190613fea565b60405180910390f35b34801561039457600080fd5b506103af60048036038101906103aa9190613099565b610b27565b6040516103bc9190613bcf565b60405180910390f35b3480156103d157600080fd5b506103ec60048036038101906103e79190612e0b565b610bd9565b6040516103f99190613fea565b60405180910390f35b34801561040e57600080fd5b50610417610c91565b005b34801561042557600080fd5b5061042e610dce565b60405161043b9190613bcf565b60405180910390f35b34801561045057600080fd5b50610459610df8565b6040516104669190613c88565b60405180910390f35b34801561047b57600080fd5b5061049660048036038101906104919190612e0b565b610e8a565b005b3480156104a457600080fd5b506104bf60048036038101906104ba9190612f3a565b611025565b005b3480156104cd57600080fd5b506104e860048036038101906104e39190612e0b565b6111a6565b6040516104f59190613c6d565b60405180910390f35b34801561050a57600080fd5b5061052560048036038101906105209190613004565b6111c6565b6040516105329190613c6d565b60405180910390f35b34801561054757600080fd5b50610562600480360381019061055d9190612ebf565b6111fc565b005b61057e60048036038101906105799190613045565b61125e565b60405161058b9190613fea565b60405180910390f35b3480156105a057600080fd5b506105bb60048036038101906105b69190613099565b6115bb565b6040516105c89190613c88565b60405180910390f35b3480156105dd57600080fd5b506105f860048036038101906105f39190612e0b565b61170d565b005b34801561060657600080fd5b50610621600480360381019061061c9190613099565b6118a7565b60405161062e9190613fea565b60405180910390f35b34801561064357600080fd5b5061065e60048036038101906106599190612e34565b6118bf565b60405161066b9190613c6d565b60405180910390f35b34801561068057600080fd5b5061069b60048036038101906106969190612e0b565b611953565b005b60007f780e9d63000000000000000000000000000000000000000000000000000000007bffffffffffffffffffffffffffffffffffffffffffffffffffffffff1916827bffffffffffffffffffffffffffffffffffffffffffffffffffffffff19161480610710575061070f82611aff565b5b9050919050565b600e6020528060005260406000206000915090505481565b60606000805461073e9061429d565b80601f016020809104026020016040519081016040528092919081815260200182805461076a9061429d565b80156107b75780601f1061078c576101008083540402835291602001916107b7565b820191906000526020600020905b81548152906001019060200180831161079a57829003601f168201915b5050505050905090565b60006107cc82611be1565b61080b576040517f08c379a000000000000000000000000000000000000000000000000000000000815260040161080290613eaa565b60405180910390fd5b6004600083815260200190815260200160002060009054906101000a900473ffffffffffffffffffffffffffffffffffffffff169050919050565b600061085182610b27565b90508073ffffffffffffffffffffffffffffffffffffffff168373ffffffffffffffffffffffffffffffffffffffff1614156108c2576040517f08c379a00000000000000000000000000000000000000000000000000000000081526004016108b990613f8a565b60405180910390fd5b8073ffffffffffffffffffffffffffffffffffffffff166108e1611c4d565b73ffffffffffffffffffffffffffffffffffffffff161480610910575061090f8161090a611c4d565b6118bf565b5b61094f576040517f08c379a000000000000000000000000000000000000000000000000000000000815260040161094690613dca565b60405180910390fd5b6109598383611c55565b505050565b6000600880549050905090565b61097c610976611c4d565b82611d0e565b6109bb576040517f08c379a00000000000000000000000000000000000000000000000000000000081526004016109b290613faa565b60405180910390fd5b6109c6838383611dec565b505050565b60006109d683610bd9565b8210610a17576040517f08c379a0000000000000000000000000000000000000000000000000000000008152600401610a0e90613cca565b60405180910390fd5b600660008473ffffffffffffffffffffffffffffffffffffffff1673ffffffffffffffffffffffffffffffffffffffff168152602001908152602001600020600083815260200190815260200160002054905092915050565b610a8b838383604051806020016040528060008152506111fc565b505050565b6000610a9a61095e565b8210610adb576040517f08c379a0000000000000000000000000000000000000000000000000000000008152600401610ad290613fca565b60405180910390fd5b60088281548110610b15577f4e487b7100000000000000000000000000000000000000000000000000000000600052603260045260246000fd5b90600052602060002001549050919050565b6000806002600084815260200190815260200160002060009054906101000a900473ffffffffffffffffffffffffffffffffffffffff169050600073ffffffffffffffffffffffffffffffffffffffff168173ffffffffffffffffffffffffffffffffffffffff161415610bd0576040517f08c379a0000000000000000000000000000000000000000000000000000000008152600401610bc790613e0a565b60405180910390fd5b80915050919050565b60008073ffffffffffffffffffffffffffffffffffffffff168273ffffffffffffffffffffffffffffffffffffffff161415610c4a576040517f08c379a0000000000000000000000000000000000000000000000000000000008152600401610c4190613dea565b60405180910390fd5b600360008373ffffffffffffffffffffffffffffffffffffffff1673ffffffffffffffffffffffffffffffffffffffff168152602001908152602001600020549050919050565b610c99611c4d565b73ffffffffffffffffffffffffffffffffffffffff16610cb7610dce565b73ffffffffffffffffffffffffffffffffffffffff1614610d0d576040517f08c379a0000000000000000000000000000000000000000000000000000000008152600401610d0490613eea565b60405180910390fd5b600073ffffffffffffffffffffffffffffffffffffffff16600a60009054906101000a900473ffffffffffffffffffffffffffffffffffffffff1673ffffffffffffffffffffffffffffffffffffffff167f8be0079c531659141344cd1fd0a4f28419497f9722a3daafe3b4186f6b6457e060405160405180910390a36000600a60006101000a81548173ffffffffffffffffffffffffffffffffffffffff021916908373ffffffffffffffffffffffffffffffffffffffff160217905550565b6000600a60009054906101000a900473ffffffffffffffffffffffffffffffffffffffff16905090565b606060018054610e079061429d565b80601f0160208091040260200160405190810160405280929190818152602001828054610e339061429d565b8015610e805780601f10610e5557610100808354040283529160200191610e80565b820191906000526020600020905b815481529060010190602001808311610e6357829003601f168201915b5050505050905090565b610e92611c4d565b73ffffffffffffffffffffffffffffffffffffffff16610eb0610dce565b73ffffffffffffffffffffffffffffffffffffffff1614610f06576040517f08c379a0000000000000000000000000000000000000000000000000000000008152600401610efd90613eea565b60405180910390fd5b600d60008273ffffffffffffffffffffffffffffffffffffffff1673ffffffffffffffffffffffffffffffffffffffff16815260200190815260200160002060009054906101000a900460ff1615610f93576040517f08c379a0000000000000000000000000000000000000000000000000000000008152600401610f8a90613e4a565b60405180910390fd5b6001600d60008373ffffffffffffffffffffffffffffffffffffffff1673ffffffffffffffffffffffffffffffffffffffff16815260200190815260200160002060006101000a81548160ff0219169083151502179055507fdc84e3a4c83602050e3865df792a4e6800211a79ac60db94e703a820ce8929248160405161101a9190613bcf565b60405180910390a150565b61102d611c4d565b73ffffffffffffffffffffffffffffffffffffffff168273ffffffffffffffffffffffffffffffffffffffff16141561109b576040517f08c379a000000000000000000000000000000000000000000000000000000000815260040161109290613d8a565b60405180910390fd5b80600560006110a8611c4d565b73ffffffffffffffffffffffffffffffffffffffff1673ffffffffffffffffffffffffffffffffffffffff16815260200190815260200160002060008473ffffffffffffffffffffffffffffffffffffffff1673ffffffffffffffffffffffffffffffffffffffff16815260200190815260200160002060006101000a81548160ff0219169083151502179055508173ffffffffffffffffffffffffffffffffffffffff16611155611c4d565b73ffffffffffffffffffffffffffffffffffffffff167f17307eab39ab6107e8899845ad3d59bd9653f200f220920489ca2b5937696c318360405161119a9190613c6d565b60405180910390a35050565b600d6020528060005260406000206000915054906101000a900460ff1681565b6010818051602081018201805184825260208301602085012081835280955050505050506000915054906101000a900460ff1681565b61120d611207611c4d565b83611d0e565b61124c576040517f08c379a000000000000000000000000000000000000000000000000000000000815260040161124390613faa565b60405180910390fd5b61125884848484612048565b50505050565b600066038d7ea4c680003410156112aa576040517f08c379a00000000000000000000000000000000000000000000000000000000081526004016112a190613caa565b60405180910390fd5b600d60008373ffffffffffffffffffffffffffffffffffffffff1673ffffffffffffffffffffffffffffffffffffffff16815260200190815260200160002060009054906101000a900460ff16611336576040517f08c379a000000000000000000000000000000000000000000000000000000000815260040161132d90613e2a565b60405180910390fd5b6010836040516113469190613b7f565b908152602001604051809103902060009054906101000a900460ff16156113a2576040517f08c379a000000000000000000000000000000000000000000000000000000000815260040161139990613f6a565b60405180910390fd5b60008273ffffffffffffffffffffffffffffffffffffffff16346040516113c890613bba565b60006040518083038185875af1925050503d8060008114611405576040519150601f19603f3d011682016040523d82523d6000602084013e61140a565b606091505b505090508061144e576040517f08c379a000000000000000000000000000000000000000000000000000000000815260040161144590613d4a565b60405180910390fd5b34600e60003373ffffffffffffffffffffffffffffffffffffffff1673ffffffffffffffffffffffffffffffffffffffff1681526020019081526020016000205461149991906140e4565b600e60003373ffffffffffffffffffffffffffffffffffffffff1673ffffffffffffffffffffffffffffffffffffffff1681526020019081526020016000208190555060016010856040516114ee9190613b7f565b908152602001604051809103902060006101000a81548160ff02191690831515021790555061151d600b6120a4565b6000611529600b6120ba565b905034600f60008381526020019081526020016000205461154a91906140e4565b600f60008381526020019081526020016000208190555061156b33826120c8565b6115758186612296565b7f4dfff917e1fbb261a082e98cc7d43029621f6a6eb05ff3fef1510d5f1eb4857c3385346040516115a893929190613bea565b60405180910390a1809250505092915050565b60606115c682611be1565b611605576040517f08c379a00000000000000000000000000000000000000000000000000000000081526004016115fc90613e8a565b60405180910390fd5b6000600c600084815260200190815260200160002080546116259061429d565b80601f01602080910402602001604051908101604052809291908181526020018280546116519061429d565b801561169e5780601f106116735761010080835404028352916020019161169e565b820191906000526020600020905b81548152906001019060200180831161168157829003601f168201915b5050505050905060006116af61230a565b90506000815114156116c5578192505050611708565b6000825111156116fa5780826040516020016116e2929190613b96565b60405160208183030381529060405292505050611708565b61170384612321565b925050505b919050565b611715611c4d565b73ffffffffffffffffffffffffffffffffffffffff16611733610dce565b73ffffffffffffffffffffffffffffffffffffffff1614611789576040517f08c379a000000000000000000000000000000000000000000000000000000000815260040161178090613eea565b60405180910390fd5b600d60008273ffffffffffffffffffffffffffffffffffffffff1673ffffffffffffffffffffffffffffffffffffffff16815260200190815260200160002060009054906101000a900460ff16611815576040517f08c379a000000000000000000000000000000000000000000000000000000000815260040161180c90613f0a565b60405180910390fd5b6000600d60008373ffffffffffffffffffffffffffffffffffffffff1673ffffffffffffffffffffffffffffffffffffffff16815260200190815260200160002060006101000a81548160ff0219169083151502179055507f8e4a23d6a5d81f013eca4bc92aeb9214ccafcaebd1f097c350c922d6e19122d58160405161189c9190613bcf565b60405180910390a150565b600f6020528060005260406000206000915090505481565b6000600560008473ffffffffffffffffffffffffffffffffffffffff1673ffffffffffffffffffffffffffffffffffffffff16815260200190815260200160002060008373ffffffffffffffffffffffffffffffffffffffff1673ffffffffffffffffffffffffffffffffffffffff16815260200190815260200160002060009054906101000a900460ff16905092915050565b61195b611c4d565b73ffffffffffffffffffffffffffffffffffffffff16611979610dce565b73ffffffffffffffffffffffffffffffffffffffff16146119cf576040517f08c379a00000000000000000000000000000000000000000000000000000000081526004016119c690613eea565b60405180910390fd5b600073ffffffffffffffffffffffffffffffffffffffff168173ffffffffffffffffffffffffffffffffffffffff161415611a3f576040517f08c379a0000000000000000000000000000000000000000000000000000000008152600401611a3690613d0a565b60405180910390fd5b8073ffffffffffffffffffffffffffffffffffffffff16600a60009054906101000a900473ffffffffffffffffffffffffffffffffffffffff1673ffffffffffffffffffffffffffffffffffffffff167f8be0079c531659141344cd1fd0a4f28419497f9722a3daafe3b4186f6b6457e060405160405180910390a380600a60006101000a81548173ffffffffffffffffffffffffffffffffffffffff021916908373ffffffffffffffffffffffffffffffffffffffff16021790555050565b60007f80ac58cd000000000000000000000000000000000000000000000000000000007bffffffffffffffffffffffffffffffffffffffffffffffffffffffff1916827bffffffffffffffffffffffffffffffffffffffffffffffffffffffff19161480611bca57507f5b5e139f000000000000000000000000000000000000000000000000000000007bffffffffffffffffffffffffffffffffffffffffffffffffffffffff1916827bffffffffffffffffffffffffffffffffffffffffffffffffffffffff1916145b80611bda5750611bd9826123c8565b5b9050919050565b60008073ffffffffffffffffffffffffffffffffffffffff166002600084815260200190815260200160002060009054906101000a900473ffffffffffffffffffffffffffffffffffffffff1673ffffffffffffffffffffffffffffffffffffffff1614159050919050565b600033905090565b816004600083815260200190815260200160002060006101000a81548173ffffffffffffffffffffffffffffffffffffffff021916908373ffffffffffffffffffffffffffffffffffffffff160217905550808273ffffffffffffffffffffffffffffffffffffffff16611cc883610b27565b73ffffffffffffffffffffffffffffffffffffffff167f8c5be1e5ebec7d5bd14f71427d1e84f3dd0314c0f7b2291e5b200ac8c7c3b92560405160405180910390a45050565b6000611d1982611be1565b611d58576040517f08c379a0000000000000000000000000000000000000000000000000000000008152600401611d4f90613daa565b60405180910390fd5b6000611d6383610b27565b90508073ffffffffffffffffffffffffffffffffffffffff168473ffffffffffffffffffffffffffffffffffffffff161480611dd257508373ffffffffffffffffffffffffffffffffffffffff16611dba846107c1565b73ffffffffffffffffffffffffffffffffffffffff16145b80611de35750611de281856118bf565b5b91505092915050565b8273ffffffffffffffffffffffffffffffffffffffff16611e0c82610b27565b73ffffffffffffffffffffffffffffffffffffffff1614611e62576040517f08c379a0000000000000000000000000000000000000000000000000000000008152600401611e5990613f2a565b60405180910390fd5b600073ffffffffffffffffffffffffffffffffffffffff168273ffffffffffffffffffffffffffffffffffffffff161415611ed2576040517f08c379a0000000000000000000000000000000000000000000000000000000008152600401611ec990613d6a565b60405180910390fd5b611edd838383612432565b611ee8600082611c55565b6001600360008573ffffffffffffffffffffffffffffffffffffffff1673ffffffffffffffffffffffffffffffffffffffff1681526020019081526020016000206000828254611f38919061416b565b925050819055506001600360008473ffffffffffffffffffffffffffffffffffffffff1673ffffffffffffffffffffffffffffffffffffffff1681526020019081526020016000206000828254611f8f91906140e4565b92505081905550816002600083815260200190815260200160002060006101000a81548173ffffffffffffffffffffffffffffffffffffffff021916908373ffffffffffffffffffffffffffffffffffffffff160217905550808273ffffffffffffffffffffffffffffffffffffffff168473ffffffffffffffffffffffffffffffffffffffff167fddf252ad1be2c89b69c2b068fc378daa952ba7f163c4a11628f55a4df523b3ef60405160405180910390a4505050565b612053848484611dec565b61205f84848484612546565b61209e576040517f08c379a000000000000000000000000000000000000000000000000000000000815260040161209590613cea565b60405180910390fd5b50505050565b6001816000016000828254019250508190555050565b600081600001549050919050565b600073ffffffffffffffffffffffffffffffffffffffff168273ffffffffffffffffffffffffffffffffffffffff161415612138576040517f08c379a000000000000000000000000000000000000000000000000000000000815260040161212f90613e6a565b60405180910390fd5b61214181611be1565b15612181576040517f08c379a000000000000000000000000000000000000000000000000000000000815260040161217890613d2a565b60405180910390fd5b61218d60008383612432565b6001600360008473ffffffffffffffffffffffffffffffffffffffff1673ffffffffffffffffffffffffffffffffffffffff16815260200190815260200160002060008282546121dd91906140e4565b92505081905550816002600083815260200190815260200160002060006101000a81548173ffffffffffffffffffffffffffffffffffffffff021916908373ffffffffffffffffffffffffffffffffffffffff160217905550808273ffffffffffffffffffffffffffffffffffffffff16600073ffffffffffffffffffffffffffffffffffffffff167fddf252ad1be2c89b69c2b068fc378daa952ba7f163c4a11628f55a4df523b3ef60405160405180910390a45050565b61229f82611be1565b6122de576040517f08c379a00000000000000000000000000000000000000000000000000000000081526004016122d590613eca565b60405180910390fd5b80600c60008481526020019081526020016000209080519060200190612305929190612c1a565b505050565b606060405180602001604052806000815250905090565b606061232c82611be1565b61236b576040517f08c379a000000000000000000000000000000000000000000000000000000000815260040161236290613f4a565b60405180910390fd5b600061237561230a565b9050600081511161239557604051806020016040528060008152506123c0565b8061239f846126dd565b6040516020016123b0929190613b96565b6040516020818303038152906040525b915050919050565b60007f01ffc9a7000000000000000000000000000000000000000000000000000000007bffffffffffffffffffffffffffffffffffffffffffffffffffffffff1916827bffffffffffffffffffffffffffffffffffffffffffffffffffffffff1916149050919050565b61243d83838361288a565b600073ffffffffffffffffffffffffffffffffffffffff168373ffffffffffffffffffffffffffffffffffffffff1614156124805761247b8161288f565b6124bf565b8173ffffffffffffffffffffffffffffffffffffffff168373ffffffffffffffffffffffffffffffffffffffff16146124be576124bd83826128d8565b5b5b600073ffffffffffffffffffffffffffffffffffffffff168273ffffffffffffffffffffffffffffffffffffffff161415612502576124fd81612a45565b612541565b8273ffffffffffffffffffffffffffffffffffffffff168273ffffffffffffffffffffffffffffffffffffffff16146125405761253f8282612b88565b5b5b505050565b60006125678473ffffffffffffffffffffffffffffffffffffffff16612c07565b156126d0578373ffffffffffffffffffffffffffffffffffffffff1663150b7a02612590611c4d565b8786866040518563ffffffff1660e01b81526004016125b29493929190613c21565b602060405180830381600087803b1580156125cc57600080fd5b505af19250505080156125fd57506040513d601f19601f820116820180604052508101906125fa9190612fdb565b60015b612680573d806000811461262d576040519150601f19603f3d011682016040523d82523d6000602084013e612632565b606091505b50600081511415612678576040517f08c379a000000000000000000000000000000000000000000000000000000000815260040161266f90613cea565b60405180910390fd5b805181602001fd5b63150b7a0260e01b7bffffffffffffffffffffffffffffffffffffffffffffffffffffffff1916817bffffffffffffffffffffffffffffffffffffffffffffffffffffffff1916149150506126d5565b600190505b949350505050565b60606000821415612725576040518060400160405280600181526020017f30000000000000000000000000000000000000000000000000000000000000008152509050612885565b600082905060005b60008214612757578080612740906142cf565b915050600a82612750919061413a565b915061272d565b60008167ffffffffffffffff811115612799577f4e487b7100000000000000000000000000000000000000000000000000000000600052604160045260246000fd5b6040519080825280601f01601f1916602001820160405280156127cb5781602001600182028036833780820191505090505b5090505b6000851461287e576001826127e4919061416b565b9150600a856127f39190614318565b60306127ff91906140e4565b60f81b81838151811061283b577f4e487b7100000000000000000000000000000000000000000000000000000000600052603260045260246000fd5b60200101907effffffffffffffffffffffffffffffffffffffffffffffffffffffffffffff1916908160001a905350600a85612877919061413a565b94506127cf565b8093505050505b919050565b505050565b6008805490506009600083815260200190815260200160002081905550600881908060018154018082558091505060019003906000526020600020016000909190919091505550565b600060016128e584610bd9565b6128ef919061416b565b90506000600760008481526020019081526020016000205490508181146129d4576000600660008673ffffffffffffffffffffffffffffffffffffffff1673ffffffffffffffffffffffffffffffffffffffff168152602001908152602001600020600084815260200190815260200160002054905080600660008773ffffffffffffffffffffffffffffffffffffffff1673ffffffffffffffffffffffffffffffffffffffff168152602001908152602001600020600084815260200190815260200160002081905550816007600083815260200190815260200160002081905550505b6007600084815260200190815260200160002060009055600660008573ffffffffffffffffffffffffffffffffffffffff1673ffffffffffffffffffffffffffffffffffffffff16815260200190815260200160002060008381526020019081526020016000206000905550505050565b60006001600880549050612a59919061416b565b9050600060096000848152602001908152602001600020549050600060088381548110612aaf577f4e487b7100000000000000000000000000000000000000000000000000000000600052603260045260246000fd5b906000526020600020015490508060088381548110612af7577f4e487b7100000000000000000000000000000000000000000000000000000000600052603260045260246000fd5b906000526020600020018190555081600960008381526020019081526020016000208190555060096000858152602001908152602001600020600090556008805480612b6c577f4e487b7100000000000000000000000000000000000000000000000000000000600052603160045260246000fd5b6001900381819060005260206000200160009055905550505050565b6000612b9383610bd9565b905081600660008573ffffffffffffffffffffffffffffffffffffffff1673ffffffffffffffffffffffffffffffffffffffff168152602001908152602001600020600083815260200190815260200160002081905550806007600084815260200190815260200160002081905550505050565b600080823b905060008111915050919050565b828054612c269061429d565b90600052602060002090601f016020900481019282612c485760008555612c8f565b82601f10612c6157805160ff1916838001178555612c8f565b82800160010185558215612c8f579182015b82811115612c8e578251825591602001919060010190612c73565b5b509050612c9c9190612ca0565b5090565b5b80821115612cb9576000816000905550600101612ca1565b5090565b6000612cd0612ccb84614036565b614005565b905082815260208101848484011115612ce857600080fd5b612cf384828561425b565b509392505050565b6000612d0e612d0984614066565b614005565b905082815260208101848484011115612d2657600080fd5b612d3184828561425b565b509392505050565b600081359050612d4881614416565b92915050565b600081359050612d5d8161442d565b92915050565b600081359050612d7281614444565b92915050565b600081359050612d878161445b565b92915050565b600081519050612d9c8161445b565b92915050565b600082601f830112612db357600080fd5b8135612dc3848260208601612cbd565b91505092915050565b600082601f830112612ddd57600080fd5b8135612ded848260208601612cfb565b91505092915050565b600081359050612e0581614472565b92915050565b600060208284031215612e1d57600080fd5b6000612e2b84828501612d39565b91505092915050565b60008060408385031215612e4757600080fd5b6000612e5585828601612d39565b9250506020612e6685828601612d39565b9150509250929050565b600080600060608486031215612e8557600080fd5b6000612e9386828701612d39565b9350506020612ea486828701612d39565b9250506040612eb586828701612df6565b9150509250925092565b60008060008060808587031215612ed557600080fd5b6000612ee387828801612d39565b9450506020612ef487828801612d39565b9350506040612f0587828801612df6565b925050606085013567ffffffffffffffff811115612f2257600080fd5b612f2e87828801612da2565b91505092959194509250565b60008060408385031215612f4d57600080fd5b6000612f5b85828601612d39565b9250506020612f6c85828601612d63565b9150509250929050565b60008060408385031215612f8957600080fd5b6000612f9785828601612d39565b9250506020612fa885828601612df6565b9150509250929050565b600060208284031215612fc457600080fd5b6000612fd284828501612d78565b91505092915050565b600060208284031215612fed57600080fd5b6000612ffb84828501612d8d565b91505092915050565b60006020828403121561301657600080fd5b600082013567ffffffffffffffff81111561303057600080fd5b61303c84828501612dcc565b91505092915050565b6000806040838503121561305857600080fd5b600083013567ffffffffffffffff81111561307257600080fd5b61307e85828601612dcc565b925050602061308f85828601612d4e565b9150509250929050565b6000602082840312156130ab57600080fd5b60006130b984828501612df6565b91505092915050565b6130cb81614225565b82525050565b6130da8161419f565b82525050565b6130e9816141c3565b82525050565b60006130fa82614096565b61310481856140ac565b935061311481856020860161426a565b61311d81614405565b840191505092915050565b6000613133826140a1565b61313d81856140c8565b935061314d81856020860161426a565b61315681614405565b840191505092915050565b600061316c826140a1565b61317681856140d9565b935061318681856020860161426a565b80840191505092915050565b600061319f6060836140c8565b91507f596f75206861766520746f20646f6e617465206174206c6561737420302e303060008301527f312065746820746f20746865206e6f6e2d70726f666974206f7267616e697a6160208301527f74696f6e20696e206f7264657220746f2063726561746520746865204e46542e6040830152606082019050919050565b600061322b602b836140c8565b91507f455243373231456e756d657261626c653a206f776e657220696e646578206f7560008301527f74206f6620626f756e64730000000000000000000000000000000000000000006020830152604082019050919050565b60006132916032836140c8565b91507f4552433732313a207472616e7366657220746f206e6f6e20455243373231526560008301527f63656976657220696d706c656d656e74657200000000000000000000000000006020830152604082019050919050565b60006132f76026836140c8565b91507f4f776e61626c653a206e6577206f776e657220697320746865207a65726f206160008301527f64647265737300000000000000000000000000000000000000000000000000006020830152604082019050919050565b600061335d601c836140c8565b91507f4552433732313a20746f6b656e20616c7265616479206d696e746564000000006000830152602082019050919050565b600061339d6014836140c8565b91507f4661696c656420746f2073656e642045746865720000000000000000000000006000830152602082019050919050565b60006133dd6024836140c8565b91507f4552433732313a207472616e7366657220746f20746865207a65726f2061646460008301527f72657373000000000000000000000000000000000000000000000000000000006020830152604082019050919050565b60006134436019836140c8565b91507f4552433732313a20617070726f766520746f2063616c6c6572000000000000006000830152602082019050919050565b6000613483602c836140c8565b91507f4552433732313a206f70657261746f7220717565727920666f72206e6f6e657860008301527f697374656e7420746f6b656e00000000000000000000000000000000000000006020830152604082019050919050565b60006134e96038836140c8565b91507f4552433732313a20617070726f76652063616c6c6572206973206e6f74206f7760008301527f6e6572206e6f7220617070726f76656420666f7220616c6c00000000000000006020830152604082019050919050565b600061354f602a836140c8565b91507f4552433732313a2062616c616e636520717565727920666f7220746865207a6560008301527f726f2061646472657373000000000000000000000000000000000000000000006020830152604082019050919050565b60006135b56029836140c8565b91507f4552433732313a206f776e657220717565727920666f72206e6f6e657869737460008301527f656e7420746f6b656e00000000000000000000000000000000000000000000006020830152604082019050919050565b600061361b6057836140c8565b91507f596f75206172652073656e64696e672065746820746f2061207265636970696560008301527f6e742074686174206973206e6f742070617274206f6620746865206c6973742060208301527f6f6620656c696769626c6520726563697069656e74732e0000000000000000006040830152606082019050919050565b60006136a76026836140c8565b91507f526563697069656e742068617320616c7265616479206265656e20617574686f60008301527f72697a65642e00000000000000000000000000000000000000000000000000006020830152604082019050919050565b600061370d6020836140c8565b91507f4552433732313a206d696e7420746f20746865207a65726f20616464726573736000830152602082019050919050565b600061374d6031836140c8565b91507f45524337323155524953746f726167653a2055524920717565727920666f722060008301527f6e6f6e6578697374656e7420746f6b656e0000000000000000000000000000006020830152604082019050919050565b60006137b3602c836140c8565b91507f4552433732313a20617070726f76656420717565727920666f72206e6f6e657860008301527f697374656e7420746f6b656e00000000000000000000000000000000000000006020830152604082019050919050565b6000613819602c836140c8565b91507f4552433732314d657461646174613a2055524920736574206f66206e6f6e657860008301527f697374656e7420746f6b656e00000000000000000000000000000000000000006020830152604082019050919050565b600061387f6020836140c8565b91507f4f776e61626c653a2063616c6c6572206973206e6f7420746865206f776e65726000830152602082019050919050565b60006138bf601f836140c8565b91507f526563697069656e742068617320746f20626520617574686f72697a65642e006000830152602082019050919050565b60006138ff6029836140c8565b91507f4552433732313a207472616e73666572206f6620746f6b656e2074686174206960008301527f73206e6f74206f776e00000000000000000000000000000000000000000000006020830152604082019050919050565b6000613965602f836140c8565b91507f4552433732314d657461646174613a2055524920717565727920666f72206e6f60008301527f6e6578697374656e7420746f6b656e00000000000000000000000000000000006020830152604082019050919050565b60006139cb6034836140c8565b91507f54686973204950465320686173682068617320616c7265616479206265656e2060008301527f7573656420746f206d696e7420616e204e4654210000000000000000000000006020830152604082019050919050565b6000613a316021836140c8565b91507f4552433732313a20617070726f76616c20746f2063757272656e74206f776e6560008301527f72000000000000000000000000000000000000000000000000000000000000006020830152604082019050919050565b6000613a976000836140bd565b9150600082019050919050565b6000613ab16031836140c8565b91507f4552433732313a207472616e736665722063616c6c6572206973206e6f74206f60008301527f776e6572206e6f7220617070726f7665640000000000000000000000000000006020830152604082019050919050565b6000613b17602c836140c8565b91507f455243373231456e756d657261626c653a20676c6f62616c20696e646578206f60008301527f7574206f6620626f756e647300000000000000000000000000000000000000006020830152604082019050919050565b613b798161421b565b82525050565b6000613b8b8284613161565b915081905092915050565b6000613ba28285613161565b9150613bae8284613161565b91508190509392505050565b6000613bc582613a8a565b9150819050919050565b6000602082019050613be460008301846130d1565b92915050565b6000606082019050613bff60008301866130d1565b613c0c60208301856130c2565b613c196040830184613b70565b949350505050565b6000608082019050613c3660008301876130d1565b613c4360208301866130d1565b613c506040830185613b70565b8181036060830152613c6281846130ef565b905095945050505050565b6000602082019050613c8260008301846130e0565b92915050565b60006020820190508181036000830152613ca28184613128565b905092915050565b60006020820190508181036000830152613cc381613192565b9050919050565b60006020820190508181036000830152613ce38161321e565b9050919050565b60006020820190508181036000830152613d0381613284565b9050919050565b60006020820190508181036000830152613d23816132ea565b9050919050565b60006020820190508181036000830152613d4381613350565b9050919050565b60006020820190508181036000830152613d6381613390565b9050919050565b60006020820190508181036000830152613d83816133d0565b9050919050565b60006020820190508181036000830152613da381613436565b9050919050565b60006020820190508181036000830152613dc381613476565b9050919050565b60006020820190508181036000830152613de3816134dc565b9050919050565b60006020820190508181036000830152613e0381613542565b9050919050565b60006020820190508181036000830152613e23816135a8565b9050919050565b60006020820190508181036000830152613e438161360e565b9050919050565b60006020820190508181036000830152613e638161369a565b9050919050565b60006020820190508181036000830152613e8381613700565b9050919050565b60006020820190508181036000830152613ea381613740565b9050919050565b60006020820190508181036000830152613ec3816137a6565b9050919050565b60006020820190508181036000830152613ee38161380c565b9050919050565b60006020820190508181036000830152613f0381613872565b9050919050565b60006020820190508181036000830152613f23816138b2565b9050919050565b60006020820190508181036000830152613f43816138f2565b9050919050565b60006020820190508181036000830152613f6381613958565b9050919050565b60006020820190508181036000830152613f83816139be565b9050919050565b60006020820190508181036000830152613fa381613a24565b9050919050565b60006020820190508181036000830152613fc381613aa4565b9050919050565b60006020820190508181036000830152613fe381613b0a565b9050919050565b6000602082019050613fff6000830184613b70565b92915050565b6000604051905081810181811067ffffffffffffffff8211171561402c5761402b6143d6565b5b8060405250919050565b600067ffffffffffffffff821115614051576140506143d6565b5b601f19601f8301169050602081019050919050565b600067ffffffffffffffff821115614081576140806143d6565b5b601f19601f8301169050602081019050919050565b600081519050919050565b600081519050919050565b600082825260208201905092915050565b600081905092915050565b600082825260208201905092915050565b600081905092915050565b60006140ef8261421b565b91506140fa8361421b565b9250827fffffffffffffffffffffffffffffffffffffffffffffffffffffffffffffffff0382111561412f5761412e614349565b5b828201905092915050565b60006141458261421b565b91506141508361421b565b9250826141605761415f614378565b5b828204905092915050565b60006141768261421b565b91506141818361421b565b92508282101561419457614193614349565b5b828203905092915050565b60006141aa826141fb565b9050919050565b60006141bc826141fb565b9050919050565b60008115159050919050565b60007fffffffff0000000000000000000000000000000000000000000000000000000082169050919050565b600073ffffffffffffffffffffffffffffffffffffffff82169050919050565b6000819050919050565b600061423082614237565b9050919050565b600061424282614249565b9050919050565b6000614254826141fb565b9050919050565b82818337600083830152505050565b60005b8381101561428857808201518184015260208101905061426d565b83811115614297576000848401525b50505050565b600060028204905060018216806142b557607f821691505b602082108114156142c9576142c86143a7565b5b50919050565b60006142da8261421b565b91507fffffffffffffffffffffffffffffffffffffffffffffffffffffffffffffffff82141561430d5761430c614349565b5b600182019050919050565b60006143238261421b565b915061432e8361421b565b92508261433e5761433d614378565b5b828206905092915050565b7f4e487b7100000000000000000000000000000000000000000000000000000000600052601160045260246000fd5b7f4e487b7100000000000000000000000000000000000000000000000000000000600052601260045260246000fd5b7f4e487b7100000000000000000000000000000000000000000000000000000000600052602260045260246000fd5b7f4e487b7100000000000000000000000000000000000000000000000000000000600052604160045260246000fd5b6000601f19601f8301169050919050565b61441f8161419f565b811461442a57600080fd5b50565b614436816141b1565b811461444157600080fd5b50565b61444d816141c3565b811461445857600080fd5b50565b614464816141cf565b811461446f57600080fd5b50565b61447b8161421b565b811461448657600080fd5b5056fea26469706673582212207c2d8b705a5a6deedec9c49bf0316dd579e5a6381c453944ce1dcc63317134dc64736f6c63430008000033",
  "immutableReferences": {},
  "source": "// SPDX-License-Identifier: MIT\r\npragma solidity ^0.8.0;\r\n\r\nimport \"@openzeppelin/contracts/token/ERC721/extensions/ERC721Enumerable.sol\";\r\nimport \"@openzeppelin/contracts/utils/Counters.sol\";\r\nimport \"@openzeppelin/contracts/access/Ownable.sol\";\r\n\r\ncontract GreenCollectible is ERC721Enumerable, Ownable {\r\n    using Counters for Counters.Counter;\r\n\r\n    // Counter for token ids\r\n    Counters.Counter private tokenIds;\r\n\r\n    // Mapping for the to set a tokenURI to a tokenId\r\n    mapping(uint256 => string) private _tokenURIs;\r\n\r\n    // Mapping to check if an address is an authorized non-profit organization\r\n    mapping(address => bool) public isAnEligibleNonProfitOrganization;\r\n\r\n    // Mapping to keep track of how much eth has been donated by a an account\r\n    mapping(address => uint256) public totalDonationsByAccount;\r\n\r\n    // Mapping to keep track of how much eth has been donated by a minted NFT. Will be used when selling.\r\n    mapping(uint256 => uint256) public totalDonationsByNFT;\r\n\r\n    // Mapping to check if the metadata has been minted\r\n    mapping(string => bool) public hasBeenMinted;\r\n\r\n    /**\r\n     * @dev Emitted when `from` creates a collectible and donates `to` the `amount`.\r\n     */\r\n    event Donated(address from, address to, uint256 amount);\r\n\r\n    /**\r\n     * @dev Emitted when `recipient` has been authorized to receive donations by the owner of this smart contract.\r\n     */\r\n    event Authorized(address recipient);\r\n\r\n    /**\r\n     * @dev Emitted when `recipient` has been unauthorized to receive donations by the owner of this smart contract.\r\n     */\r\n    event Unauthorized(address recipient);\r\n\r\n    /**\r\n     * @dev Initializes the contract by setting a `name` and a `symbol` to the token collection inheriting from the ERC721 smart contract.\r\n     */\r\n    constructor() ERC721(\"NFTreeCollectible\", \"NFTC\") {}\r\n\r\n    /**\r\n     * @dev create a collectible with a `metadata` for the msg.sender and transfer eth to an authorized `recipient`\r\n     *\r\n     * Requirements:\r\n     *\r\n     * - msg.value must be at least 0.001 eth.\r\n     * - `recipient` must be authorized by this contract's owner\r\n     * - `metadata` should be minted for the first time\r\n     *\r\n     * Emits a {Transfer} event - comes from the ERC-721 smart contract.\r\n     * Emits a {Donated} event.\r\n     */\r\n    function createCollectibleAndDonate(\r\n        string memory metadata,\r\n        address payable recipient\r\n    ) public payable returns (uint256) {\r\n        require(\r\n            msg.value >= 0.001 ether,\r\n            \"You have to donate at least 0.001 eth to the non-profit organization in order to create the NFT.\"\r\n        );\r\n        require(\r\n            isAnEligibleNonProfitOrganization[recipient],\r\n            \"You are sending eth to a recipient that is not part of the list of eligible recipients.\"\r\n        );\r\n        require(\r\n            !hasBeenMinted[metadata],\r\n            \"This IPFS hash has already been used to mint an NFT!\"\r\n        );\r\n\r\n        //send to non-profit organization\r\n        (bool sent, ) = recipient.call{value: msg.value}(\"\");\r\n        require(sent, \"Failed to send Ether\");\r\n        totalDonationsByAccount[msg.sender] = totalDonationsByAccount[msg.sender] + msg.value;\r\n\r\n        hasBeenMinted[metadata] = true;\r\n        tokenIds.increment();\r\n        uint256 newItemId = tokenIds.current();\r\n        totalDonationsByNFT[newItemId] = totalDonationsByNFT[newItemId] + msg.value;\r\n        _mint(msg.sender, newItemId);\r\n        _setTokenURI(newItemId, metadata);\r\n\r\n        emit Donated(msg.sender, recipient, msg.value);\r\n\r\n        return newItemId;\r\n    }\r\n\r\n    /**\r\n     * @dev authorizes a recipient which in this case is to be a non-profit organization which plants trees around the world\r\n     *\r\n     * Requirements:\r\n     * - msg.sender has to be the owner of this smart contract\r\n     * - `recipient` must not have been authorized.\r\n     *\r\n     * Emits an {Authorized} event.\r\n     */\r\n    function authorizeRecipient(address recipient) external onlyOwner {\r\n        require(\r\n            !isAnEligibleNonProfitOrganization[recipient],\r\n            \"Recipient has already been authorized.\"\r\n        );\r\n        isAnEligibleNonProfitOrganization[recipient] = true;\r\n        emit Authorized(recipient);\r\n    }\r\n\r\n    /**\r\n     * @dev unauthorizes a recipient which in this case is to be a non-profit organization which plants trees around the world\r\n     *\r\n     * Requirements:\r\n     * - msg.sender has to be the owner of this smart contract\r\n     * - `recipient` must have been authorized.\r\n     *\r\n     * Emits an {Unauthorized} event.\r\n     */\r\n    function unauthorizeRecipient(address recipient) external onlyOwner {\r\n        require(\r\n            isAnEligibleNonProfitOrganization[recipient],\r\n            \"Recipient has to be authorized.\"\r\n        );\r\n        isAnEligibleNonProfitOrganization[recipient] = false;\r\n        emit Unauthorized(recipient);\r\n    }\r\n\r\n    /**\r\n     * @dev sets a `tokenURI` for an existing `tokenId`\r\n     *\r\n     * Requirements:\r\n     * - `tokenId` must exist\r\n     */\r\n    function _setTokenURI(uint256 tokenId, string memory _tokenURI)\r\n        internal\r\n        virtual\r\n    {\r\n        require(\r\n            _exists(tokenId),\r\n            \"ERC721Metadata: URI set of nonexistent token\"\r\n        );\r\n        _tokenURIs[tokenId] = _tokenURI;\r\n    }\r\n\r\n    /**\r\n     * @dev See {IERC721Metadata-tokenURI}.\r\n     */\r\n    function tokenURI(uint256 tokenId) public view virtual override returns (string memory) {\r\n        require(_exists(tokenId), \"ERC721URIStorage: URI query for nonexistent token\");\r\n\r\n        string memory _tokenURI = _tokenURIs[tokenId];\r\n        string memory base = _baseURI();\r\n\r\n        // If there is no base URI, return the token URI.\r\n        if (bytes(base).length == 0) {\r\n            return _tokenURI;\r\n        }\r\n        // If both are set, concatenate the baseURI and tokenURI (via abi.encodePacked).\r\n        if (bytes(_tokenURI).length > 0) {\r\n            return string(abi.encodePacked(base, _tokenURI));\r\n        }\r\n\r\n        return super.tokenURI(tokenId);\r\n    }\r\n}\r\n",
  "sourcePath": "D:/Projects_gitcoin/nftrees/contracts/GreenCollectible.sol",
  "compiler": {
    "name": "solc",
    "version": "0.8.0+commit.c7dfd78e.Emscripten.clang"
  },
  "schemaVersion": "3.4.0",
  "updatedAt": "2021-05-01T10:50:37.675Z",
  "networkType": "ethereum",
  "devdoc": {
    "events": {
      "Authorized(address)": {
        "details": "Emitted when `recipient` has been authorized to receive donations by the owner of this smart contract."
      },
      "Donated(address,address,uint256)": {
        "details": "Emitted when `from` creates a collectible and donates `to` the `amount`."
      },
      "Unauthorized(address)": {
        "details": "Emitted when `recipient` has been unauthorized to receive donations by the owner of this smart contract."
      }
    },
    "kind": "dev",
    "methods": {
      "approve(address,uint256)": {
        "details": "See {IERC721-approve}."
      },
      "authorizeRecipient(address)": {
        "details": "authorizes a recipient which in this case is to be a non-profit organization which plants trees around the world Requirements: - msg.sender has to be the owner of this smart contract - `recipient` must not have been authorized. Emits an {Authorized} event."
      },
      "balanceOf(address)": {
        "details": "See {IERC721-balanceOf}."
      },
      "constructor": {
        "details": "Initializes the contract by setting a `name` and a `symbol` to the token collection inheriting from the ERC721 smart contract."
      },
      "createCollectibleAndDonate(string,address)": {
        "details": "create a collectible with a `metadata` for the msg.sender and transfer eth to an authorized `recipient` Requirements: - msg.value must be at least 0.001 eth. - `recipient` must be authorized by this contract's owner - `metadata` should be minted for the first time Emits a {Transfer} event - comes from the ERC-721 smart contract. Emits a {Donated} event."
      },
      "getApproved(uint256)": {
        "details": "See {IERC721-getApproved}."
      },
      "isApprovedForAll(address,address)": {
        "details": "See {IERC721-isApprovedForAll}."
      },
      "name()": {
        "details": "See {IERC721Metadata-name}."
      },
      "owner()": {
        "details": "Returns the address of the current owner."
      },
      "ownerOf(uint256)": {
        "details": "See {IERC721-ownerOf}."
      },
      "renounceOwnership()": {
        "details": "Leaves the contract without owner. It will not be possible to call `onlyOwner` functions anymore. Can only be called by the current owner. NOTE: Renouncing ownership will leave the contract without an owner, thereby removing any functionality that is only available to the owner."
      },
      "safeTransferFrom(address,address,uint256)": {
        "details": "See {IERC721-safeTransferFrom}."
      },
      "safeTransferFrom(address,address,uint256,bytes)": {
        "details": "See {IERC721-safeTransferFrom}."
      },
      "setApprovalForAll(address,bool)": {
        "details": "See {IERC721-setApprovalForAll}."
      },
      "supportsInterface(bytes4)": {
        "details": "See {IERC165-supportsInterface}."
      },
      "symbol()": {
        "details": "See {IERC721Metadata-symbol}."
      },
      "tokenByIndex(uint256)": {
        "details": "See {IERC721Enumerable-tokenByIndex}."
      },
      "tokenOfOwnerByIndex(address,uint256)": {
        "details": "See {IERC721Enumerable-tokenOfOwnerByIndex}."
      },
      "tokenURI(uint256)": {
        "details": "See {IERC721Metadata-tokenURI}."
      },
      "totalSupply()": {
        "details": "See {IERC721Enumerable-totalSupply}."
      },
      "transferFrom(address,address,uint256)": {
        "details": "See {IERC721-transferFrom}."
      },
      "transferOwnership(address)": {
        "details": "Transfers ownership of the contract to a new account (`newOwner`). Can only be called by the current owner."
      },
      "unauthorizeRecipient(address)": {
        "details": "unauthorizes a recipient which in this case is to be a non-profit organization which plants trees around the world Requirements: - msg.sender has to be the owner of this smart contract - `recipient` must have been authorized. Emits an {Unauthorized} event."
      }
    },
    "version": 1
  },
  "userdoc": {
    "kind": "user",
    "methods": {},
    "version": 1
  }
}